:1000000000100020CD010000C9010000C90100005E
:10001000C9010000C9010000C9010000C9010000B8
:10002000C9010000C9010000C9010000C9010000A8
:10003000C9010000C9010000C9010000C901000098
:10004000C9010000C9010000C9010000C901000088
:10005000C9010000C9010000C9010000C901000078
:10006000C9010000C9010000C9010000C901000068
:10007000C9010000C9010000C9010000C901000058
:10008000C9010000392E0000C9010000C9010000AB
:10009000C9010000C9010000C9010000C901000038
:1000A000C9010000C9010000C9010000B52E00000F
:1000B000C9010000C9010000A1260000C90100001B
:1000C000C9010000C9010000C9010000C901000008
:1000D000C9010000C9010000C9010000C9010000F8
:1000E000C9010000C9010000BD2D0000C9010000C8
:1000F000C9010000C9010000C9010000C9010000D8
:10010000C9010000C9010000C901000010B5054C7B
:10011000237833B9044B13B10448AFF300800123B3
:10012000237010BD981000200000000094370000DC
:1001300008B5034B1BB103490348AFF3008008BD6A
:10014000000000009C10002094370000A3F5803AC6
:10015000704700BF174B002B08BF134B9D46FFF79E
:10016000F5FF00218B460F461348144A121A03F07C
:100170003DF90E4B002B00D098470D4B002B00D0C3
:1001800098470020002104000D000D48002802D0EF
:100190000C48AFF3008003F005F92000290003F0BC
:1001A0002FF803F0EBF800BF00000800000000008B
:1001B0000000000000100020981000204C110020CA
:1001C0000000000000000000FEE700BF08B500F0DE
:1001D0005BF8064B0648834206D2064A52F8041BD7
:1001E00043F8041B9842F9D8FFF7B4FF0010002031
:1001F000981000209C3700000048704700F049022A
:10020000114BD3F8943003F00703023B032B18D8AB
:10021000DFE803F00D0214104FF400400A4BD3F84E
:100220000031C3F304230133B0FBF3F07047074BF5
:100230001868F3E7064B18684008EFE7054B1868A5
:10024000ECE7034B1868E9E700400E40041000207B
:10025000081000200C10002008B5FFF7D1FF054B57
:10026000054AD3F80831C3F308230133B0FBF3F098
:10027000106008BD00400E4000100020014B1868BF
:10028000704700BF04100020044B054A9A60D3F861
:10029000882042F47002C3F88820704700ED00E027
:1002A000000000004FF40040704700BF4FF47A7028
:1002B000704700BF014B1868704700BF0C1000204A
:1002C000FEE700BF264B98423DD00DD8A3F5B703FB
:1002D000A3F5586398423AD010D9224B984211D1D5
:1002E000214BD3F84C017047204B984233D0204B20
:1002F000984213D11C4BD3F8600170471D4B9842B4
:100300001DD001D9002070471B4B984202D01B4BD7
:1003100098420DD1144BD3F830017047A3F5370341
:10032000A3F5D8539842EDD10F4BD3F8580170473D
:10033000134B9842E6D10C4BD3F8300170470A4B6F
:10034000D3F83C017047084BD3F850017047064B77
:10035000D3F848017047044BD3F85C01704700BFE5
:10036000C0EA21010024F4000081E00F0048E80108
:1003700080D54302C0CF6A0080841E0000093D0082
:1003800040420F004FF0000C144B154A5B68C9B295
:10039000614510B5634608D00133052B02F1080210
:1003A00013D012F808CC6145F6D152F80C4C8442B7
:1003B000F2D30C4A02EBC3035B791A0607494B6878
:1003C00023F0407313434B6010BD074841F29E3148
:1003D000FFF776FF4FF04072F0E700BF00000E40DD
:1003E000F0340000E43400002034000038B5054C3F
:1003F00041F67133256C2364FFF7C4FF0DB1002370
:10040000236438BD00000E40C0F30323013B10B449
:10041000092B06D8DFE803F00C150505191D2D057D
:1004200033391C485DF8044B41F63B11FFF748BFD8
:10043000194CC0F30430204480005DF8044B016087
:100440007047164CC0F30430F5E7154CC0F3043088
:10045000F1E7144CC0F304304FF0010C124AD2F80B
:100460004431DB07E7D4D2F8403113EA0C0FFAD15C
:10047000E1E70E4CC0F304304FF0100CEEE70C4CEB
:10048000C0F304304FF4803CE8E70A4CC0F304307A
:10049000D1E700BF203400000000F2100006F21087
:1004A0008005F2100007F21000400E404007F210E5
:1004B0008007F210800AF21008B5C0F30313013B65
:1004C000092B0FD8DFE803F015272D1B0E0E21375F
:1004D00044053D4B98424BD13C4BD3F8300100F0E2
:1004E000030008BD3A4841F63731FFF7E9FE002026
:1004F00008BD364BD3F80001C0F3042008BD334BD0
:10050000D3F80C01C0F3082008BD304BD3F8080124
:10051000C0F3082008BD2D4BD3F81401C0F304200C
:1005200008BD2A4BD3F800310120C3F30063034414
:100530009840013808BD274B984220D0264B98425E
:1005400030D0234841F6DF21FFF7BAFE002008BD76
:10055000224B98422FD003F5B01303F580539842F5
:1005600016D01B4841F60331FFF7AAFE002008BD54
:10057000174841F61231FFF7A3FE002008BD134BC8
:10058000D3F82031012003F00F039840013808BD53
:100590000E4BD3F82831C3F30123043301209840D4
:1005A000013808BD094BD3F820310120C3F30113F2
:1005B0009840013808BD054BD3F828310120C3F31A
:1005C00001139840013808BDA009140000400E40F6
:1005D000203400008006160080162E0090171A00A6
:1005E00000F00F00013808B5072813D8DFE800F045
:1005F00019243A122F451204284BD3F85C3103F02A
:100600003003202B47D0302B43D0102B14BF0120B8
:10061000072008BD224841F68B61FFF751FE0020FC
:1006200008BD1E4BD3F8943003F00703023B052BA3
:100630002DD81C4AD05C08BD184BD3F8803003F08D
:100640000703013B032B20D8174AD05C08BD134B8E
:10065000D3F8883003F00703013B032B15D8134A66
:10066000D05C08BD0D4BD3F8843003F00703013B89
:10067000032B0AD80E4AD05C08BD084B1B6F13F041
:10068000010F0CBF0720092008BD012008BD05206F
:1006900008BD082008BD042008BD00BF00400E4072
:1006A00020340000843400008C3400008C340000BE
:1006B000903400002B4B984210B52FD02A4B984213
:1006C000044623D0294B984230D041F29E4128481D
:1006D000FFF7F6FD2046FFF783FF41F2CD410446C8
:1006E0002348FFF7EDFD042C34D8DFE804F00D2B90
:1006F0002F032700FFF784FD1E4BD3F80041C4F3FE
:100700000064013420FA04F4204610BDFFF768FFAE
:10071000184BD3F8884004F00704E4E7FFF760FFC4
:10072000144BD3F8844004F00704DCE7FFF758FFCC
:10073000104BD3F8804004F00704D4E7BDE8104024
:10074000FFF7B4BDBDE81040FFF7ACBDBDE81040F9
:10075000FFF7B0BD064841F21F51FFF7B1FD00247D
:10076000D2E700BF030020000500240002001E00A5
:100770002034000000400E4000F47813B3F5B01FA1
:1007800010B500F09D802BD8B3F5402F00F0A2806B
:100790001AD9B3F5801F14D0B3F5A01F09D163484F
:1007A000FFF788FF624BD3F8303103F00303D840E2
:1007B00010BDB3F5602F40F098805D4B1B6FDB07D9
:1007C0000AD45C4B186810BDB3F5802F6DD01ED9CC
:1007D000B3F5202F40F08980BDE81040FFF710BD31
:1007E000B3F5381F48D030D9B3F5481F00F08480E6
:1007F000B3F5781F1BD10446FFF702FD03462046E0
:100800001C46FFF759FE0130B4FBF0F010BD002B81
:10081000E2D0B3F5003F68D1FFF7F2FC444BD3F8C8
:100820000831C3F308230133B0FBF3F010BDB3F577
:10083000401F5AD14048FFF73DFF3D4BD3F82831C8
:10084000C3F301230433D84010BDB3F5001F1DD0FE
:1008500007D9B3F5101F48D1BDE810403348FFF762
:1008600029BFB3F5D01F16D0B3F5F01F3DD1BDE8B9
:1008700010403248FFF71EBF3048FFF71BFF2C4BDC
:10088000D3F82031C3F30113D84010BDBDE81040A8
:100890002948FFF70FBF2848FFF70CFF244BD3F878
:1008A0002831C3F30113D84010BDFFF7A9FC204B3A
:1008B000D3F80C31C3F308230133B0FBF3F010BDC0
:1008C0001E48FFF7F7FE1A4BD3F8203103F00F0351
:1008D000D84010BDFFF794FC154BD3F81431C3F387
:1008E00004230133B0FBF3F010BD154841F66B2132
:1008F000FFF7E6FC002010BD0D4CD4F85C3103F08E
:100900003003202B04D0302B06D0102BF2D158E727
:10091000BDE81040FFF7B2BCFFF772FCD4F800311D
:10092000C3F3042303FB000010BD00BF0500240037
:1009300000400E40101000200300200002001E00A6
:10094000203400002DE9F8430546FFF7BBFC431EA9
:100950000333064659D8DFF820827A4BD8F8007066
:10096000C8F80050D3F8943003F00703023B052B7E
:1009700046D9754C41F67133D4F840902364FFF7A3
:100980003BFC0021FFF7FEFCB9F1000F40F0BF80F7
:100990006E4BD3F86048002CFBD1721C00F0BD8078
:1009A0006B4B9D4200F0A5806A4B9D4200F09E80FB
:1009B000694B9D422FD0634BD3F8943003F007036B
:1009C000023B052B33D9654B9D4240F2A380644A1C
:1009D0000123954294BF4FF080724FF0007261493D
:1009E0000B645849D1F8003123F080731343BD42A2
:1009F000C1F8003121D90121284600F097FE1CE002
:100A0000594AD35C052BC3D1B3E7584842F255315C
:100A1000FFF756FC9FE726F0C06646F08066494B1C
:100A2000D3F8943003F00703023B052B72D84E4AEB
:100A3000D35C052BC7D0BD42DDD8424B1E61D3F835
:100A4000943003F00703023B052B2BD9FFF704FC7E
:100A50008542064667D3D8F80030B34269D3AB422B
:100A600004D0424842F29431FFF72AFC404BDB6B42
:100A70005B0604D43F4AD2F8C830002BFBD13C4B74
:100A80003046314E5968D6F8408041F67133C1F393
:100A900001413364FFF776FCB8F1000F06D0002364
:100AA000336403E0304AD35C052BCFD0FFF7A8FBBB
:100AB0002A4B984218D92A4B0124984294BF4FF0F0
:100AC00080704FF00070274B1E4A1C64D2F8003132
:100AD00023F080731843BD42C2F800010ED9194BB0
:100AE000D3F89430BDE8F8830020ECE726F0C06628
:100AF00095E726F0C06646F0007690E701210020D9
:100B000000F014FE0F4BD3F89430BDE8F8830023B7
:100B100023643DE70022134661E7144842F2663140
:100B2000FFF7CEFB3CE7114842F29231FFF7C8FBDA
:100B300091E70E4842F29331FFF7C2FBD8F800303C
:100B40008DE700BF00400E4000000E400020C8436B
:100B500080841E0000093D0040420F000048E8016B
:100B60000090D0030000C84384340000203400000B
:100B700000300E400000C64308100020344BD3F86C
:100B8000943003F00703023B052B10B5044608D848
:100B9000304AD35C042B04D12F4842F27341FFF753
:100BA0008FFB2B4A08231366D2F890305907FBD4E9
:100BB000274AD2F890301B07FBD4637813B9A37887
:100BC000002B38D042F2AF412348FFF779FB217C5C
:100BD000012936D01E4A2148536A23F00103022915
:100BE00008BF43F0010321785362C0F8A014637A70
:100BF000A18843EAC123D362136BA17A207A03F060
:100C00007F630B43E18843EAC123C11C0F2943EAF8
:100C1000C01328BF0F2143EA01731363A37B94F829
:100C20000DC0E07B217B1B0143EA0C33034343EA05
:100C30000143536310BDE378002BC3D1217C01290C
:100C4000C8D142F2B6410448FFF73AFB217CC1E724
:100C500000400E4084340000203400000000C843EF
:100C6000013810B50C46032868D8DFE800F02235BB
:100C700012027F295CD8354A04F07F04D2F8643828
:100C8000002BFBD1324A936923F07F031C4394610C
:100C900010BD7F2946D82D4A04F07F04D2F8603871
:100CA000002BFBD12A4A136923F07F031C431461F4
:100CB00010BDB1F5007F2FD2244AC4F30804D2F846
:100CC0006838002BFBD1224A136A23F4FF7323F008
:100CD00001032343136210BD1D4BD3F890305B0713
:100CE00014D41B481B4B416A21F0300141F0100124
:100CF0004162016BC4F3C31203320B400F2A28BFB9
:100D00000F22234343EA0273036310BD124842F2E9
:100D1000C161FFF7D5FAE4E70F4842F28961FFF7B6
:100D2000CFFAC9E70C4842F29661FFF7C9FAB2E779
:100D3000094842F2B161FFF7C3FA9CE7BDE81040F1
:100D4000054842F2DB61FFF7BBBA00BF0020C84391
:100D500000400E4000F8FF0F20340000042870D837
:100D60002DE9F0414D4B0D464D4953F8207051F897
:100D7000206082B00446002D4BD04A4B022853F825
:100D8000208063D000254848484B38448000C3F891
:100D900060800368002BFCD0002A37D0424B3344DC
:100DA0009E003368002BFCD0022C2FD175B33F4A34
:100DB000536ADB0766D54FF480612023C2F8A81080
:100DC0005366536AC3F30113002B0BBF4FF480002B
:100DD00000204FF440014FF40001D2F8903031EA86
:100DE0000303FAD1002855D1304CD4F89C5001228D
:100DF00000210220FFF7B2FFC5F30A010220FFF72E
:100E00002FFF042323663368002BFCD002B0BDE81B
:100E1000F081274B53F82030244801210366B94064
:100E2000D0F890300B42FBD1002AEFD001231F4AAB
:100E300003FA06F6D2F890303342FBD102B0BDE897
:100E4000F0811C4842F2D851FFF73ABA174B5B6A5F
:100E500013F0300F96D1184BDB6B58050AD5134BA6
:100E6000596AC9078FD5596A21F0300141F0100144
:100E7000596288E70F48019242F2E751FFF720FAE2
:100E8000019AECE7536AD2F8903003F44003B3F5CB
:100E9000400FF8D1D2F8A030A6E700BFA834000078
:100EA00094340000BC3400008004F21000400E4076
:100EB000D03400002034000000300E401128F8B576
:100EC0000C460AD000F00F00013807281CD8DFE8D4
:100ED00000F00922721B375C1B69042900F097801F
:100EE00005296AD00025023C0A2C00F2A580DFE823
:100EF00014F03E01D30025013201A300A300A3009A
:100F0000A300CC0043014101BDE8F840A64842F2ED
:100F10008A11FFF7D5B9062900F06281A34D013C83
:100F2000092C06D8DFE804F07A635305051405059B
:100F3000057CBDE8F8409C4841F6CB71FFF7C0B98D
:100F400006299B4DEBD198484FF4FD51FFF7B8F9B6
:100F5000FFF756F9974B98426BD9974B012198426E
:100F600094BF4FF080704FF00070944B944A196416
:100F7000D2F80031934923F0807318430123C2F85B
:100F80000001C1F8083603232FE0072900F0FA809A
:100F9000092900F0FB80BDE8F840834842F2550182
:100FA000FFF78EB94C1E072C3CD8DFE804F06A3BF3
:100FB0003B633B3B4C6C844DB1E7844A844B1568E2
:100FC0009D428FD90021284600F0B0FB8BE77C4B77
:100FD0007C4A40211966D2F81832002BFBD0794A9E
:100FE000D2F81C32002BFBD001232B60F8BD744BD0
:100FF000744A4FF480711966D2F82032002BFBD06E
:10100000704AD2F82432002BFBD00223EDE7FFF721
:1010100035F9054600283FF465AFD3E70023E4E740
:101020000423E2E7BDE8F8405F4842F2B301FFF76E
:1010300047B90020014698E7BDE8F8405A4841F614
:101040005171FFF73DB95E4B5E4A10211966D2F827
:101050001032002BFBD05B4AD2F81432002BFBD0AD
:101060001021574AD2F85C3123F030030B43C2F809
:101070005C31F8BD012211460220FFF76FFE2021EE
:10108000EFE70021EDE73021EBE7BDE8F840464807
:1010900041F64C71FFF714B90120032601221146D5
:1010A000FFF75CFE4B4C41F67133276C2364FFF76E
:1010B000A3F80021FFF766F90FB100232364002D88
:1010C00068D13F4B5E67FFF7C7F80446FFF798F813
:1010D000384A904253D9384A0121904294BF4FF088
:1010E00080734FF00073354A11643549D1F80021FF
:1010F00022F080721343384AC1F80031D36B5B068B
:1011000004D4364AD2F8C830002BFBD1324B314ED2
:101110005968376C41F67133C1F30141204633649D
:10112000FFF730F90FB100233364002D7FF45EAF79
:1011300028460121BDE8F84000F0F8BA1F4B204ACC
:1011400001211964D2F80031022043F08073C2F803
:1011500000310646A2E7194B194A01261E64D2F84F
:10116000003143F080730320C2F8003196E700207D
:10117000042693E7072695E7032005268EE700233C
:101180001946B0E70E4B00221A67F8BD0C4B01223E
:101190001A67F8BD104BDB6B5A0692D40F4AD2F88F
:1011A000C830002BFBD18CE72034000080400E407B
:1011B00088400E400048E8010090D0030000C8437A
:1011C00000400E400010C84384400E40081000202C
:1011D000002D310100000E4000300E400000C643DB
:1011E0000348044D41F69071FFF76AF8ABE600BF83
:1011F0002034000080400E40EFF3108072B670473C
:1012000000B962B6704700BFEFF31180602383F32B
:101210001188704780F31188704700BF38B542EAE3
:101220000323B3F5007F05460C463BD01DD8B3F52C
:10123000807F40D00CD940F20112934244D1304B10
:10124000D3F824321A0EC3F307432B60226038BD53
:10125000002B43D0012B37D1294BD3F82432C3F3D1
:101260000722DBB22B60226038BDB3F5407F3ED051
:1012700040F20132934208D1214BD3F828321A0EA2
:10128000C3F307432B60226038BD40F20122934232
:101290001AD11B4BD3F82832C3F30722DBB22B60E1
:1012A000226038BD164BD3F82032C3F30722DBB2DD
:1012B0002B60226038BD124BD3F81C321A0EC3F3D8
:1012C00007432B60226038BD0E4840F68E11FEF7B2
:1012D000F7FF002213462B60226038BD084BD3F87D
:1012E0001C32C3F30722DBB22B60226038BD044BF3
:1012F000D3F820321A0EC3F307432B60226038BDA7
:101300000081E00F0C3500001D4B022810B5D3F80A
:1013100030320C4622D003281ED0012814BFDBB285
:10132000C3F307231B0354B913F4702F19D11549C4
:10133000CA6E22F4704213430120CB6610BD13F431
:10134000702F15D10F49D1F8EC2022F470421343CD
:101350000120C1F8EC3010BD1B0EE3E7C3F30743D7
:10136000E0E7094840F61D11FEF7AAFF204610BD30
:10137000054840F62911FEF7A3FF002010BD00BF6D
:101380000081E00F00300E400C3500000E4BDA6B90
:10139000520618D4DB6B5B0604D40C4AD2F8C83072
:1013A000002BFBD1084B19685A68C1F30121C2F325
:1013B000014291421A6803D942F010021A60704744
:1013C00022F010021A60704700300E400000C64341
:1013D0002E4BDA6B520670B506D42D4909781022CF
:1013E000C1F102018A401A612A4B2B4DD3F880418A
:1013F00045F60E02C3F88021296840F255120A40D2
:1014000022491A66CB6B5E0604F0010404D4234A19
:10141000D2F8C830002BFBD11C4B1B68D80617D55F
:101420001C4AD2F84031D901FBD41D4B1D4E1B681C
:1014300013613178052916D01120FFF73FFD2B6885
:10144000DB070CD51CB1134B0022C3F8802170BD03
:10145000144E31780529EFD12B68DB07F2D40D4B00
:1014600002221A66EEE7094B0F4ADB6B10685A0638
:1014700004D40A4AD2F8C830002BFBD1034B596878
:10148000C1F30141FEF7B2FFE3E700BF00300E40B9
:10149000C510002000400E40B41000200000C643DC
:1014A000C0100020BE100020081000200F4A08B510
:1014B0000F4BD2F890201A601120FFF791F80D4AD7
:1014C0000D4B1070DB6B5B0604D40C4AD2F8C830AD
:1014D000002BFBD1084B0A485B680449094AC3F357
:1014E000014303700B69136008BD00BF00400E404C
:1014F000B4100020BE10002000300E400000C64393
:10150000C5100020C0100020704700BF704700BF0A
:10151000704700BF704700BF10B5044600283AD19D
:10152000FFF734FF1F4A136943F004031361FFF709
:10153000EBFFFFF7EBFF1C4B1B68DA0624D430BF30
:10154000FFF7E8FFFFF7E4FF4CB1FFF741FF164A52
:10155000D2F84C3123F00043C2F84C3110BD124B8D
:101560001B68DB0605D5114B1B69C3F30443082B2D
:1015700014D00D4AD2F84C3123F00043BDE810409E
:10158000C2F84C31FEF768BEFFF736FE01F044FFAB
:10159000FFF736FED4E7FFF789FFC1E7044B054AA2
:1015A0001A60E6E700ED00E000300E4000400E401B
:1015B00008100020C0EA210110B50446002845D1DA
:1015C000FFF7E4FE254BD3F880214FF4207145F658
:1015D0000E00C3F880011966D10744BF0022C3F88A
:1015E00080211F4A136943F004031361FFF78CFF46
:1015F0001C4B1B68DA0622D430BFFFF789FF4CB1C1
:10160000FFF7E6FE174AD2F84C3123F00043C2F848
:101610004C3110BD134B1B68DB0605D50F4B1B6906
:10162000C3F30443082B14D00E4AD2F84C3123F0F4
:101630000043BDE81040C2F84C31FEF70DBEFFF785
:10164000DBFD01F0E9FEFFF7DBFDD6E7FFF72EFF3C
:10165000B6E7054B054A1A60E6E700BF00400E40BA
:1016600000ED00E000300E4008100020C0EA21012B
:10167000294BDA6B520600D57047DB6B2DE9F04140
:101680000D465906044604D4244AD2F8C830002B2B
:10169000FBD1214F7B68C3F301439C420ED0204B0A
:1016A000D3F80081FEF7ACFD022C064619D0C4F138
:1016B0000202102393403B6145B90CB1BDE8F081B3
:1016C00021463046BDE8F041FEF790BEFB6B5A065E
:1016D000F3D4124AD2F8C830002BFBD1002CEDD144
:1016E000EEE7104BC8F3042808FB000898450CD817
:1016F00002213046FEF77AFE074B10221A61002DB8
:10170000DCD0DB6B5B06E4D5D8E7074840F23161FB
:10171000FEF7D6FDECE700BF00300E400000C643E8
:1017200000400E40002D31010C350000164BDB6BE4
:101730005B0609D448B1154B1B7813B1144B984282
:101740001CD90020FFF794BF704710B5114B82B031
:10175000D3F800410191FEF753FD0C4B01991B7822
:10176000C4F3042404FB000013B1094B984208D9C8
:10177000002002B0BDE81040FFF77ABF0220FFF75B
:1017800077BF0220F5E700BF00300E40C4100020F4
:10179000002D310100400E40094942780B6823F4C6
:1017A000407343EA0223022A0B6000D07047054BC6
:1017B0005B6A9B00FAD5044840F26D61FEF780BD7C
:1017C00000300E4000400E400C350000254A4AF61D
:1017D000E85310B4546B5363936FDB07FCD4136C62
:1017E00013F0030324D0204A01218342C2F8B41A23
:1017F0001BD0032B02D1431E012B21D9194A936F11
:10180000DB07FCD4136C174923F003030343136471
:101810008B6F13F00103FBD10038134A18BF01206E
:10182000012CC2F8B40A00D14B635DF8044B704739
:101830000028E0D10C4B5DF8044BC3F8B40A7047A4
:10184000084A4FF40023D362936FD907FCD4136C7A
:10185000044923F0030343F0010313644B6A1A03A2
:10186000FCD5CBE700300E400000C6432DE9F04F19
:10187000A0F5E16689B00024B6F5966FCDE9024483
:10188000CDE90444CDE9064472D8B0F5E16F914644
:10189000054688468CBF012200225DD05A4BD3F802
:1018A0001832190EC3F307434FF4966B0791049354
:1018B000DFF85CA10192DAF84C40C4F3017405A989
:1018C00002A82346FFF7AAFCDAF8EC70019AC7F3E6
:1018D00001273B4606A903A8FFF7A0FC049A079935
:1018E0008B1A06FB03F3B3FBFBF3D2182CBF0123C7
:1018F0000023914226D32BBB039806990B1A06FBB3
:1019000003F3B3FBFBF3C3182CBF01200020994263
:1019100018D3B8B902980599A1EB000C06FB0CF698
:10192000B6FBFBFB10EB0B0B2CBF01200020594535
:1019300008D338B9B9F1000F23D1B8F1000F30D175
:10194000012405E0314840F63C31FEF7B9FC0024A3
:10195000204609B0BDE8F08F2B4BD3F818324FF476
:101960001676C3F30721DBB207910493B3469FE7D2
:10197000264840F6EE21FEF7A3FC204609B0BDE85C
:10198000F08FDAF85C1021F4FE4121F0020141EA07
:101990000222B5F5E16F1E4918BF42F00202CA6586
:1019A000CBE7204600210193FFF7AEFC019B0446E4
:1019B000F0B1012138460193FFF7A6FC019B0446D4
:1019C000E0B1134A9B4538BF9B46536E23F4FF7327
:1019D000BBF1E70F23F0010328BF4FF0E70BB5F58C
:1019E000E16F18BF43F0010343EA4B035366AFE7CF
:1019F000064840F64B31FEF763FCA9E7034840F682
:101A00005331FEF75DFCA3E70081E00F0C350000C9
:101A100000300E403C4B196FDA6C10B5D4073ED540
:101A200011F0060F57D0132862D84FF44C523648A5
:101A30003649C36C364C23F47F431343C364C26CF2
:101A40000B88C16CC2F303222833013203EB53032A
:101A500002EB820CB3FBFCF3013B072B28BF0723EF
:101A600021F0EE6141EA036343F48013C364B4F9E7
:101A70000030002B12DB03F12801C1F34E030B44AD
:101A80005408016D04EB4202B3FBF2F2072A21F085
:101A9000700328BF072243EA0212026510BDDA6C08
:101AA000D4070BD411F0060F18D0DB6C194840F6A0
:101AB0009131FEF705FC6FF0FF02B8E7DB6CDC0745
:101AC000F4D511F0060FF1D127288CBF4FF47F42D7
:101AD0004FF4EE42ABE7DA6CD10711D40928A4D950
:101AE0000A3809288CBF4FF47F424FF4EE429EE73C
:101AF000143813288CBF4FF47F424FF4EE4296E720
:101B0000DB6CDB07E0D4D1E700300E40BA100020D8
:101B1000BC1000200C35000038B5754B02229A63CA
:101B20009B6B03F00F03934240F0A9800389C82BFD
:101B3000044637D8A2889A422AD8B4F90C30C82B68
:101B40001DDC6378012B11D0022B00F0BF80E388ED
:101B500042F21072934200F2A9804A2B2CD9B3F5BD
:101B6000FA7F80F0AA804FF0805126E0A388C82B2E
:101B7000EDD9604840F65B21FEF7A2FBE7E75D4840
:101B800040F65721FEF79CFB6378012BDCD1EDE793
:101B9000584840F65621FEF793FBB4F90C30C82B99
:101BA000CFDDECE7534840F65521FEF789FB23894A
:101BB000A2889A42C1D9EBE700214D4AB4F90C0042
:101BC000D36C4D4D23F0405323F001030028A8BFF0
:101BD00043F001030B43D364D2F8EC30A08843F404
:101BE0004073C2F8EC30D36E288043F08073D36624
:101BF000424BD3F88019D3F88039002938D0002B14
:101C00006ED03B4A136F23F0070343F004031367BE
:101C1000FFF700FF3A493B4B2089B4F90C200880BC
:101C2000A0881A80FFF7F6FEA37B002B3AD0012B89
:101C300034D0304840F6CE01FEF742FB01226088E6
:101C40001146FFF713FE054608B3294AD36B43F448
:101C50008063D3636078FFF7B9FDA37A274AA3F1C5
:101C60002003B3FA83F35B09C2F89437284638BDE2
:101C7000136F23F007031367FFF7CCFECAE71D4875
:101C800040F64B210025FEF71BFB284638BD1948BE
:101C900040F69F21FEF714FB284638BD144B1A4A24
:101CA0009A65CBE7124B194A9A65C7E7114840F687
:101CB0006821FEF705FBE3884FE740F6C3118B422E
:101CC00094BF4FF000514FF0405176E7A3880A2BA4
:101CD0007FF63DAF07484FF42661FEF7F1FA36E78D
:101CE000044840F6AF31FEF7EBFA288889E700BFD9
:101CF00000300E400C350000B81000200000C64334
:101D0000BA100020BC100020372110B777402057B0
:101D1000032838B504460D461ED9042805D00528E9
:101D20001AD0A0F10803022B16D90D487D21FEF729
:101D3000C7FA04EB4404240104F1804404F5204470
:101D4000FFF75AFA23685D4005F001155D402560F4
:101D5000BDE83840FFF754BA35F00113E9D0E4E7A5
:101D6000703500002DE9F0410D46164698460446B0
:101D7000E8B1012800F0AE80022800F0EB800328D3
:101D800000F0E580042800F09F80052800F0158110
:101D9000831F012B40F29880082800F01D8109283C
:101DA00000F028810A2840F08F80072301E040F2EC
:101DB000FF33EB40DF0740F187809EB3B8F1000F9F
:101DC00020D0002C00F08980012C00F0ED80022C46
:101DD00000F0FC80032C00F0E180042C00F0C980AE
:101DE000052C00F00181A31F012B40F2C280082CBA
:101DF00000F00981092C00F00E810A2C40F0B98016
:101E000007236CE0002C71D140F2FF33EB40D9077F
:101E100040F1A9800122834BAA4004EB440109014F
:101E20000B441A6067003A19120102F18042072D33
:101E300002F520423BD85368A9000F20884023EACE
:101E4000000306FA01F10B43536076BBB8F1000FB3
:101E50001CD0002C74D0012C00F0AC80022C00F0BF
:101E6000AF80032C00F09180042C76D0052C00F07C
:101E7000B580A31F012B70D9082C00F0C080092C5D
:101E800000F0C6800A2C68D107235BE0002C42D109
:101E900040F2FF33EB40DB0771D5624B3C44240139
:101EA0000121234401FA05F51D60BDE8F081A5F18B
:101EB000080391689B000F20984021EA000106FA70
:101EC00003F30B439360C0E7574840F21D11FEF740
:101ED000F7F972E74FF6C0736BE740F2FF33EB4060
:101EE000D80746D50122514BAA4096E7012C5ED077
:101EF000022C6ED0032C4ED0042C34D0052C70D084
:101F0000A31F012B2FD9082C7BD0092C7DD00A2CA4
:101F100029D107237AE7012C43D0022C53D0032C7C
:101F200036D0042C2BD0052C61D0A31F012B26D931
:101F3000082C62D0092C71D00A2C20D10723A9E7E4
:101F400040F2FF33EB40DA0707D5384BA6E74FF4F2
:101F50007F432EE740F6FF732BE7354840F21341ED
:101F6000FEF7AEF9F1E732484FF47971FEF7A8F9C0
:101F700050E72F4840F21341FEF7A2F9B2E72C4890
:101F80004FF47971FEF79CF987E74FF47F43D9E767
:101F90004FF47F437EE74FF47F4337E74FF47F43AF
:101FA0009DE74FF6C07375E74FF6C07397E74FF69E
:101FB000C0732BE74FF6C073C4E74FF6FF73F8E624
:101FC00040F6FF73BEE740F6FF7363E740F6FF732A
:101FD00085E740F6FF7319E70F23EAE64FF6FF7334
:101FE000B0E74FF6FF7311E74FF6FF7377E74FF651
:101FF000FF734FE74FF44043DBE60F234AE70F231D
:10200000A0E70F2302E70F2369E74FF44043FDE603
:102010004FF4404396E74FF4404360E74FF44043AA
:1020200038E700BF0CA00044703500000CA000464B
:10203000D4350000F8B50768064627F440770760F6
:102040000C4603F003071546FFF7D6F8326882EA1C
:10205000072303F4407353403360FFF7D1F854B9BA
:102060002C4B9E424CD02C4B9E424ED02B4840F2E3
:102070002911FEF725F933689A071ED5032F22D1BF
:1020800026484FF4AF71FEF71BF9254BD85D05FBD1
:1020900000F018B36FEAC50505442C44B4FBF0F416
:1020A000013C22D4B4F5007F24D233689B0702D5CB
:1020B000002C08BF01243461F8BD032FE0D0194B78
:1020C00053F8273002E0184B53F827309C42D7D9F9
:1020D000134BD85D05FB00F00028DBD1BDE8F840CC
:1020E0000E4840F26F11FEF7EBB80C4840F2751144
:1020F000FEF7E6F809484FF4BB71FEF7E1F8D4E7C4
:102100000A48FEF739FB0446B5E70948FEF734FBF9
:102110000446B0E700C0004000C40040383600006C
:10212000803600007436000068360000008204002B
:10213000009204001C4B984270B504460E4608D02D
:1021400003F58063984204D018484FF4D271FEF72B
:10215000B7F804F142457278154905F580156B0111
:1021600082F0010200202064E1635A60B268A2B1EB
:10217000337B71682046FFF75DFF0B4B36789C423E
:1021800008D003F580639C4204D0084840F28F11C8
:10219000FEF796F86D012E6070BD044840F20F11F5
:1021A000FEF78EF8E9E700BF00C0004038360000B7
:1021B000FFFF07000C4B984270B505460C461646CB
:1021C00008D00A48D921FEF77BF85CB1012C00D178
:1021D0006E6170BD0129F4D8130C1B04002BF0D1E3
:1021E000002CF3D12E6170BD0060044084360000E5
:1021F00038B50A4B984204460D4604D0084840F2D0
:102200000911FEF75DF8636B9B07FCD415B1012340
:10221000636038BD0223636038BD00BF00600440C6
:102220008436000038B5244B984205460C4604D04D
:1022300022484FF4B371FEF743F8217811B9AB6827
:10224000DB0729D46278A378002A0CBF00224FF460
:1022500080523BBBE3685BBBE3780BB142F4807216
:1022600023790BB142F0400263790BB142F0800256
:10227000E37994F806C0207A1B0143EA8C030343F8
:1022800013432B6039B1AB68DA0704D46B6B9B073F
:10229000FCD401236B6038BD6B6B9807FCD4022320
:1022A0006B60CFE7E36842F40072002BD4D001E00A
:1022B00042F400722B61CFE70060044084360000D6
:1022C00038B52D4B984204460D460FD003F5806378
:1022D00098420BD003F5E053984207D003F5806392
:1022E000984203D025489A21FDF7EAFF2A780AB9D7
:1022F0000223636000236362EB78A978E8791B040A
:1023000043EA0163297A0B43A97943EA8123697877
:10231000002914BF4021002143EA00230B43697ABE
:102320006879002914BF802100210B43A97A002974
:1023300014BF202100210B43E97A002914BF10218A
:1023400000210B43297B002914BF082100210B43E6
:102350002979002914BF4FF400510021002843EAD5
:10236000010314BF4FF0805100210B4323600AB1D9
:102370000123636038BD00BF00800140B836000013
:1023800070B4114E416133687BB1002500E02346F3
:102390005A698A420DD89C68891A1D464161002CF1
:1023A000F5D19860846070BC70473060836070BC09
:1023B00070472DB930608360511A70BC5961704705
:1023C000A8608360F8E700BFD410002010B500F0CB
:1023D0000FF90B4B1B6883B10A495C690A68A0EBD3
:1023E000020C644504D32244121A5A61086010BDDD
:1023F000001B002208605A6110BD024B186010BD1E
:10240000D4100020C810002038B50E4D0E4A2B689D
:1024100014685B6902201C4400F01AF9204600F0A1
:10242000EDF80A482B6800220270D988890706D483
:102430009B681BB159690A44012AF6D938BD0123AA
:10244000037038BDD4100020C8100020CC1000202C
:10245000104A1368B3B1834202D115E0984206D006
:102460001A469B68002BF9D108B102207047836897
:1024700093602BB141695A690A4400205A61704740
:10248000184670470028F0D183681360002BF1D103
:10249000F6E700BFD41000202DE9F04FC20783B04B
:1024A000044604D4A30711D403B0BDE8F08F4C4A0E
:1024B000138801339BB21380FFF788FF494B1B68D9
:1024C000002BEFD0FFF7A0FFA307EDD5DFF81C81AD
:1024D000DFF8109100F08CF8D8F800500646451B44
:1024E000FEF792FED9F800308346002B74D0002707
:1024F0003C465A69AA42114651D8C8F800602A469B
:102500001C4602E05969914209D8187994F804C030
:10251000844588BF1C469B68521A002BF2D158464E
:10252000FEF778FE0023D4F814B06361FEF76CFE6A
:1025300082462046FFF78CFF5046FEF76BFE23696C
:102540000BBBE36813B121682046984700F050F8B0
:10255000B344A5EB0B0B0BEB00050646FEF754FE50
:10256000D9F8003001378346002BC2D11E4A012F13
:10257000137025D0022000F079F8584603B0BDE86A
:10258000F04FFEF747BEFEF73FFE2169019020465F
:10259000FFF7F6FE019B1846FEF73CFED1E7124915
:1025A0000020012F087010D0521B5A61C8F800603B
:1025B000FFF72AFF584603B0BDE8F04FFEF72ABEEA
:1025C000E388022BD6D11770D4E7002CECD0E0883A
:1025D0000228E9D10F70E7E7034A1370CAE700BF8A
:1025E000CE100020D4100020D0100020C8100020F1
:1025F000014B9868704700BF00200440124B9A6856
:10260000596D9B695B0702D48B1A032B18D9831A67
:10261000022B98BFD01C0C4BB0F1FF3F38BF0138E4
:1026200058655A6A42F004025A62084B1A7832B16D
:1026300005490A6D002042F002020A6518707047D1
:102640008A42F2D1E3E700BF0020044014100020CA
:102650008207054A00F00103516A48BF43F00403B2
:102660000B435362704700BF00200440820700F014
:10267000010306D41A4608494B6A23EA02034B6257
:102680007047064A044801211170016D21F00301D1
:1026900043F004020165EEE700200440141000201E
:1026A00010B5FEF7B1FD0A4B9B695A07084A04466C
:1026B00003F0010003F0070348BF40F0020013627B
:1026C000FFF7EAFE2046BDE81040FEF7A3BD00BFBD
:1026D0000020044070B5054684B01648164CFEF73D
:1026E0004BF8164AA2FB00239B0903FB05F514488F
:1026F0000121FDF789FE012600230A22AD0A694661
:1027000020460293CDE900338DF80C308DF80B6034
:102710008DF808608DF80220FFF7D2FD65626660D3
:10272000616A0029FCD1022305486360FDF76CFE55
:1027300004B070BD4041050000800140D34D6210DF
:10274000000204000C490D4B0D4A10B400240C701B
:1027500001200221C3F88C010424C3F88C11082045
:102760004FF48041C3F88C41C3F88C015DF8044BF1
:10277000C2F8BC11704700BFD810002000A0004470
:1027800000A00046CB0710B43DD48C0723D5002A07
:1027900047D1414B4FF480544907C3F89C401DD4A6
:1027A000C10722D5002A4AD13B4B0121C3F88C1125
:1027B00081071DD444074ED5002A57D1364B042239
:1027C000C3F88C21020703D5334B0822C3F88C21B0
:1027D0005DF8044B70474B07E2D54ABB2E4B4FF4D4
:1027E0000051C407C3F89C10DED48407E2D562BB55
:1027F000294B0222C3F88C214307E3D5264B042240
:10280000C3F88C21DEE7002A39D1234B4FF4006452
:10281000C3F89C408B07BCD44C07DFD4C307C3D498
:10282000E3E71E4B4FF480544907C3F89C40B7D5EB
:102830001A4B4FF40051C3F89C10C107D5D5174B64
:1028400001218407C3F88C11B4D5144B0221C3F8BD
:102850008C1143070AD40107BAD5002AB4D00F4B14
:102860005DF8044B0822C3F88C2170470B4B0422FF
:10287000C3F88C210307F2D45DF8044B7047074B73
:102880004FF40064C3F89C408C07CAD44B07CFD4E4
:10289000C107AAD5D3E700BF00A0004400A00046AE
:1028A00030B5192089B0FFF715FF0C4902910122BC
:1028B00040F201138DF80C200948ADF804304FF4B4
:1028C00088520025112401A9CDE904540692ADF8DF
:1028D0001C3000F0A9F909B030BD00BFDDFB0500D8
:1028E00000C4004010B5064C84B00346CDE9014158
:1028F000009304485523012100F0F2F904B010BD03
:10290000DC10002000C40040024B002218681A604E
:10291000704700BFDC10002010B58CB000F07EF8CE
:1029200000F09CF80023ADF80030ADF80C308DF8C5
:10293000183002230993DFF854C0124A1248CDF828
:1029400010C0042369464FF0110C01240B9310238F
:10295000CDE901C305928DF820408DF828400794F9
:1029600000F0ECFA00F0AEFB00F0D6FBFFF7EAFE59
:10297000FFF796FF044821460CB0BDE8104000F078
:1029800081BB00BF6F12033B006004400000404069
:1029900008B500F0BBFB430700D408BDBDE8084004
:1029A00001487821FDF78CBCEC36000001488A21F3
:1029B000FDF786BCEC36000008B500F0A7FB8307E6
:1029C00006D4BDE80840012208210020FFF78ABF95
:1029D00002489C21FDF774FCF3E700BFEC360000D1
:1029E00008B500F093FB030711D4FFF78DFF3328E0
:1029F00006D00122BDE8084011460220FFF7C2BE02
:102A00000221BDE8084001220846FFF7BBBE02488C
:102A1000AF21FDF755FCE8E7EC36000008B50C489F
:102A20000121FDF7F1FC002211460120FEF796F985
:102A3000002211461046FEF791F906480A21FEF7DA
:102A40003DFABDE8084004480121FDF7DDBC00BFA8
:102A50004041050002001E0030253E0010B53148FF
:102A60000121FDF7D1FC4FF001110320FFF750F9D0
:102A70000023042208210320FFF774F94FF001110D
:102A80000320FFF745F90023042209210320FFF763
:102A900069F9002304220E210920FFF763F90023BE
:102AA000194604220820FFF75DF9002304220121C2
:102AB0000820FFF757F90023042202210820FFF71E
:102AC00051F90023042203210820FFF74BF90023CA
:102AD00004220B210320FFF745F9002304220C21D7
:102AE0000320FFF73FF9002304220D210320FFF705
:102AF00039F90123042209210520FFF733F94FF0AA
:102B000001110520FFF704F9012308220521022005
:102B1000FFF728F9BDE81040012308220421022014
:102B2000FFF720B900350A0010B503790446052BDC
:102B30002BD8DFE803F0191F03082A09437F002B75
:102B40003CD00323237110BD437F002B3BD1D4E93C
:102B5000022393422CD0A269216810680133043209
:102B6000A261C862E36010BD0368026901210171BE
:102B7000DA6210BD437F7BB1436902680121022004
:102B800020710B435160D36210BDBDE81040104866
:102B90004FF48371FDF794BB8369C268052101710D
:102BA0000168186801320433A361C862E26010BD95
:102BB00023680621022221715A6010BD0448F321C6
:102BC000FDF77EFBBDE70248F721FDF779FBBEE785
:102BD000083700000379032B12D1437F70B50446F8
:102BE000D3B1D4E90203A16922680133D5690E1D6E
:102BF0008342A6610D60E36007D00423536070BD7B
:102C000008484FF49771FDF75BBB0620207108213F
:102C100002235160536070BD024840F22111FDF75C
:102C20004FFBDEE70837000070B5284B044698429A
:102C30000CBF2748274884B00D460121FDF7E4FB6F
:102C4000636B13F0010F4FF0010330D1A363636B8B
:102C5000DA0735D50123E3636A782B7869688DF844
:102C600000208DF80C302A7AEB68029120466946E4
:102C70008DF801200193FFF75DFAD5E90462697EC2
:102C80002B7E1248324343EA4103A26484426364C8
:102C9000114B4FF4B0710CBF4FF400324FF480620F
:102CA000E16321640CBF1A605A6004B070BDE36335
:102CB000636BDB07D0D509486721FDF701FBCBE744
:102CC00006486121FDF7FCFAC4E700BF00C00040E0
:102CD000008204000092040000E100E008370000D8
:102CE0002DE9F0411E46314B98420446884617466E
:102CF0003BD02F4D287F0028FCD1A36813F0E00FB4
:102D00002ED1069B2B61079BAB61089B2B62002396
:102D10007600EB602B71012385F81D80AF602C607D
:102D20006E612B77022000F001FA20236360216C92
:102D3000236C226C22EA03022264626BE26340236A
:102D4000636003236360636BDB05FCD5626BE26346
:102D500020236360012321646360E662BDE8F081A3
:102D60001448B421FDF7ACFACBE7134D2B7F002BB1
:102D7000FCD10E4B9B6813F0E00F12D1069B2B6128
:102D8000079BAB61089B2B620023EB602B71074B09
:102D90002B607600012385F81D80AF606E612B7774
:102DA000C0E70448A321FDF78BFAE7E700C0004025
:102DB0000411002008370000E010002038B51B4B3C
:102DC0001C6C5A6B1D6C1440DC63196C1A6C22EA83
:102DD000010261061A6406D4A20609D4E3050CD4E4
:102DE000124B1D6438BD1248FFF79EFEA206F5D5B2
:102DF0000F48FFF7EFFEE305F2D50D4C2379062BC4
:102E000007D00C4840F24F11FDF75AFA074B1D64EA
:102E100038BD0423002202202371227700F0A6F996
:102E2000206A00F055F9014B1D6438BD00C4004014
:102E3000041100200837000038B51B4B1C6C5A6B7E
:102E40001D6C1440DC63196C1A6C22EA01026106E5
:102E50001A6406D4A20609D4E3050CD4124B1D64EF
:102E600038BD1248FFF760FEA206F5D50F48FFF700
:102E7000B1FEE305F2D50D4C2379062B07D00C48A3
:102E800040F24F11FDF71CFA074B1D6438BD0423B7
:102E9000002202202371227700F068F9206A00F0F6
:102EA00017F9014B1D6438BD00C00040E010002040
:102EB000083700001C4B10B51C6ADA6A1440620720
:102EC0009C6206D51B6A5B0724D4184B186800F077
:102ED000FFF8E00707D5144B1B6AD9071FD4144B22
:102EE000186800F0F5F8A20709D50F4B1B6A9B077D
:102EF00006D4104BBDE81040186800F0E9B810BDCA
:102F00000D483F21FDF7DCF90A4BBDE81040186879
:102F100000F0DEB808483521FDF7D2F9D5E70648BC
:102F20003A21FDF7CDF9DAE70060044030110020C6
:102F3000281100202C1100202437000030B5DFEDCF
:102F4000487A484B2DED028BD1ED048A91ED058A2C
:102F500068EEA78A28EE278A9842FCEEE88ABCEE43
:102F6000C88A85B00D46044675D0A368D9075BD4DE
:102F700001236360636B002BFCD1A368DA0765D57E
:102F800002236360636B002BFCD1E3608DF8083093
:102F90002B788DF801306B788DF80030324B01932F
:102FA000694601232046ADF80230FFF73BF9616B1B
:102FB0000029FCD1204618EE902AFFF7FBF82046A6
:102FC00018EE102A0121FFF7F5F8D5E90123687BF7
:102FD0001A432B7B0121A16143EA4003E161626452
:102FE0004FF0FF322364A262E26A2B7E95F828102C
:102FF0001E48134395F8202043EA810343EA420325
:103000001B4AE3624FF000611160A3681949EC6943
:10301000194A0C60DB076C6AE96A046011600ED41F
:1030200005B0BDEC028B30BD042000F09FF80021FC
:103030002046FFF7DDF8636B002BFCD198E70420F6
:1030400000F074F805B0BDEC028B30BD0B48762162
:10305000FDF736F994E70A480121FDF7D5F984E731
:1030600000007A4400600440000003032C1100209B
:1030700000E100E02811002030110020243700007A
:103080008006160038B58368044611B1DA070ED5FC
:1030900038BDDB07FCD50D46042000F067F8294653
:1030A0002046FFF7A5F8636B002BFCD138BD042048
:1030B00000F03CF801212046FFF79AF8636B002BE3
:1030C000FCD138BD014B00221A607047341100203A
:1030D00010B50446FEF790F8034A13682343BDE891
:1030E00010401360FEF78CB83411002010B5044670
:1030F000FEF782F8044A136823EA0403BDE810408F
:103100001360FEF77DB800BF34110020014B186832
:10311000704700BF34110020034B0022C3E9002296
:10312000C3E902221A6170473811002038B50446FD
:10313000FEF762F80B4A52F824300133042B42F8B0
:103140002430054604DC2846BDE83840FEF758B870
:1031500005485721FDF7B4F82846BDE83840FEF78A
:103160004FB800BF381100204437000038B504467E
:10317000FEF742F80B4A52F82430013B002B42F88C
:103180002430054604DB2846BDE83840FEF738B851
:1031900005487121FDF794F82846BDE83840FEF750
:1031A0002FB800BF381100204437000010B5FEF7DB
:1031B00023F8114B1A68002A044604DD2046BDE8B6
:1031C0001040FEF71DB85A68002AF7DC9A68002AFA
:1031D00006DD0A4A136923F00403136130BFEDE7EB
:1031E000DB68002B4FF0010002DDFEF795F9E5E703
:1031F000FEF7E2F9E2E700BF3811002000ED00E041
:10320000F0B5584C584EDFF870E194E80F008BB0E1
:1032100001AD103485E80F000FCC0DF1140CACE8B3
:103220000F0001272368ACF800307764DEF8FC302B
:103230001B0E40F092804D4A4AF6E851C2F89011B8
:10324000D2F8981141F00401C2F89811C2F89031F7
:10325000464AD2F8643143F40053C2F86431444A18
:103260004149136A434823F4441343F48813136217
:103270000B68A2F5805243F480730B60D2F8A4313E
:1032800043F4F843C2F8A431FDF75CFB0024284660
:103290008DF8004002258DF80140FEF73DFC6846A0
:1032A0008DF80150FEF778FA05A8FDF767FC0122BA
:1032B00011460320FDF752FD05211120FDF7FEFD0B
:1032C000224621462846FDF749FDFFF725FBFDF77D
:1032D00093FF0446FFF71AFFF0B12046FDF790FF79
:1032E000FFF714FF400720D4FFF710FFC10725D4D4
:1032F000FFF70CFF82072AD4FFF708FF0307E6D584
:103300000820FFF7F3FEFFF76BFBFDF775FF0446A0
:10331000FFF7FCFE0028E0D1FFF748FF2046FDF74D
:103320006FFFFFF7F3FE4007DED50420FFF7DEFE58
:10333000FFF72EFBFFF7EAFEC107D9D50120FFF703
:10334000D5FEFFF733FBFFF7E1FE8207D4D502205D
:10335000FFF7CCFEFFF730FBCEE7012B7FF47FAF0A
:1033600076E700BF6C37000000000E4000300E40D2
:1033700000400E4080BA8C010081E00F08B5074B79
:10338000044613B10021AFF30080054B1868836A2F
:1033900003B19847204600F031F800BF000000005C
:1033A0009037000070B50D4D0D4C641BA410002625
:1033B000A64209D10B4D0C4C00F022F8641BA4105E
:1033C0000026A64205D170BD55F8043B984701364A
:1033D000EEE755F8043B98470136F2E790100020DD
:1033E000901000209010002094100020024403460A
:1033F000934200D1704703F8011BF9E7FEE700BFD5
:10340000F8B500BFF8BC08BC9E467047F8B500BFD1
:10341000F8BC08BC9E4670475FF800F079100020A9
:10342000433A2F53696C69636F6E4C6162732F531B
:10343000696D706C696369747953747564696F2F11
:1034400076352F646576656C6F7065722F73646B6B
:10345000732F6765636B6F5F73646B5F73756974FC
:10346000652F76332E322F706C6174666F726D2FFC
:10347000656D6C69622F7372632F656D5F636D7527
:103480002E6300000403020B050C00000302010A76
:103490000302060A09000000070000000300000004
:1034A0000100000005000000080000000600000008
:1034B0000200000000000000040000000001000005
:1034C00040000000040000000100000010000000A7
:1034D0000002000080000000080000000200000060
:1034E0002000000040787D0100000000005A6202C8
:1034F00000010000C0CF6A0002000000809FD500DC
:1035000002010000002D310102020000433A2F5356
:10351000696C69636F6E4C6162732F53696D706C77
:10352000696369747953747564696F2F76352F6494
:103530006576656C6F7065722F73646B732F67654A
:10354000636B6F5F73646B5F73756974652F76333C
:103550002E322F706C6174666F726D2F656D6C69A1
:10356000622F7372632F656D5F656D752E6300004A
:10357000433A2F53696C69636F6E4C6162732F53CA
:10358000696D706C696369747953747564696F2FC0
:1035900076352F646576656C6F7065722F73646B1A
:1035A000732F6765636B6F5F73646B5F73756974AB
:1035B000652F76332E322F706C6174666F726D2FAB
:1035C000656D6C69622F7372632F656D5F677069DB
:1035D0006F2E6300633A5C73696C69636F6E6C6134
:1035E00062735C73696D706C696369747973747507
:1035F00064696F5C76355C646576656C6F70657266
:103600005C73646B735C6765636B6F5F73646B5F44
:1036100073756974655C76332E325C706C617466A8
:103620006F726D5C656D6C69625C696E635C656D23
:103630005F6770696F2E68002E2E2F6765636B6F52
:103640005F73646B5F332E322E312F706C61746642
:103650006F726D2F656D6C69622F7372632F656D6C
:103660005F6932632E63000080841E00404B4C0073
:10367000809FD50080841E0040548900002D3101B8
:10368000080911082E2E2F6765636B6F5F73646BDB
:103690005F332E322E312F706C6174666F726D2F16
:1036A000656D6C69622F7372632F656D5F6C6574F5
:1036B000696D65722E6300002E2E2F6765636B6F38
:1036C0005F73646B5F332E322E312F706C617466C2
:1036D0006F726D2F656D6C69622F7372632F656DEC
:1036E0005F74696D65722E63000000002E2E2F73CB
:1036F00072632F536F757263652046696C65732F13
:103700006170702E630000002E2E2F7372632F5392
:103710006F757263652046696C65732F6932632E1D
:10372000630000002E2E2F7372632F536F75726328
:10373000652046696C65732F6C6574696D65722EC2
:10374000630000002E2E2F7372632F536F75726308
:10375000652046696C65732F736C6565705F726F69
:103760007574696E65732E63000000000001080720
:103770000F000A00C8002000A000010000000000A7
:10378000A00068010A200706020A040700000000E2
:0437900018100020ED
:08379400B8C9FF7F010000002D
:10379C00C0EA210100F04902C0EA210100800000CA
:1037AC00C0EA210101000000000000000000000040
:1037BC0000000000000000000000000000000000FD
:1037CC0000000000000000000000000000000000ED
:1037DC0000000000000000000000000000000000DD
:1037EC0000000000000000000000000000000000CD
:1037FC0000000000000000000000000000000000BD
:10380C000000000000000000044AD2F84C3143F0E4
:10381C00004330BFC2F84C31704700BF00300E403F
:08382C00310100000D01000054
:04000003000001CD2B
:00000001FF
