S01E000057535F323337305F5453325F4C45554152545F4C6162362E733337F9
S113000000100020CD010000C9010000C90100005A
S1130010C9010000C9010000C9010000C9010000B4
S1130020C9010000C9010000C9010000C9010000A4
S1130030C9010000C9010000C9010000C901000094
S1130040C9010000C9010000C9010000C901000084
S1130050C9010000C9010000C9010000C901000074
S1130060C9010000C9010000C9010000C901000064
S1130070C9010000C9010000C9010000C901000054
S1130080C9010000BD310000C9010000C901000020
S1130090C9010000C9010000B1350000C901000018
S11300A0C9010000C9010000C9010000BD320000FF
S11300B0C9010000C9010000D9270000C9010000DE
S11300C0C9010000C9010000C9010000C901000004
S11300D0C9010000C9010000C9010000C9010000F4
S11300E0C9010000C90100003D320000C90100003F
S11300F0C9010000C9010000C9010000C9010000D4
S1130100C9010000C9010000C901000010B5054C77
S1130110237833B9044B13B10448AFF300800123AF
S1130120237010BD10120020000000004C7A000063
S113013008B5034B1BB103490348AFF3008008BD66
S113014000000000141200204C7A0000A3F5803A4D
S1130150704700BF174B002B08BF134B9D46FFF79A
S1130160F5FF00218B460F461348144A121A03F078
S113017023FE0E4B002B00D098470D4B002B00D0D4
S113018098470020002104000D000D48002802D0EB
S11301900C48AFF3008003F0DDFD2000290003F0DC
S11301A027FB03F0C3FD00BF0000080000000000AF
S11301B00000000000100020101200202013002076
S11301C00000000000000000FEE700BF08B500F0DA
S11301D05BF8064B0648834206D2064A52F8041BD3
S11301E043F8041B9842F9D8FFF7B4FF001000202D
S11301F010120020547A00000048704700F04902B1
S1130200114BD3F8943003F00703023B032B18D8A7
S1130210DFE803F00D0214104FF400400A4BD3F84A
S11302200031C3F304230133B0FBF3F07047074BF1
S11302301868F3E7064B18684008EFE7054B1868A1
S1130240ECE7034B1868E9E700400E400410002077
S1130250081000200C10002008B5FFF7D1FF054B53
S1130260054AD3F80831C3F308230133B0FBF3F094
S1130270106008BD00400E4000100020014B1868BB
S1130280704700BF04100020044B054A9A60D3F85D
S1130290882042F47002C3F88820704700ED00E023
S11302A0000000004FF40040704700BF4FF47A7024
S11302B0704700BF014B1868704700BF0C10002046
S11302C006490A6810B4064C1044A0428CBF4FF093
S11302D0FF3208605DF8044B104670471010002090
S11302E000000420FEE700BF264B98423DD00DD805
S11302F0A3F5B703A3F5586398423AD010D9224B1B
S1130300984211D1214BD3F84C017047204B9842AD
S113031033D0204B984213D11C4BD3F86001704763
S11303201D4B98421DD001D9002070471B4B9842A9
S113033002D01B4B98420DD1144BD3F830017047B7
S1130340A3F53703A3F5D8539842EDD10F4BD3F857
S113035058017047134B9842E6D10C4BD3F8300147
S113036070470A4BD3F83C017047084BD3F850014F
S11303707047064BD3F848017047044BD3F85C012F
S1130380704700BFC0EA21010024F4000081E00F9F
S11303900048E80180D54302C0CF6A0080841E0073
S11303A000093D0040420F004FF0000C144B154A69
S11303B05B68C9B2614510B5634608D00133052BAB
S11303C002F1080213D012F808CC6145F6D152F8B4
S11303D00C4C8442F2D30C4A02EBC3035B791A0639
S11303E007494B6823F0407313434B6010BD074823
S11303F041F29E31FFF776FF4FF04072F0E700BF05
S113040000000E40C8720000BC720000F8710000C9
S113041038B5054C41F67133256C2364FFF7C4FFEE
S11304200DB10023236438BD00000E40C0F3032344
S1130430013B10B4092B06D8DFE803F00C150505C1
S1130440191D2D0533391C485DF8044B41F63B1149
S1130450FFF748BF194CC0F30430204480005DF816
S1130460044B01607047164CC0F30430F5E7154C9B
S1130470C0F30430F1E7144CC0F304304FF0010C26
S1130480124AD2F84431DB07E7D4D2F8403113EAF8
S11304900C0FFAD1E1E70E4CC0F304304FF0100C0E
S11304A0EEE70C4CC0F304304FF4803CE8E70A4C10
S11304B0C0F30430D1E700BFF87100000000F2106F
S11304C00006F2108005F2100007F21000400E4002
S11304D04007F2108007F210800AF21008B5C0F34A
S11304E00313013B092B0FD8DFE803F015272D1B5D
S11304F00E0E213744053D4B98424BD13C4BD3F86B
S1130500300100F0030008BD3A4841F63731FFF7E7
S1130510E9FE002008BD364BD3F80001C0F30420E7
S113052008BD334BD3F80C01C0F3082008BD304B91
S1130530D3F80801C0F3082008BD2D4BD3F81401EB
S1130540C0F3042008BD2A4BD3F800310120C3F3C3
S1130550006303449840013808BD274B984220D0DB
S1130560264B984230D0234841F6DF21FFF7BAFEEC
S1130570002008BD224B98422FD003F5B01303F599
S11305808053984216D01B4841F60331FFF7AAFE68
S1130590002008BD174841F61231FFF7A3FE0020E2
S11305A008BD134BD3F82031012003F00F0398400A
S11305B0013808BD0E4BD3F82831C3F301230433AB
S11305C001209840013808BD094BD3F8203101209F
S11305D0C3F301139840013808BD054BD3F8283103
S11305E00120C3F301139840013808BDA009140089
S11305F000400E40F87100008006160080162E00A0
S113060090171A0000F00F00013808B5072813D816
S1130610DFE800F019243A122F451204284BD3F8CE
S11306205C3103F03003202B47D0302B43D0102B08
S113063014BF0120072008BD224841F68B61FFF753
S113064051FE002008BD1E4BD3F8943003F007037D
S1130650023B052B2DD81C4AD05C08BD184BD3F89F
S1130660803003F00703013B032B20D8174AD05CEA
S113067008BD134BD3F8883003F00703013B032B69
S113068015D8134AD05C08BD0D4BD3F8843003F061
S11306900703013B032B0AD80E4AD05C08BD084B64
S11306A01B6F13F0010F0CBF0720092008BD0120A8
S11306B008BD052008BD082008BD042008BD00BFF2
S11306C000400E40F87100005C720000647200008B
S11306D064720000687200002B4B984210B52FD052
S11306E02A4B9842044623D0294B984230D041F2F9
S11306F09E412848FFF7F6FD2046FFF783FF41F2AD
S1130700CD4104462348FFF7EDFD042C34D8DFE83F
S113071004F00D2B2F032700FFF772FD1E4BD3F8B7
S11307200041C4F30064013420FA04F4204610BDEF
S1130730FFF768FF184BD3F8884004F00704E4E798
S1130740FFF760FF144BD3F8844004F00704DCE7A0
S1130750FFF758FF104BD3F8804004F00704D4E7A8
S1130760BDE81040FFF7A2BDBDE81040FFF79ABDF9
S1130770BDE81040FFF79EBD064841F21F51FFF748
S1130780B1FD0024D2E700BF0300200005002400CF
S113079002001E00F871000000400E4000F47813BF
S11307A0B3F5B01F10B500F09D802BD8B3F5402FE2
S11307B000F0A2801AD9B3F5801F14D0B3F5A01F9E
S11307C009D16348FFF788FF624BD3F8303103F057
S11307D00303D84010BDB3F5602F40F098805D4B03
S11307E01B6FDB070AD45C4B186810BDB3F5802F70
S11307F06DD01ED9B3F5202F40F08980BDE810409C
S1130800FFF7FEBCB3F5381F48D030D9B3F5481F05
S113081000F08480B3F5781F1BD10446FFF7F0FC89
S1130820034620461C46FFF759FE0130B4FBF0F0A6
S113083010BD002BE2D0B3F5003F68D1FFF7E0FC18
S1130840444BD3F80831C3F308230133B0FBF3F06E
S113085010BDB3F5401F5AD14048FFF73DFF3D4B53
S1130860D3F82831C3F301230433D84010BDB3F5C2
S1130870001F1DD007D9B3F5101F48D1BDE81040A3
S11308803348FFF729BFB3F5D01F16D0B3F5F01FD7
S11308903DD1BDE810403248FFF71EBF3048FFF796
S11308A01BFF2C4BD3F82031C3F30113D84010BDE8
S11308B0BDE810402948FFF70FBF2848FFF70CFF99
S11308C0244BD3F82831C3F30113D84010BDFFF7EC
S11308D097FC204BD3F80C31C3F308230133B0FB4E
S11308E0F3F010BD1E48FFF7F7FE1A4BD3F8203182
S11308F003F00F03D84010BDFFF782FC154BD3F86B
S11309001431C3F304230133B0FBF3F010BD1548D5
S113091041F66B21FFF7E6FC002010BD0D4CD4F826
S11309205C3103F03003202B04D0302B06D0102B85
S1130930F2D158E7BDE81040FFF7A0BCFFF760FC18
S1130940D4F80031C3F3042303FB000010BD00BF3F
S11309500500240000400E40141000200300200075
S113096002001E00F87100002DE9F8430546FFF768
S1130970BBFC431E0333064659D8DFF820827A4B6A
S1130980D8F80070C8F80050D3F8943003F0070387
S1130990023B052B46D9754C41F67133D4F840908F
S11309A02364FFF729FC0021FFF7FEFCB9F1000FD7
S11309B040F0BF806E4BD3F86048002CFBD1721C12
S11309C000F0BD806B4B9D4200F0A5806A4B9D42B8
S11309D000F09E80694B9D422FD0634BD3F8943036
S11309E003F00703023B052B33D9654B9D4240F2CC
S11309F0A380644A0123954294BF4FF080724FF064
S1130A00007261490B645849D1F8003123F08073B6
S1130A101343BD42C1F8003121D90121284600F019
S1130A2097FE1CE0594AD35C052BC3D1B3E7584861
S1130A3042F25531FFF756FC9FE726F0C06646F0B8
S1130A408066494BD3F8943003F00703023B052B2F
S1130A5072D84E4AD35C052BC7D0BD42DDD8424B79
S1130A601E61D3F8943003F00703023B052B2BD906
S1130A70FFF7F2FB8542064667D3D8F80030B3424D
S1130A8069D3AB4204D0424842F29431FFF72AFCC6
S1130A90404BDB6B5B0604D43F4AD2F8C830002BD2
S1130AA0FBD13C4B3046314E5968D6F8408041F674
S1130AB07133C1F301413364FFF776FCB8F1000FE1
S1130AC006D00023336403E0304AD35C052BCFD037
S1130AD0FFF796FB2A4B984218D92A4B01249842D7
S1130AE094BF4FF080704FF00070274B1E4A1C6477
S1130AF0D2F8003123F080731843BD42C2F80001DC
S1130B000ED9194BD3F89430BDE8F8830020ECE7F4
S1130B1026F0C06695E726F0C06646F0007690E7BA
S1130B200121002000F014FE0F4BD3F89430BDE8EF
S1130B30F883002323643DE70022134661E7144849
S1130B4042F26631FFF7CEFB3CE7114842F29231A4
S1130B50FFF7C8FB91E70E4842F29331FFF7C2FB5F
S1130B60D8F800308DE700BF00400E4000000E4072
S1130B700020C84380841E0000093D0040420F004D
S1130B800048E8010090D0030000C8435C720000F4
S1130B90F871000000300E400000C6430810002029
S1130BA0344BD3F8943003F00703023B052B10B504
S1130BB0044608D8304AD35C042B04D12F4842F2AF
S1130BC07341FFF78FFB2B4A08231366D2F890304A
S1130BD05907FBD4274AD2F890301B07FBD463781B
S1130BE013B9A378002B38D042F2AF412348FFF762
S1130BF079FB217C012936D01E4A2148536A23F00F
S1130C000103022908BF43F0010321785362C0F8AD
S1130C10A014637AA18843EAC123D362136BA17A37
S1130C20207A03F07F630B43E18843EAC123C11CAC
S1130C300F2943EAC01328BF0F2143EA017313634A
S1130C40A37B94F80DC0E07B217B1B0143EA0C33AA
S1130C50034343EA0143536310BDE378002BC3D13C
S1130C60217C0129C8D142F2B6410448FFF73AFB7E
S1130C70217CC1E700400E405C720000F871000066
S1130C800000C843013810B50C46032868D8DFE8D3
S1130C9000F0223512027F295CD8354A04F07F0423
S1130CA0D2F86438002BFBD1324A936923F07F03D6
S1130CB01C43946110BD7F2946D82D4A04F07F045B
S1130CC0D2F86038002BFBD12A4A136923F07F0342
S1130CD01C43146110BDB1F5007F2FD2244AC4F324
S1130CE00804D2F86838002BFBD1224A136A23F493
S1130CF0FF7323F001032343136210BD1D4BD3F88C
S1130D0090305B0714D41B481B4B416A21F030011F
S1130D1041F010014162016BC4F3C31203320B4072
S1130D200F2A28BF0F22234343EA0273036310BD33
S1130D30124842F2C161FFF7D5FAE4E70F4842F2E4
S1130D408961FFF7CFFAC9E70C4842F29661FFF7D1
S1130D50C9FAB2E7094842F2B161FFF7C3FA9CE766
S1130D60BDE81040054842F2DB61FFF7BBBA00BFA3
S1130D700020C84300400E4000F8FF0FF871000047
S1130D80042870D82DE9F0414D4B0D464D4953F8D8
S1130D90207051F8206082B00446002D4BD04A4B9D
S1130DA0022853F8208063D000254848484B384433
S1130DB08000C3F860800368002BFCD0002A37D081
S1130DC0424B33449E003368002BFCD0022C2FD1BD
S1130DD075B33F4A536ADB0766D54FF4806120231D
S1130DE0C2F8A8105366536AC3F30113002B0BBF58
S1130DF04FF4800000204FF440014FF40001D2F87A
S1130E00903031EA0303FAD1002855D1304CD4F89C
S1130E109C50012200210220FFF7B2FFC5F30A0112
S1130E200220FFF72FFF042323663368002BFCD036
S1130E3002B0BDE8F081274B53F82030244801214B
S1130E400366B940D0F890300B42FBD1002AEFD0B2
S1130E5001231F4A03FA06F6D2F890303342FBD13D
S1130E6002B0BDE8F0811C4842F2D851FFF73ABA0B
S1130E70174B5B6A13F0300F96D1184BDB6B580598
S1130E800AD5134B596AC9078FD5596A21F0300125
S1130E9041F01001596288E70F48019242F2E7518C
S1130EA0FFF720FA019AECE7536AD2F8903003F482
S1130EB04003B3F5400FF8D1D2F8A030A6E700BF45
S1130EC0807200006C720000947200008004F210C2
S1130ED000400E40A8720000F871000000300E407F
S1130EE01128F8B50C460AD000F00F000138072885
S1130EF01CD8DFE800F00922721B375C1B69042947
S1130F0000F0978005296AD00025023C0A2C00F2E3
S1130F10A580DFE814F03E01D30025013201A300CF
S1130F20A300A300A300CC0043014101BDE8F840A5
S1130F30A64842F28A11FFF7D5B9062900F062816A
S1130F40A34D013C092C06D8DFE804F07A6353056D
S1130F5005140505057CBDE8F8409C4841F6CB71B5
S1130F60FFF7C0B906299B4DEBD198484FF4FD51CA
S1130F70FFF7B8F9FFF744F9974B98426BD9974BB1
S1130F800121984294BF4FF080704FF00070944B51
S1130F90944A1964D2F80031934923F080731843BA
S1130FA00123C2F80001C1F8083603232FE0072902
S1130FB000F0FA80092900F0FB80BDE8F84083487E
S1130FC042F25501FFF78EB94C1E072C3CD8DFE8DE
S1130FD004F06A3B3B633B3B4C6C844DB1E7844A71
S1130FE0844B15689D428FD90021284600F0B0FB40
S1130FF08BE77C4B7C4A40211966D2F81832002BCF
S1131000FBD0794AD2F81C32002BFBD001232B6091
S1131010F8BD744B744A4FF480711966D2F82032CB
S1131020002BFBD0704AD2F82432002BFBD00223D1
S1131030EDE7FFF723F9054600283FF465AFD3E752
S11310400023E4E70423E2E7BDE8F8405F4842F206
S1131050B301FFF747B90020014698E7BDE8F8401F
S11310605A4841F65171FFF73DB95E4B5E4A102173
S11310701966D2F81032002BFBD05B4AD2F8143236
S1131080002BFBD01021574AD2F85C3123F03003F7
S11310900B43C2F85C31F8BD012211460220FFF770
S11310A06FFE2021EFE70021EDE73021EBE7BDE8FB
S11310B0F840464841F64C71FFF714B90120032665
S11310C001221146FFF75CFE4B4C41F67133276C4D
S11310D02364FFF791F80021FFF766F90FB10023AD
S11310E02364002D68D13F4B5E67FFF7B5F80446D3
S11310F0FFF786F8384A904253D9384A0121904282
S113110094BF4FF080734FF00073354A1164354932
S1131110D1F8002122F080721343384AC1F800311B
S1131120D36B5B0604D4364AD2F8C830002BFBD10B
S1131130324B314E5968376C41F67133C1F301417A
S113114020463364FFF730F90FB100233364002DD8
S11311507FF45EAF28460121BDE8F84000F0F8BAFC
S11311601F4B204A01211964D2F80031022043F0B8
S11311708073C2F800310646A2E7194B194A0126CA
S11311801E64D2F8003143F080730320C2F80031AA
S113119096E70020042693E7072695E70320052613
S11311A08EE700231946B0E70E4B00221A67F8BDFC
S11311B00C4B01221A67F8BD104BDB6B5A0692D414
S11311C00F4AD2F8C830002BFBD18CE7F87100002D
S11311D080400E4088400E400048E8010090D00353
S11311E00000C84300400E400010C84384400E4035
S11311F008100020002D310100000E4000300E4088
S11312000000C6430348044D41F69071FFF76AF8A5
S1131210ABE600BFF871000080400E40EFF3108091
S113122072B6704700B962B6704700BFEFF3118021
S1131230602383F31188704780F31188704700BFDF
S113124038B542EA0323B3F5007F05460C463BD08C
S11312501DD8B3F5807F40D00CD940F201129342DF
S113126044D1304BD3F824321A0EC3F307432B6016
S1131270226038BD002B43D0012B37D1294BD3F842
S11312802432C3F30722DBB22B60226038BDB3F5EE
S1131290407F3ED040F20132934208D1214BD3F833
S11312A028321A0EC3F307432B60226038BD40F284
S11312B0012293421AD11B4BD3F82832C3F30722DD
S11312C0DBB22B60226038BD164BD3F82032C3F357
S11312D00722DBB22B60226038BD124BD3F81C32DC
S11312E01A0EC3F307432B60226038BD0E4840F644
S11312F08E11FEF7F7FF002213462B60226038BDE3
S1131300084BD3F81C32C3F30722DBB22B602260F4
S113131038BD044BD3F820321A0EC3F307432B60B5
S1131320226038BD0081E00FE47200001D4B0228EA
S113133010B5D3F830320C4622D003281ED0012831
S113134014BFDBB2C3F307231B0354B913F4702F88
S113135019D11549CA6E22F4704213430120CB6699
S113136010BD13F4702F15D10F49D1F8EC2022F4DD
S1131370704213430120C1F8EC3010BD1B0EE3E7AB
S1131380C3F30743E0E7094840F61D11FEF7AAFF3F
S1131390204610BD054840F62911FEF7A3FF0020A2
S11313A010BD00BF0081E00F00300E40E472000069
S11313B00E4BDA6B520618D4DB6B5B0604D40C4A72
S11313C0D2F8C830002BFBD1084B19685A68C1F316
S11313D00121C2F3014291421A6803D942F010027A
S11313E01A60704722F010021A60704700300E40F5
S11313F00000C6432E4BDA6B520670B506D42D4955
S113140009781022C1F102018A401A612A4B2B4D3E
S1131410D3F8804145F60E02C3F88021296840F2D2
S113142055120A4022491A66CB6B5E0604F0010489
S113143004D4234AD2F8C830002BFBD11C4B1B68C0
S1131440D80617D51C4AD2F84031D901FBD41D4B1C
S11314501D4E1B6813613178052916D01120FFF742
S11314603FFD2B68DB070CD51CB1134B0022C3F8DE
S1131470802170BD144E31780529EFD12B68DB072C
S1131480F2D40D4B02221A66EEE7094B0F4ADB6BCE
S113149010685A0604D40A4AD2F8C830002BFBD18B
S11314A0034B5968C1F30141FEF7B2FFE3E700BF04
S11314B000300E403D12002000400E402C1200204F
S11314C00000C64338120020361200200810002005
S11314D00F4A08B50F4BD2F890201A601120FFF77D
S11314E091F80D4A0D4B1070DB6B5B0604D40C4A6B
S11314F0D2F8C830002BFBD1084B0A485B6804497A
S1131500094AC3F3014303700B69136008BD00BFAC
S113151000400E402C1200203612002000300E40F5
S11315200000C6433D12002038120020704700BF5F
S1131530704700BF704700BF704700BF10B5044636
S113154000283AD1FFF734FF1F4A136943F004031C
S11315501361FFF7EBFFFFF7EBFF1C4B1B68DA0689
S113156024D430BFFFF7E8FFFFF7E4FF4CB1FFF7E7
S113157041FF164AD2F84C3123F00043C2F84C31F3
S113158010BD124B1B68DB0605D5114B1B69C3F359
S11315900443082B14D00D4AD2F84C3123F00043F5
S11315A0BDE81040C2F84C31FEF756BEFFF736FED8
S11315B005F01EFEFFF736FED4E7FFF789FFC1E70B
S11315C0044B054A1A60E6E700ED00E000300E40E7
S11315D000400E4008100020C0EA210110B5044666
S11315E0002845D1FFF7E4FE254BD3F880214FF4C2
S11315F0207145F60E00C3F880011966D10744BF77
S11316000022C3F880211F4A136943F004031361C5
S1131610FFF78CFF1C4B1B68DA0622D430BFFFF7A0
S113162089FF4CB1FFF7E6FE174AD2F84C3123F09C
S11316300043C2F84C3110BD134B1B68DB0605D5C3
S11316400F4B1B69C3F30443082B14D00E4AD2F882
S11316504C3123F00043BDE81040C2F84C31FEF792
S1131660FBBDFFF7DBFD05F0C3FDFFF7DBFDD6E7B0
S1131670FFF72EFFB6E7054B054A1A60E6E700BF01
S113168000400E4000ED00E000300E400810002045
S1131690C0EA2101294BDA6B520600D57047DB6B97
S11316A02DE9F0410D465906044604D4244AD2F8E3
S11316B0C830002BFBD1214F7B68C3F301439C420C
S11316C00ED0204BD3F80081FEF79AFD022C06467B
S11316D019D0C4F10202102393403B6145B90CB107
S11316E0BDE8F08121463046BDE8F041FEF790BEEA
S11316F0FB6B5A06F3D4124AD2F8C830002BFBD144
S1131700002CEDD1EEE7104BC8F3042808FB0008C9
S113171098450CD802213046FEF77AFE074B10227A
S11317201A61002DDCD0DB6B5B06E4D5D8E70748F3
S113173040F23161FEF7D6FDECE700BF00300E4009
S11317400000C64300400E40002D3101E472000049
S1131750164BDB6B5B0609D448B1154B1B7813B1F0
S1131760144B98421CD90020FFF794BF704710B562
S1131770114B82B0D3F800410191FEF741FD0C4BAF
S113178001991B78C4F3042404FB000013B1094B32
S1131790984208D9002002B0BDE81040FFF77ABF94
S11317A00220FFF777BF0220F5E700BF00300E40AC
S11317B03C120020002D310100400E4009494278BE
S11317C00B6823F4407343EA0223022A0B6000D01F
S11317D07047054B5B6A9B00FAD5044840F26D6183
S11317E0FEF780BD00300E4000400E40E472000061
S11317F0254A4AF6E85310B4546B5363936FDB07DE
S1131800FCD4136C13F0030324D0204A0121834237
S1131810C2F8B41A1BD0032B02D1431E012B21D9C9
S1131820194A936FDB07FCD4136C174923F00303A5
S1131830034313648B6F13F00103FBD10038134A85
S113184018BF0120012CC2F8B40A00D14B635DF823
S1131850044B70470028E0D10C4B5DF8044BC3F8EF
S1131860B40A7047084A4FF40023D362936FD90730
S1131870FCD4136C044923F0030343F00103136401
S11318804B6A1A03FCD5CBE700300E400000C64378
S11318902DE9F04FA0F5E16689B00024B6F5966F06
S11318A0CDE90244CDE90444CDE9064472D8B0F54B
S11318B0E16F9146054688468CBF012200225DD027
S11318C05A4BD3F81832190EC3F307434FF4966BEF
S11318D007910493DFF85CA10192DAF84C40C4F359
S11318E0017405A902A82346FFF7AAFCDAF8EC70F4
S11318F0019AC7F301273B4606A903A8FFF7A0FCFA
S1131900049A07998B1A06FB03F3B3FBFBF3D21873
S11319102CBF01230023914226D32BBB03980699A5
S11319200B1A06FB03F3B3FBFBF3C3182CBF012014
S11319300020994218D3B8B902980599A1EB000C7C
S113194006FB0CF6B6FBFBFB10EB0B0B2CBF0120CC
S11319500020594508D338B9B9F1000F23D1B8F1A3
S1131960000F30D1012405E0314840F63C31FEF748
S1131970B9FC0024204609B0BDE8F08F2B4BD3F806
S113198018324FF41676C3F30721DBB207910493A0
S1131990B3469FE7264840F6EE21FEF7A3FC204617
S11319A009B0BDE8F08FDAF85C1021F4FE4121F0B3
S11319B0020141EA0222B5F5E16F1E4918BF42F067
S11319C00202CA65CBE7204600210193FFF7AEFC73
S11319D0019B0446F0B1012138460193FFF7A6FCB0
S11319E0019B0446E0B1134A9B4538BF9B46536EA6
S11319F023F4FF73BBF1E70F23F0010328BF4FF07B
S1131A00E70BB5F5E16F18BF43F0010343EA4B035D
S1131A105366AFE7064840F64B31FEF763FCA9E78F
S1131A20034840F65331FEF75DFCA3E70081E00F65
S1131A30E472000000300E403C4B196FDA6C10B5B4
S1131A40D4073ED511F0060F57D0132862D84FF4AF
S1131A504C5236483649C36C364C23F47F43134307
S1131A60C364C26C0B88C16CC2F3032228330132F5
S1131A7003EB530302EB820CB3FBFCF3013B072B98
S1131A8028BF072321F0EE6141EA036343F4801386
S1131A90C364B4F90030002B12DB03F12801C1F355
S1131AA04E030B445408016D04EB4202B3FBF2F203
S1131AB0072A21F0700328BF072243EA02120265B5
S1131AC010BDDA6CD4070BD411F0060F18D0DB6C00
S1131AD0194840F69131FEF705FC6FF0FF02B8E7B4
S1131AE0DB6CDC07F4D511F0060FF1D127288CBF8D
S1131AF04FF47F424FF4EE42ABE7DA6CD10711D4D6
S1131B000928A4D90A3809288CBF4FF47F424FF41E
S1131B10EE429EE7143813288CBF4FF47F424FF4F3
S1131B20EE4296E7DB6CDB07E0D4D1E700300E40F1
S1131B303212002034120020E472000038B5754BD4
S1131B4002229A639B6B03F00F03934240F0A98037
S1131B500389C82B044637D8A2889A422AD8B4F9F4
S1131B600C30C82B1DDC6378012B11D0022B00F044
S1131B70BF80E38842F21072934200F2A9804A2B9C
S1131B802CD9B3F5FA7F80F0AA804FF0805126E07B
S1131B90A388C82BEDD9604840F65B21FEF7A2FB71
S1131BA0E7E75D4840F65721FEF79CFB6378012B7D
S1131BB0DCD1EDE7584840F65621FEF793FBB4F923
S1131BC00C30C82BCFDDECE7534840F65521FEF727
S1131BD089FB2389A2889A42C1D9EBE700214D4AA7
S1131BE0B4F90C00D36C4D4D23F0405323F00103A2
S1131BF00028A8BF43F001030B43D364D2F8EC30B0
S1131C00A08843F44073C2F8EC30D36E288043F0CC
S1131C108073D366424BD3F88019D3F880390029F6
S1131C2038D0002B6ED03B4A136F23F0070343F0E8
S1131C3004031367FFF700FF3A493B4B2089B4F9CB
S1131C400C200880A0881A80FFF7F6FEA37B002BE7
S1131C503AD0012B34D0304840F6CE01FEF742FB97
S1131C60012260881146FFF713FE054608B3294A8E
S1131C70D36B43F48063D3636078FFF7B9FDA37A31
S1131C80274AA3F12003B3FA83F35B09C2F894371C
S1131C90284638BD136F23F007031367FFF7CCFE04
S1131CA0CAE71D4840F64B210025FEF71BFB2846DA
S1131CB038BD194840F69F21FEF714FB284638BD6D
S1131CC0144B1A4A9A65CBE7124B194A9A65C7E72F
S1131CD0114840F66821FEF705FBE3884FE740F61C
S1131CE0C3118B4294BF4FF000514FF0405176E73F
S1131CF0A3880A2B7FF63DAF07484FF42661FEF711
S1131D00F1FA36E7044840F6AF31FEF7EBFA2888DB
S1131D1089E700BF00300E40E4720000301200205A
S1131D200000C6433212002034120020372110B7BD
S1131D3077402057032838B504460D461ED9042899
S1131D4005D005281AD0A0F10803022B16D90D4896
S1131D507D21FEF7C7FA04EB4404240104F1804416
S1131D6004F52044FFF75AFA23685D4005F0011595
S1131D705D402560BDE83840FFF754BA35F00113E3
S1131D80E9D0E4E7487300002DE9F0410D4616461A
S1131D9098460446E8B1012800F0AE80022800F01D
S1131DA0EB80032800F0E580042800F09F800528DC
S1131DB000F01581831F012B40F29880082800F061
S1131DC01D81092800F028810A2840F08F8007230C
S1131DD001E040F2FF33EB40DF0740F187809EB320
S1131DE0B8F1000F20D0002C00F08980012C00F005
S1131DF0ED80022C00F0FC80032C00F0E180042C28
S1131E0000F0C980052C00F00181A31F012B40F2D2
S1131E10C280082C00F00981092C00F00E810A2CE4
S1131E2040F0B98007236CE0002C71D140F2FF33FD
S1131E30EB40D90740F1A9800122834BAA4004EB6F
S1131E40440109010B441A6067003A19120102F1B6
S1131E508042072D02F520423BD85368A9000F2089
S1131E60884023EA000306FA01F10B43536076BB72
S1131E70B8F1000F1CD0002C74D0012C00F0AC8001
S1131E80022C00F0AF80032C00F09180042C76D05B
S1131E90052C00F0B580A31F012B70D9082C00F08D
S1131EA0C080092C00F0C6800A2C68D107235BE0AF
S1131EB0002C42D140F2FF33EB40DB0771D5624B7B
S1131EC03C4424010121234401FA05F51D60BDE8C9
S1131ED0F081A5F1080391689B000F20984021EA46
S1131EE0000106FA03F30B439360C0E7574840F23E
S1131EF01D11FEF7F7F972E74FF6C0736BE740F276
S1131F00FF33EB40D80746D50122514BAA4096E750
S1131F10012C5ED0022C6ED0032C4ED0042C34D075
S1131F20052C70D0A31F012B2FD9082C7BD0092C92
S1131F307DD00A2C29D107237AE7012C43D0022C27
S1131F4053D0032C36D0042C2BD0052C61D0A31FE6
S1131F50012B26D9082C62D0092C71D00A2C20D14F
S1131F600723A9E740F2FF33EB40DA0707D5384BE4
S1131F70A6E74FF47F432EE740F6FF732BE735487F
S1131F8040F21341FEF7AEF9F1E732484FF47971AC
S1131F90FEF7A8F950E72F4840F21341FEF7A2F9E3
S1131FA0B2E72C484FF47971FEF79CF987E74FF4B8
S1131FB07F43D9E74FF47F437EE74FF47F4337E70E
S1131FC04FF47F439DE74FF6C07375E74FF6C07338
S1131FD097E74FF6C0732BE74FF6C073C4E74FF68D
S1131FE0FF73F8E640F6FF73BEE740F6FF7363E75E
S1131FF040F6FF7385E740F6FF7319E70F23EAE61F
S11320004FF6FF73B0E74FF6FF7311E74FF6FF7318
S113201077E74FF6FF734FE74FF44043DBE60F23B8
S11320204AE70F23A0E70F2302E70F2369E74FF4E2
S11320304043FDE64FF4404396E74FF4404360E7E6
S11320404FF4404338E700BF0CA00044487300003D
S11320500CA00046AC730000F8B50768064627F4E8
S1132060407707600C4603F003071546FFF7D6F8E0
S1132070326882EA072303F4407353403360FFF766
S1132080D1F854B92C4B9E424CD02C4B9E424ED08E
S11320902B4840F22911FEF725F933689A071ED51B
S11320A0032F22D126484FF4AF71FEF71BF9254BBD
S11320B0D85D05FB00F018B36FEAC50505442C4450
S11320C0B4FBF0F4013C22D4B4F5007F24D233688D
S11320D09B0702D5002C08BF01243461F8BD032FEF
S11320E0E0D0194B53F8273002E0184B53F827304F
S11320F09C42D7D9134BD85D05FB00F00028DBD1F7
S1132100BDE8F8400E4840F26F11FEF7EBB80C48FA
S113211040F27511FEF7E6F809484FF4BB71FEF77B
S1132120E1F8D4E70A48FEF739FB0446B5E7094865
S1132130FEF734FB0446B0E700C0004000C4004092
S113214010740000587400004C74000040740000C7
S113215000820400009204001C4B984270B50446AF
S11321600E4608D003F58063984204D018484FF413
S1132170D271FEF7B7F804F142457278154905F5B6
S113218080156B0182F0010200202064E1635A6033
S1132190B268A2B1337B71682046FFF75DFF0B4B39
S11321A036789C4208D003F580639C4204D00848EA
S11321B040F28F11FEF796F86D012E6070BD044851
S11321C040F20F11FEF78EF8E9E700BF00C00040AF
S11321D010740000FFFF07000C4B984270B50546D1
S11321E00C46164608D00A48D921FEF77BF85CB1A4
S11321F0012C00D16E6170BD0129F4D8130C1B04AD
S1132200002BF0D1002CF3D12E6170BD006004408E
S11322105C74000038B50A4B984204460D4604D05D
S1132220084840F20911FEF75DF8636B9B07FCD484
S113223015B10123636038BD0223636038BD00BF5C
S1132240006004405C74000038B5244B9842054695
S11322500C4604D022484FF4B371FEF743F82178BA
S113226011B9AB68DB0729D46278A378002A0CBFC4
S113227000224FF480523BBBE3685BBBE3780BB1B5
S113228042F4807223790BB142F0400263790BB1BE
S113229042F08002E37994F806C0207A1B0143EAF5
S11322A08C03034313432B6039B1AB68DA0704D4BE
S11322B06B6B9B07FCD401236B6038BD6B6B980779
S11322C0FCD402236B60CFE7E36842F40072002B76
S11322D0D4D001E042F400722B61CFE700600440E7
S11322E05C74000070B505460C4616461AB36CB90A
S11322F0164B9D4206D0BDE8704015484FF49371CB
S1132300FDF7F0BF1348FEF749FA0446124B61018A
S1132310B1FBF6F4203CB3EBC40F4FEAC4060FD371
S11323202B6C0D4AD90702EA060202D46B6C5B07D8
S1132330FCD4EA6070BD0648FE21FDF7D3FFD6E762
S1132340034840F23311FDF7CDFFE9E700A0044054
S11323509074000090171A00F8FF010038B50C4B78
S1132360984204460D4604D00A4840F25711FDF73E
S1132370B9FFE943236C490001F00A01DA0745EA91
S1132380010502D4636C9B07FCD4656038BD00BFB3
S113239000A0044090740000154B984270B50446A8
S11323A00E4604D013484FF4DC71FDF79BFF236CF9
S11323B0DA0702D4636C9B07FCD40A236360656C60
S11323C0002DFCD101232364717B337B22680B43F2
S11323D0B17B22F01C020B4313437168B268236083
S11323E02046FFF77FFF33786360256470BD00BF2C
S11323F000A004409074000038B52D4B9842044668
S11324000D460FD003F5806398420BD003F5E053DB
S1132410984207D003F58063984203D025489A2157
S1132420FDF760FF2A780AB9022363600023636220
S1132430EB78A978E8791B0443EA0163297A0B4312
S1132440A97943EA81236978002914BF4021002136
S113245043EA00230B43697A6879002914BF802179
S113246000210B43A97A002914BF202100210B432A
S1132470E97A002914BF102100210B43297B00298C
S113248014BF082100210B432979002914BF4FF4FC
S113249000510021002843EA010314BF4FF080518A
S11324A000210B4323600AB10123636038BD00BFE0
S11324B000800140C474000070B4114E416133685F
S11324C07BB1002500E023465A698A420DD89C68F6
S11324D0891A1D464161002CF5D19860846070BC56
S11324E070473060836070BC70472DB93060836082
S11324F0511A70BC59617047A8608360F8E700BF47
S11325004C12002010B500F00FF90B4B1B6883B17F
S11325100A495C690A68A0EB020C644504D32244AE
S1132520121A5A61086010BD001B002208605A612B
S113253010BD024B186010BD4C1200204012002048
S113254038B50E4D0E4A2B6814685B6902201C4492
S113255000F01AF9204600F0EDF80A482B68002232
S11325600270D988890706D49B681BB159690A444B
S1132570012AF6D938BD0123037038BD4C1200205E
S11325804012002044120020104A1368B3B1834261
S113259002D115E0984206D01A469B68002BF9D167
S11325A008B102207047836893602BB141695A696E
S11325B00A4400205A617047184670470028F0D139
S11325C083681360002BF1D1F6E700BF4C120020A2
S11325D02DE9F04FC20783B0044604D4A30711D4F5
S11325E003B0BDE8F08F4C4A138801339BB21380CB
S11325F0FFF788FF494B1B68002BEFD0FFF7A0FFC4
S1132600A307EDD5DFF81C81DFF8109100F08CF8FA
S1132610D8F800500646451BFEF708FED9F80030EE
S11326208346002B74D000273C465A69AA421146BF
S113263051D8C8F800602A461C4602E05969914204
S113264009D8187994F804C0844588BF1C469B684F
S1132650521A002BF2D15846FEF7EEFD0023D4F8AF
S113266014B06361FEF7E2FD82462046FFF78CFF5B
S11326705046FEF7E1FD23690BBBE36813B1216803
S11326802046984700F050F8B344A5EB0B0B0BEB36
S113269000050646FEF7CAFDD9F800300137834627
S11326A0002BC2D11E4A012F137025D0022000F046
S11326B079F8584603B0BDE8F04FFEF7BDBDFEF70C
S11326C0B5FD216901902046FFF7F6FE019B1846EF
S11326D0FEF7B2FDD1E712490020012F087010D097
S11326E0521B5A61C8F80060FFF72AFF584603B02E
S11326F0BDE8F04FFEF7A0BDE388022BD6D11770DA
S1132700D4E7002CECD0E0880228E9D10F70E7E789
S1132710034A1370CAE700BF461200204C1200207F
S11327204812002040120020014B9868704700BFF7
S113273000200440124B9A68596D9B695B0702D4D0
S11327408B1A032B18D9831A022B98BFD01C0C4B5D
S1132750B0F1FF3F38BF013858655A6A42F00402AD
S11327605A62084B1A7832B105490A6D002042F0CA
S113277002020A65187070478A42F2D1E3E700BF8B
S113278000200440181000208207054A00F00103CD
S1132790516A48BF43F004030B435362704700BFC0
S11327A000200440820700F0010306D41A460849B9
S11327B04B6A23EA02034B627047064A044801212C
S11327C01170016D21F0030143F004020165EEE78D
S11327D0002004401810002010B5FEF727FD0A4B16
S11327E09B695A07084A044603F0010003F00703F3
S11327F048BF40F002001362FFF7EAFE2046BDE83E
S11328001040FEF719BD00BF0020044070B5054616
S113281084B01648164CFDF7C1FF164AA2FB0023EC
S11328209B0903FB05F514480121FDF7FFFD012673
S113283000230A22AD0A694620460293CDE90033FB
S11328408DF80C308DF80B608DF808608DF802203F
S1132850FFF7D2FD65626660616A0029FCD102233C
S113286005486360FDF7E2FD04B070BD404105001A
S113287000800140D34D6210000204000C490D4B4E
S11328800D4A10B400240C7001200221C3F88C01FD
S11328900424C3F88C1108204FF48041C3F88C4100
S11328A0C3F88C015DF8044BC2F8BC11704700BF3B
S11328B05012002000A0004400A00046CB0710B432
S11328C03DD48C0723D5002A47D1414B4FF4805483
S11328D04907C3F89C401DD4C10722D5002A4AD118
S11328E03B4B0121C3F88C1181071DD444074ED5FD
S11328F0002A57D1364B0422C3F88C21020703D592
S1132900334B0822C3F88C215DF8044B70474B0706
S1132910E2D54ABB2E4B4FF40051C407C3F89C10B8
S1132920DED48407E2D562BB294B0222C3F88C2192
S11329304307E3D5264B0422C3F88C21DEE7002AA3
S113294039D1234B4FF40064C3F89C408B07BCD4AB
S11329504C07DFD4C307C3D4E3E71E4B4FF48054C2
S11329604907C3F89C40B7D51A4B4FF40051C3F83C
S11329709C10C107D5D5174B01218407C3F88C11CE
S1132980B4D5144B0221C3F88C1143070AD40107B0
S1132990BAD5002AB4D00F4B5DF8044B0822C3F813
S11329A08C2170470B4B0422C3F88C210307F2D40B
S11329B05DF8044B7047074B4FF40064C3F89C4028
S11329C08C07CAD44B07CFD4C107AAD5D3E700BF1D
S11329D000A0004400A00046F0B519208DB0FFF718
S11329E015FF40F201134A4A4A484B4CADF81430E3
S11329F001260025ADF82C3005A94FF48853112782
S1132A00CDE9097307928DF82060069500F0FEFA6F
S1132A10CDE901653F4800943B4655223146256087
S1132A2000F062FB00F0C4FB0028FBD13B4D009595
S1132A300B21CDE901000A23296036482768552275
S1132A40012100F051FB00F0B3FB0028FBD18222EE
S1132A50CDE9010000952F482A600B23552201215E
S1132A6000F042FB00F0A4FB0028FBD10121CDE9DA
S1132A700110009427481123552200F035FB00F083
S1132A8097FB0028FBD12668013706F00F0607F0F4
S1132A900F07BE4203D022488E21FDF723FC0023FA
S1132AA00121CDE9013300951A4829600A235522F2
S1132AB000F01AFB00F07CFB0028FBD18122CDE959
S1132AC00100009513482A600B235522012100F0D0
S1132AD00BFB00F06DFB0028FBD10121CDE90110B7
S1132AE000940C481123552200F0FEFA00F060FB1C
S1132AF00028FBD12368013603F00F0306F00F060C
S1132B00B34203D006489D21FDF7ECFB0DB0F0BDA8
S1132B10DDFB050000C400405412002058120020C0
S1132B20F8740000024B002218681A60704700BF56
S1132B305412002010B50A4C84B000231120CDE9B2
S1132B4001332060009407480B235522012100F033
S1132B50CBFA00F02DFB0028FBD1206004B010BD9F
S1132B605812002000C4004000B585B00121064B76
S1132B700093CDE9011014230448552200F0B4FA5F
S1132B8005B05DF804FB00BF5412002000C40040EF
S1132B9070B503208CB000F0E1FD00F015F900F0F1
S1132BA039F94FF08043049301238DF828308DF8D0
S1132BB0203007930223134A1348099369460423D8
S1132BC000241025112605920B93ADF800400196C0
S1132BD00295ADF80C408DF8184000F0B3FB00F0FE
S1132BE069FD00F0FBFDFFF749FEFFF7F5FE214606
S1132BF0202000F0B1F828460CB0BDE8704000F089
S1132C005FBD00BF6F12033B0060044010B588B085
S1132C1000F074FD03071AD4FFF784FF1328044659
S1132C200EDC042101220220FFF748FE0A49224655
S1132C30684601F035FD684600F0B6F808B010BDEE
S1132C40042100220220FFF739FE0449EFE704487B
S1132C507521FDF747FBDFE734750000447500007C
S1132C601875000000B585B000F048FD430724D472
S1132C701448154902680B68033207EE902A0133A1
S1132C80B8EE677A07EE903AF8EE677A0260C7EE1C
S1132C90277A0B6017EE900A00F0F0FF02460B460D
S1132CA068460A4901F0FCFC684600F07DF80820FB
S1132CB0FFF75AFF05B05DF804FB05489321FDF7C3
S1132CC011FBD5E71C1000205C1200205C7500008D
S1132CD0187500000148AB21FDF704BB187500000E
S1132CE008B500F00BFD830703D4BDE80840FFF7E7
S1132CF021BF0448BB21FDF7F5FABDE80840FFF702
S1132D0019BF00BF1875000008B500F0F7FCC30632
S1132D1008D40748012100F0BBFBBDE80840054882
S1132D2000F042B80448CB21FDF7DCFAF1E700BF1C
S1132D3000600440687500001875000008B500F0D4
S1132D40DDFC830600D408BDBDE808400148E0214D
S1132D50FDF7C8BA1875000010B590B000240F94A0
S1132D604FF4165E4FF4A064CDE90D10CDE900E4F4
S1132D7004211B24CDE904414FF4D8500321CDE9AB
S1132D8008010522012340F2011C0648ADF830C0B9
S1132D906946CDE90623CDE90A2300F099FB10B07A
S1132DA010BD00BF00A0044000B583B0019001F045
S1132DB09FFC01990246034803B05DF804EB00F060
S1132DC04BBC00BF00A0044008B50E480121FDF72C
S1132DD02DFB002211460120FDF7D2FF01221146EE
S1132DE00020FDF7CDFF08480221FEF779F80748D7
S1132DF00A21FEF775F8BDE8084005480121FDF7F2
S1132E0015BB00BF404105000300200002001E0066
S1132E1030253E0010B53A480121FDF707FB4FF07D
S1132E2001110320FEF786FF00230422082103205A
S1132E30FEF7AAFF4FF001110320FEF77BFF0023EA
S1132E40042209210320FEF79FFF002304220E2100
S1132E500920FEF799FF0023194604220820FEF7F3
S1132E6093FF0023042201210820FEF78DFF002395
S1132E70042202210820FEF787FF002304220321F5
S1132E800820FEF781FF002304220B210320FEF714
S1132E907BFF002304220C210320FEF775FF00238F
S1132EA004220D210320FEF76FFF012304220921D0
S1132EB00520FEF769FF4FF001110520FEF73AFFE8
S1132EC00123082205210220FEF75EFF01230822C8
S1132ED004210220FEF758FF0123042203210520C8
S1132EE0FEF752FF4FF480310520FEF723FF012344
S1132EF0BDE810401A4604210520FEF745BF00BF77
S1132F0000350A0010B503790446052B31D8DFE8F3
S1132F1003F0191F03083009C369002B40D00323B1
S1132F20237110BDC369012B3FD0D4E9022393421E
S1132F3030D0A2692168106801330432A261C862EA
S1132F40E36010BD0368426901210171DA6210BDBA
S1132F50C369012B14D0002BE3D18369C268052116
S1132F6001710168186801320433A361C862E26028
S1132F7010BDBDE810400F4840F20511FDF7B2B98D
S1132F800269016852000220207142F001024B6084
S1132F90CA6210BD23680621022221715A6010BD45
S1132FA00448F421FDF79EF9B9E70248F821FDF73A
S1132FB099F9BAE7787500000379032B12D1C36934
S1132FC070B50446D3B1D4E90203A1692268013380
S1132FD0D5690E1D8342A6610D60E36007D004230A
S1132FE0536070BD08484FF49671FDF77BB9062015
S1132FF02071082102235160536070BD024840F2E1
S11330001F11FDF76FF9DEE77875000070B5314BDD
S1133010044698420CBF3048304884B00D46012124
S1133020FDF704FA636B13F0010F4FF0010343D172
S1133030A363636BD90748D50123E363D5E901236F
S11330402988ADF80010029369462B7B0192204633
S11330508DF80C30FFF780F8D5E90462697E2B7E89
S11330601C48324343EA4103A264844263641C4B18
S11330704FF4B0710CBF4FF400324FF48062E1633F
S113308021640CBF1A605A6020236360226C206C98
S1133090236C23EA00032364636BE363402103236B
S11330A061606360636BDB05FCD5616BE1632023C6
S11330B06360226404B070BDE363636BDA07BDD55B
S11330C008486021FDF70EF9B8E706485B21FDF7D3
S11330D009F9B1E700C00040008204000092040036
S11330E000E100E0787500002DE9F0412B4EB0427C
S11330F00446884615461F4628D0294B984208D0D6
S1133100022000F02BFB01239D406360E562BDE8D3
S1133110F081244E96F82020002AFBD1204B9B6896
S113312013F0E00F2FD10023C6E903353371079B59
S1133130F361089B069973620122194BC6F8088053
S11331407761B16186F820203360D9E7164E96F88E
S11331502020002AFBD1114B9B6813F0E00F17D1FC
S11331600023C6E903353371079BF361089B069975
S113317073620122094BC6F808807761B16186F851
S113318020203360BCE70948B021FDF7ABF8CAE75B
S11331900648A021FDF7A6F8E2E700BF00C0004002
S11331A000C40040881200206012002078750000DE
S11331B0014B93F8200070478812002038B51C4B4F
S11331C05C6B1A6C1D6C196C14401A6C22EA0102B7
S11331D061061A64DC6306D4A20609D4E3050CD4A0
S11331E0134B1D6438BD1348FFF78CFEA206F5D5BA
S11331F01048FFF7E1FEE305F2D50E4C2379062BC8
S113320007D00D4840F24B11FDF76CF8084B1D64D4
S113321038BD042300220220237184F8202000F00A
S1133220BDFA606A00F04CFA014B1D6438BD00BF62
S113323000C00040601200207875000038B51C4BB7
S11332405C6B1A6C1D6C196C14401A6C22EA010236
S113325061061A64DC6306D4A20609D4E3050CD41F
S1133260134B1D6438BD1348FFF74CFEA206F5D579
S11332701048FFF7A1FEE305F2D50E4C2379062B87
S113328007D00D4840F24B11FDF72CF8084B1D6494
S113329038BD042300220220237184F8202000F08A
S11332A07DFA606A00F00CFA014B1D6438BD00BF62
S11332B000C4004088120020787500001C4B10B533
S11332C01C6ADA6A1440E2079C6206D51B6ADB07B3
S11332D024D4184B186800F0F3F9A00707D5144B51
S11332E01B6A99071FD4144B186800F0E9F96207A8
S11332F009D50F4B1B6A5B0706D4104BBDE8104081
S1133300186800F0DDB910BD0D484221FCF7EAFF52
S11333100A4BBDE81040186800F0D2B908483821BB
S1133320FCF7E0FFD5E706483D21FCF7DBFFDAE7D1
S113333000600440B0120020B4120020B812002033
S11333409475000030B5494B2DED028B984285B041
S113335004460D4600F08580A368D9076AD401238A
S11333606360636B002BFCD1A368DA0774D5022376
S11333706360636B002BFCD129786A788DF80110A7
S113338001218DF80020ADF80210394AE360694646
S1133390204601928DF80830FEF756FF616B002934
S11333A0FCD19FED347AD5ED047A95ED058A67EE6C
S11333B0877A28EE078AFCEEE77ABCEEC88A17EE15
S11333C0902A2046FEF708FF204618EE102A012115
S11333D0FEF702FFD5E9013295F80DC095F82000FB
S11333E013432A7B0121A16142EA4C02E161636437
S11333F095F8283022644FF0FF32A2629B002A7EA7
S1133400E16A43EA400313430B431B4AE3624FF070
S1133410006313601949A3681948EC69194A0C60E0
S1133420DB076C6AE96A046011600ED405B0BDEC78
S1133430028B30BD042000F0B1F900212046FEF7D4
S1133440E9FE636B002BFCD189E7042000F086F9C8
S113345005B0BDEC028B30BD0B487521FCF742FF73
S113346085E70A480121FCF7E1FF75E700600440A5
S11334700000030300007A4400E100E0B0120020E1
S1133480B4120020B81200209475000080061600C3
S113349038B58368044611B1DA070ED538BDDB07A9
S11334A0FCD50D46042000F079F929462046FEF7A4
S11334B0B1FE636B002BFCD138BD042000F04EF943
S11334C001212046FEF7A6FE636B002BFCD138BD1C
S11334D030B5044685B031480D460121FCF7A6FFFE
S11334E001232361636C002BFCD12369012B03D0DE
S11334F02B485021FCF7F6FE00232361636C002B5C
S1133500FCD18DF80030AB798DF80D30EB6B25498B
S11335100193EB79244A8DF80E306B6B28680B60AD
S1133520AB6B136002902B798DF80C306946204602
S1133530FEF732FF296A2B69A26D0B431343A3657F
S1133540636DE96AEA6943EA410313434022636510
S11335506260636C002BFCD180236360636C002B7E
S1133560FCD169792046FEF7F9FE636C002BFCD18F
S1133570A368D807FCD5A3689907F9D5A368DA0727
S113358002D5A3689B0703D405486E21FCF7AAFE65
S1133590064B4FF480021A6005B030BD90171A0034
S11335A0B4750000F0120020F412002000E100E0E5
S11335B038B5254BDC6A9A6B9D6B996B14409A6BFA
S11335C0A00722EA01029A635C6306D4E10725D4CA
S11335D01D4A936B2B43936338BD1C4B1A79012A04
S11335E027D1D3E90212914228D0511C1A44D96040
S11335F01968127C8A62E207EAD51968002083F808
S113360030008A6B187122F001028A63032000F0F3
S1133610C5F80F4B186800F053F807E00B4B1A7904
S1133620012AEAD00B48A621FCF75CFE25F003052D
S1133630CEE708488C21FCF755FEC7E719688A6B6A
S113364042F001028A63D6E700A00440BC120020C5
S1133650F4120020B47500002DE9F041134C82B03F
S11336600646904694F8303003F0FF05002BF9D15C
S11336700191FDF7D3FD0746032000F06FF8E560E4
S113368001990B48C4F80880012584F8305001F0F2
S113369027F8B36B266043F002033846B363257101
S11336A002B0BDE8F041FDF7BDBD00BFBC12002073
S11336B0CC120020014B00221A607047F81200203F
S11336C010B50446FDF7AAFD034A13682343BDE879
S11336D010401360FDF7A6BDF812002010B5044693
S11336E0FDF79CFD044A136823EA0403BDE8104077
S11336F01360FDF797BD00BFF8120020014B186856
S1133700704700BFF812002010B5FDF787FD114B7C
S11337101A68002A044604DD2046BDE81040FDF77F
S113372081BD5A68002AF7DC9A68002A06DD0A4A35
S1133730136923F00403136130BFEDE7DB68002B4A
S11337404FF0010002DDFDF7F9FEE5E7FDF746FF66
S1133750E2E700BFFC12002000ED00E038B50446AB
S1133760FDF75CFD0B4A52F824300133042B42F878
S11337702430054604DC2846BDE83840FDF752BD38
S113378005488221FCF7AEFD2846BDE83840FDF728
S113379049BD00BFFC120020D475000038B50446B2
S11337A0FDF73CFD0B4A52F82430013B002B42F854
S11337B02430054604DB2846BDE83840FDF732BD19
S11337C005489C21FCF78EFD2846BDE83840FDF7EE
S11337D029BD00BFFC120020D4750000034B002259
S11337E0C3E90022C3E902221A617047FC120020D7
S11337F0F0B5694C694EDFF8B8E194E80F008BB07E
S113380001AD103485E80F000FCC0DF1140CACE8B9
S11338100F0001272368ACF800307764DEF8FC3031
S11338201B0E40F0B0805E4A4AF6E851C2F890118F
S1133830D2F8981141F00401C2F89811C2F89031FD
S1133840574AD2F8643143F40053C2F86431554AFC
S11338505249136A544823F4441343F488131362FB
S11338600B68A2F5805243F480730B60D2F8A43144
S113387043F4F843C2F8A431FDF776F8002428464F
S11338808DF8004002258DF80140FEF757F968468F
S11338908DF80150FDF792FF05A8FDF781F901228B
S11338A011460320FDF76CFA05211120FDF718FBE2
S11338B0224621462846FDF763FAFFF769F9FFF728
S11338C01DFFC60663D5FDF7A9FC0446FFF716FFE6
S11338D030B32046FDF7A6FCFFF710FF450728D4B8
S11338E0FFF70CFFC4072DD4FFF708FF800732D47D
S11338F0FFF704FF010737D4FFF700FFC2063CD4EB
S1133900FFF7FCFE8306DED52020FFF7E7FEFFF776
S113391015FAFDF783FC0446FFF7F0FE0028D8D122
S1133920FFF7F2FE2046FDF77DFCFFF7E7FE4507B3
S1133930D6D50420FFF7D2FEFFF794F9FFF7DEFE99
S1133940C407D1D50120FFF7C9FEFFF7C3F9FFF77C
S1133950D5FE8007CCD50220FFF7C0FEFFF7C0F9E3
S1133960FFF7CCFE0107C7D50820FFF7B7FEFFF726
S11339704DF9FFF7C3FEC206C2D51020FFF7AEFE15
S1133980FFF7C2F9BCE7012B7FF461AF58E70748A2
S11339902E21FCF7A7FC96E70C76000000000E40F1
S11339A000300E4000400E4080BA8C01FC750000CF
S11339B00081E00F81F0004102E000BF83F000438A
S11339C030B54FEA41044FEA430594EA050F08BFB6
S11339D090EA020F1FBF54EA000C55EA020C7FEA7A
S11339E0645C7FEA655C00F0E2804FEA5454D4EBF7
S11339F05555B8BF6D420CDD2C4480EA020281EAC1
S1133A00030382EA000083EA010180EA020281EAF8
S1133A100303362D88BF30BD11F0004F4FEA01314A
S1133A204FF4801C4CEA113102D0404261EB410159
S1133A3013F0004F4FEA03334CEA133302D05242DF
S1133A4063EB430394EA050F00F0A780A4F101049B
S1133A50D5F1200E0DDB02FA0EFC22FA05F28018D5
S1133A6041F1000103FA0EF2801843FA05F35941BB
S1133A700EE0A5F120050EF1200E012A03FA0EFC3A
S1133A8028BF4CF0020C43FA05F3C01851EBE37164
S1133A9001F0004507D54FF0000EDCF1000C7EEB81
S1133AA000006EEB0101B1F5801F1BD3B1F5001FBF
S1133AB00CD349085FEA30004FEA3C0C04F10104DE
S1133AC04FEA445212F5800F80F09A80BCF1004F07
S1133AD008BF5FEA500C50F1000041EB045141EA89
S1133AE0050130BD5FEA4C0C404141EB0101013C52
S1133AF028BFB1F5801FE9D291F0000F04BF014641
S1133B000020B1FA81F308BF2033A3F10B03B3F112
S1133B1020020CDA0C3208DD02F1140CC2F10C02A2
S1133B2001FA0CF021FA02F10CE002F11402D8BF00
S1133B30C2F1200C01FA02F120FA0CFCDCBF41EACC
S1133B400C019040E41AA2BF01EB0451294330BD9B
S1133B506FEA04041F3C1CDA0C340EDC04F1140478
S1133B60C4F1200220FA04F001FA02F340EA03004F
S1133B7021FA04F345EA030130BDC4F10C04C4F195
S1133B80200220FA02F001FA04F340EA0300294675
S1133B9030BD21FA04F0294630BD94F0000F83F4BF
S1133BA0801306BF81F480110134013D4EE77FEAA2
S1133BB0645C18BF7FEA655C29D094EA050F08BFEE
S1133BC090EA020F05D054EA000C04BF19461046CF
S1133BD030BD91EA030F1EBF0021002030BD5FEA13
S1133BE0545C05D14000494128BF41F0004130BD3B
S1133BF014F580043CBF01F5801130BD01F000458F
S1133C0045F0FE4141F470014FF0000030BD7FEA01
S1133C10645C1ABF194610467FEA655C1CBF0B46FC
S1133C20024650EA013406BF52EA033591EA030F13
S1133C3041F4002130BD00BF90F0000F04BF00210B
S1133C40704730B54FF4806404F132044FF000053E
S1133C504FF0000150E700BF90F0000F04BF0021B7
S1133C60704730B54FF4806404F1320410F000451D
S1133C7048BF40424FF000013EE700BF42004FEA18
S1133C80E2014FEA31014FEA02701FBF12F07F4395
S1133C9093F07F4F81F06051704732F07F4208BF4C
S1133CA0704793F07F4F04BF41F40021704730B553
S1133CB04FF4607401F0004521F000411CE700BF9F
S1133CC050EA010208BF704730B54FF000050AE022
S1133CD050EA010208BF704730B511F0004502D523
S1133CE0404261EB41014FF4806404F132045FEA25
S1133CF0915C3FF4D8AE4FF003025FEADC0C18BFCE
S1133D0003325FEADC0C18BF033202EBDC02C2F1BF
S1133D10200300FA03FC20FA02F001FA03FE40EA51
S1133D200E0021FA02F11444BDE600BF08B5074BAA
S1133D30044613B10021AFF30080054B1868836A71
S1133D4003B19847204602F06DFF00BF0000000059
S1133D503076000070B50D4D0D4C641BA410002688
S1133D60A64209D10B4D0C4C03F036FA641BA41087
S1133D700026A64205D170BD55F8043B984701368C
S1133D80EEE755F8043B98470136F2E708120020A5
S1133D9008120020081200200C1200200A4491424C
S1133DA000F1FF3300D1704710B511F8014B03F84F
S1133DB0014F9142F9D110BD02440346934200D110
S1133DC0704703F8011BF9E72DE9F04788B0002B91
S1133DD01D461446BCBF03F100431446129A109EBC
S1133DE0DDF84CA0B6BF1D4600232D231370149B91
S1133DF023F02008B8F1460F05D0B8F1450F00D1E3
S1133E000136022300E0032307AA049206AACDE99F
S1133E1002A2CDE9003622462B4600F0FDFCB8F1A3
S1133E20470F074602D1119BDB0722D5B8F1460F95
S1133E3007EB060910D13B78302B0AD1002200236E
S1133E402046294603F058F918B9C6F10106CAF804
S1133E500060DAF800309944002200232046294605
S1133E6003F04AF908B1CDF81C903022079B4B456A
S1133E7007D3079B159ADB1B3846136008B0BDE8CF
S1133E80F087591C07911A70F0E7F7B5034600292B
S1133E90B8BF494203F8022BB4BF2D222B220929B3
S1133EA042702ADD0DF10704A4460A27A6460A46F5
S1133EB091FBF7F607FB16153035632A04F1FF343E
S1133EC00EF8015C3146F1DC3031AEF1020504F844
S1133ED0011C441C294661450AD30DF10902A2EBD9
S1133EE00E02654588BF00221344181A03B0F0BDC2
S1133EF011F8012B04F8012FEDE7302330318370E2
S1133F00C170031DF1E700002DE9F04F2DED028B88
S1133F1091B00C46DDF8708016461F46054601F048
S1133F2069FAD0F800A0504600F0E2FB00230E939B
S1133F3023680993D8F8003094F818B0073323F0B5
S1133F40070303F10802C8F80020D3E90023C4E9F9
S1133F501223D4E9128929F000430B93CDF8288069
S1133F6008EE100AA04BDDE90A014FF0FF3203F01E
S1133F70F5F888BBDDE90A019B4B4FF0FF3203F0F3
S1133F80CFF848BB002200234046494603F0BEF860
S1133F9010B12D2384F84330944B9548BBF1470F5F
S1133FA094BF9846804603232361099B23F00403AE
S1133FB023604FF00009009733460FAA2146284694
S1133FC000F0DAF9013040F092804FF0FF3011B088
S1133FD0BDEC028BBDE8F08F42464B464046494655
S1133FE003F0BCF840B14B46002BBCBF2D2384F832
S1133FF043308048804BD1E763685A1C0BF0DF01E3
S113400043D1062363600022099B06920EAACDE9E0
S113401004B20DAA43F4806303920DF13302CDE997
S1134020013223606368009342464B4628460A9156
S1134030FFF7CAFE0A99472980460D9908D1C81C82
S113404002DB6368994240DDABF1020B5FFA8BFB44
S1134050BBF1650F1FD801395A4604F150000D9188
S1134060FFF713FF0E9A1318012A8146236102DC1D
S11340702268D20701D5013323619DF83330002B28
S113408099D02D2384F8433095E74729BBD1002BE1
S1134090B9D10123B6E7BBF1660F18D100296368D3
S11340A00BDD216113B92268D00702D501330B441B
S11340B02361A1654FF00009DFE713B92268D20735
S11340C001D50233F4E70123F2E74FF0670B0E9BAF
S11340D0994205DB23682161D807EAD54B1CE7E741
S11340E00029D4BFC1F1020201221344E0E723688E
S11340F05A0507D42369424631462846B847013059
S11341002CD162E7BBF1650F40F2E080D4E91201E3
S11341100022002302F0F0FF002834D0374A0123A4
S113412031462846B84701303FF44FAFDDE90D234F
S11341309A4202DB2368D80710D518EE103A52468B
S113414031462846B84701303FF43FAF4FF00008EE
S113415004F11A090E9B013B434509DC23689B07C4
S113416000F10581E0680F9B9842B8BF18462EE71E
S113417001234A4631462846B84701303FF425AF6B
S113418008F10108E6E70D9B002B39DC1B4A0123EB
S113419031462846B84701303FF417AFDDE90D2317
S11341A0134302D12368D907D8D518EE103A5246E2
S11341B031462846B84701303FF407AF4FF00009B5
S11341C004F11A0A0D9B5B424B4501DC0E9B92E7FE
S11341D00123524631462846B84701303FF4F5AE34
S11341E009F10109EEE700BFFFFFEF7F347600001D
S11341F038760000407600003C76000044760000EB
S11342000E9AA36D9A42A8BF1A46002A914637DC3B
S11342104FF0000B29EAE97904F11A02A36D09931E
S1134220A3EB09035B4533DCDDE90D239A423BDB59
S11342302368DA0738D40E9B099A0D999A1AA3EBCE
S113424001099145A8BF9146B9F1000F35DC4FF043
S1134250000829EAE97904F11A0ADDE90D239B1A19
S1134260A3EB090343457FF779AF01235246314657
S11342702846B84701303FF4A8AE08F10108ECE73E
S11342801346314642462846B8470130C0D19CE621
S11342900123314628460992B84701303FF495AED0
S11342A0099A0BF1010BB9E718EE103A5246314660
S11342B02846B8470130BED187E6099A4B464244A6
S11342C031462846B8470130C1D17EE60E9A012A0C
S11342D001DCDB0738D50123424631462846B8477E
S11342E001303FF472AE18EE103A52463146284679
S11342F0B84701303FF469AED4E91201002200232B
S113430002F0FAFED8B90E9B08F10102013B3146D6
S11343102846B84701300ED157E6012352463146AC
S11343202846B84701303FF450AE08F101080E9B0F
S1134330013B4345F1DC4B4604F15002DCE64FF00F
S1134340000804F11A0AF2E701234246DFE70123D9
S11343504A4631462846B84701303FF436AE08F1A4
S11343600108E3680F995B1A4345F0DCFAE64FF065
S1134370000804F11909F4E72DE9F04716469946B7
S11343808A680B69DDF820809342B8BF1346336016
S113439091F8432007460C460AB101333360236881
S11343A0990642BF336802333360256815F0060569
S11343B006D104F1190AE36832689B1AAB4226DC81
S11343C094F84320131E226818BF012392062BD4AD
S11343D004F1430249463846C04701301ED02368E1
S11343E0E568326803F00603042B08BFAD1AA3681E
S11343F022690CBF25EAE57500259342C4BF9B1AC8
S1134400ED1800261A34B5421AD1002008E0012321
S1134410524649463846C047013003D14FF0FF3079
S1134420BDE8F0870135C6E7E1185A1C302081F851
S11344304300224494F8451082F843100233C7E73E
S11344400123224649463846C0470130E6D00136AA
S1134450D9E700002DE9FF470F7E0C9D782F914688
S113446080460C469A4601F1430207D8622F0AD8C7
S1134470002F00F0D880582F00F0A38004F14205EB
S113448084F842703AE0A7F16303152BF6D801A132
S113449051F823F0ED440000014500007D44000084
S11344A07D4400007D4400007D440000014500007F
S11344B07D4400007D4400007D4400007D440000F4
S11344C00D46000031450000EF4500007D4400002A
S11344D07D4400002F4600007D440000314500006B
S11344E07D4400007D440000F74500002B681A1D40
S11344F01B682A6004F1420584F842300123A3E0DA
S113450020682968060601F104030AD50E682B60A9
S1134510002E03DA2D23764284F843305E480A23C2
S113452019E00E682B6010F0400F18BF36B2EFE7A9
S11345302B682068191D2960010601D51E6802E058
S11345404606FBD51E8854486F2F0CBF08230A2348
S1134550002184F843106568A560002DA2BF21687E
S113456021F0040121600EB9002D4DD01546B6FB93
S1134570F3F103FB1167C75D05F8017D3746BB42C4
S11345800E46F4D9082B0BD12368DE0708D523691E
S113459061689942DEBF302305F8013C05F1FF351F
S11345A0521B2261CDF800A04B4603AA2146404687
S11345B0FFF7E2FE01304CD14FF0FF3004B0BDE80C
S11345C0F087354881F845702968236851F8046BF1
S11345D029601D0614D5DF0744BF43F02003236080
S11345E01EB9236823F0200323601023B0E7236857
S11345F043F0200323607823284884F84530E3E718
S1134600590648BFB6B2E6E71546BBE72B682668ED
S11346106169181D286035061B6801D5196002E020
S11346207006FBD51980002323611546BAE72B6871
S11346301A1D2A601D6862680021284600F0E8FE01
S113464008B1401B606063682361002384F8433031
S1134650A8E723692A4649464046D0470130ABD0F3
S113466023689B0713D4E068039B9842B8BF18469D
S1134670A4E70123324649464046D04701309BD047
S11346800135E36803995B1AAB42F2DCEBE70025E2
S113469004F11906F5E700BF4676000057760000DE
S11346A00EB400B59CB01DAB029006906FF00041B3
S11346B0094807910491094953F8042B05910068AE
S11346C0019302A901F088FB029B00221A701CB01E
S11346D05DF804EB03B07047201000200802FFFFD0
S11346E0034611F8012B03F8012B002AF9D1704776
S11346F0034613F8012B002AFBD1181A013870471E
S11347002DE9F74F03690C69A3420746C0F2818083
S1134710013C01F1140800F1140505EB8403019335
S113472058F8243055F8242001339A424FEA840B78
S113473008EB8409B2FBF3F631D34FF0000E404688
S1134740AC46F24650F8042B93B206FB03E34FEA5F
S1134750134E9BB2AAEB0303120CDCF800A006FB79
S113476002E213FA8AF34FEA124E1FFA82FADCF8D5
S11347700020CAEB124202EB23429BB243EA0243FB
S113478081454CF8043B4FEA224ADBD255F80B3002
S11347902BB9019B043B9D421A462ED33C613846FB
S11347A001F008F9002824DB013628464FF0000CFC
S11347B058F8042BD0F800E093B2ACEB0303120CCE
S11347C013FA8EF3C2EB1E4202EB23429BB243EA7E
S11347D00243C14540F8043B4FEA224CE8D255F865
S11347E0242005EB840322B9043B9D421A460AD3D4
S11347F03C61304603B0BDE8F08F1268043B002AE8
S1134800CCD1013CC7E71268043B002AF0D1013C3B
S1134810EBE70020EEE700002DE9F04F2DED048BCF
S1134820456A93B00446DDF88C8016461F469246CE
S11348309B4675B9102000F0E1FD0246606220B984
S1134840A94BEA21A94801F0D7FBC0E9015505604D
S1134850C560636A196851B15A684A60012393407C
S11348608B60204600F064FE636A00221A603B1EDF
S1134870AABF002323F0004BC8F800309C4BBCBFF8
S11348800122C8F8002033EA0B031BD1229A42F21A
S11348900F731360CBF31303334300F09685249B0B
S11348A063B9944B22E0944B04930833249A136025
S11348B0049813B0BDEC048BBDE8F08F8D4B0493CA
S11348C00333F3E7002200235046594602F014FC58
S11348D04BEC19AB804658B1229A01231360249BF8
S11348E0002B00F06F8585481860431E0493DFE7B2
S11348F010AB019311AB009352465B46204601F086
S1134900FFF8CBF30A5508EE100A002D00F084805E
S113491019EE903AC3F3130343F07F57564647F416
S11349204017A5F2FF35CDF83880754B002230468C
S11349303946FFF743F866A3D3E9002302F074F97C
S113494065A3D3E90023FFF73BF8064628460F4644
S1134950FFF782F962A3D3E9002302F065F9024666
S11349600B4630463946FFF72BF806460F4602F051
S11349700BFC0022039000233046394602F0C6FBAC
S113498050B10398FFF768F932463B4602F0B4FB96
S113499010B9039B013B0393039B162B5AD8039A2C
S11349A0584B03EBC203D3E9002351EC190B02F07B
S11349B0ADFB002850D0039B013B039300230C93D1
S11349C0109B5D1B6B1E089345BFC5F10103079344
S11349D0002300234CBF08930793039B002B3DDB6C
S11349E0089B039A0B921344089300230993209B7A
S11349F0092B00F28B80052BC4BF043B2093209B22
S1134A00A3F10203CCBF00250125032B00F289800A
S1134A10DFE803F02D3A3859DDE910531D4405F25F
S1134A203243202BC1BFC3F1400305F212400BFAFD
S1134A3003F326FA00F0DABFC3F1200306FA03F009
S1134A401843FFF7F9F801230646A1F1F877013D71
S1134A500E936AE70123B2E70C90B1E7079B039A30
S1134A609B1A07935342099300230B93BFE7002338
S1134A700A93219B002B57DC0123CDE905331A4609
S1134A8021920CE00123F3E70023219A0A93039B6C
S1134A90134405930133012B0693B8BF0123606AC5
S1134AA000224260042202F114069E4241683FD96A
S1134AB0204600F0FDFC049000283DD1124B024634
S1134AC04FF4D571BEE60123DFE700BFAFF30080EA
S1134AD061436F63A787D23FB3C8608B288AC63F00
S1134AE0FB799F501344D33F757600008C76000009
S1134AF00000F07F717600006876000045760000C3
S1134B000000F83FC077000009770000012500236A
S1134B1020930A954FF0FF33CDE905330022122389
S1134B20AEE701230A93F5E7219BCDE90533B6E708
S1134B30013141605200B6E7636A049A1A60069B29
S1134B400E2B00F29D80002D00F09A80039B002B19
S1134B5032DDB74A03F00F0302EBC303D3E9008944
S1134B60039BD8054FEA231716D5B24B51EC190B0A
S1134B70D3E9082302F082F907F00F0782468B4637
S1134B800325AC4E57B942464B465046594602F0AF
S1134B9075F982468B4628E00225F2E7F90708D525
S1134BA040464946D6E9002302F03EF801358046E6
S1134BB089467F100836E5E700F09B80039B9D4FF4
S1134BC05E429B4B06F00F0203EBC203D3E90023C2
S1134BD051EC190B02F028F8361182468B4600235B
S1134BE00225002E7AD1002BD3D10C9B002B00F090
S1134BF08280914B00225046594602F087FA0028E1
S1134C0079D0069B002B76D0059B002B36DD039BC9
S1134C10504659465F1E0022884B02F005F8059E57
S1134C2082468B4601352846FFF716F852465B4606
S1134C3001F0FAFF824B0022FEF7C2FED046D946AD
S1134C408246A1F1507B002E58D17E4B0022404673
S1134C504946FEF7B3FE52465B468046894602F05B
S1134C6073FA002840F0958252460BF10043404607
S1134C70494602F04BFA002840F089825BEC19ABFC
S1134C80119B002BC0F24881039A0E2A00F3448141
S1134C90674B03EBC203D3E90089219B002B80F20D
S1134CA0D580069B002B00F3D18040F06F82654BCA
S1134CB000224046494601F0B7FF52465B4602F0E7
S1134CC039FA069E3746002840F04582049D312378
S1134CD005F8013B039B0133039340E2F20705D53A
S1134CE0D7E9002301F0A0FF01350123761008372E
S1134CF077E7022579E7039F069E94E704994C4BD6
S1134D0031440D910A9903EBC60353E902230029A8
S1134D1043D04D49002002F0B1F852465B46FEF7FD
S1134D204DFE049D82468B464946404602F02CFACD
S1134D300646FEF791FF02460B4640464946FEF7FB
S1134D403DFE303605F8016B52465B468046894687
S1134D5002F0DCF9002863D142464B463649002074
S1134D60FEF72CFE52465B4602F0D0F9002840F0D4
S1134D70B5800D9B9D4281D0304B00225046594650
S1134D8001F052FF2D4B82468B4640464946002295
S1134D9001F04AFF80468946C6E75046594601F06D
S1134DA043FF0D9B049D0F9382468B464946404624
S1134DB002F0EAF90646FEF74FFF303602460B468C
S1134DC040464946FEF7FAFD05F8016B0D9B9D42EE
S1134DD0804689464FF0000224D11B4B5046594669
S1134DE0FEF7EEFD02460B464046494602F0ACF99A
S1134DF0002873D152465B4613490020FEF7DEFDBE
S1134E0002460B464046494602F080F900283FF42A
S1134E1035AF0F9D6B1E0F9315F8013C302BF8D066
S1134E20039749E0054B01F0FFFE80468946BDE744
S1134E30C0770000987700000000F03F0000244095
S1134E4000001C40000014400000E03F049D564652
S1134E505F4642464B463046394602F00FF802F0B0
S1134E6093F98246FEF7F8FE42464B4601F0DCFE1B
S1134E7002460B46304639460AF13006FEF79EFDDF
S1134E8005F8016B049E069FAE1BB74202460B4613
S1134E9035D1FEF795FD42464B4606460F4602F0D5
S1134EA053F9D0B942464B463046394602F024F90C
S1134EB010B11AF0010F10D1204618EE101A00F0AC
S1134EC037FB002303982B70229B01301860249B2E
S1134ED0002B3FF4EDAC1D60EAE4039F2B461D4616
S1134EE013F8012D392A06D1049A9A42F7D104996C
S1134EF0302201370A701A7801321A7090E7A64BF3
S1134F00002201F091FE0022002306460F4602F023
S1134F10F3F800289DD0CFE70A9A002A00F0D78042
S1134F20209A012A00F3BA800E9A002A00F0B28077
S1134F3003F23343099E079D079A1A440792089A7D
S1134F4001211A442046089200F0AAFB0746002DCE
S1134F500CDD089B002B09DDAB42079AA8BF2B464A
S1134F60D21A0792089AED1AD31A0893099B1BB315
S1134F700A9B002B00F0AF80002E13DD3946324629
S1134F80204600F04DFC18EE102A01460746204644
S1134F9000F09CFB18EE101A8046204600F0C8FA78
S1134FA008EE108A099B9A1B06D018EE101A2046A8
S1134FB000F036FC08EE100A0121204600F070FBD8
S1134FC00B9B002B064640F388801A460146204678
S1134FD000F026FC209B012B064640F381804FF015
S1134FE00008336906EB8303186900F009FBC0F17C
S1134FF02000089B184410F01F0000F09280C0F1BC
S11350002003042B40F38A80C0F11C00079B034457
S11350100793089B034405440893079B002B07DD73
S113502018EE101A1A46204600F054FC08EE100A36
S1135030089B002B05DD31461A46204600F04AFC49
S113504006460C9B002B6ED018EE100A314600F079
S1135050B1FC002867DA039B013B18EE101A039396
S11350600A220023204600F085FA0A9B08EE100A63
S1135070002B00F0B181002339460A22204600F0BB
S113508079FA059B002B074600F38E80209B022BA8
S113509051DC89E0109BC3F136034BE7069B5E1E8F
S11350A0099BB342BFBF099B0996F21A0B9BB6BF7B
S11350B09B189E1B0B93069BB8BF0026002BB7BF03
S11350C0DDE90623DDE906359D1A002334E7099E50
S11350D0079D0A9F3BE7099A67E7209B012B18DC91
S11350E0BAF1000F15D1CBF3130393B92BF000439E
S11350F01B0D1B0583B1079B01330793089B0133E9
S113510008934FF001080B9B002B7FF46AAF01203A
S11351106FE74FF00008F6E79846F4E73FF47DAFF9
S113512018461C3072E7069B002B37DC209B022BB1
S113513034DD069B0593059B6BB931460522204659
S113514000F018FA0146064618EE100A00F032FC88
S113515000283FF7BBAD219B049DDB4303934FF035
S113516000083146204600F0E3F9002F3FF4A4AED6
S1135170B8F1000F05D0B84503D04146204600F0F1
S1135180D7F93946204600F0D3F995E6002637468C
S1135190E1E70397374699E5000024400A9B002B7A
S11351A000F0CA80069B0593002D05DD39462A468A
S11351B0204600F08FFB0746B8F1000F5BD07968FA
S11351C0204600F075F9054628B9874B024640F29F
S11351D0EA21FFF737BB3A690232920007F10C016A
S11351E00C30FEF7DBFD01222946204600F072FB5D
S11351F0049B03F10109DDE90423134408930AF035
S11352000103B84607930746314618EE100AFFF724
S113521077FA4146059000F1300A18EE100A00F0C2
S1135220C9FB3A4606903146204600F0DFFBC268CF
S113523009F1FF3B054602BB014618EE100A00F0D7
S1135240B9FB024629462046099200F071F9209BD9
S1135250099A43EA0201079B0B434D460FD1BAF169
S1135260390F2AD0069B002B02DD059B03F1310A7E
S11352708BF800A075E73846BAE70122E2E7069BFF
S1135280002B04DB20990B4307990B4322D1002AFE
S1135290EEDD18EE101A0122204600F01BFB314609
S11352A008EE100A00F086FB002803DCE0D11AF0B7
S11352B0010FDDD0BAF1390FD7D139238BF8003083
S11352C02B461D46013B15F8012C392A71D00132B9
S11352D01A7046E7002A07DDBAF1390FEDD00AF15A
S11352E001038BF800303CE7089B09F801AC9945B1
S11352F047D018EE101A00230A22204600F03AF98B
S1135300B84508EE100A4FF000034FF00A02414678
S1135310204606D100F02EF98046074609F101091E
S113532072E700F027F93946804600230A22204616
S113533000F020F90746F1E7069B0593049D18EE5B
S1135340100A3146FFF7DCF900F1300A049B05F836
S113535001ABEA1A059B934209DD18EE101A0023EB
S11353600A22204600F006F908EE100AE7E7059B3A
S1135370002BC8BF1D46049BD8BF01251D444FF018
S1135380000818EE101A0122204600F0A3FA314654
S113539008EE100A00F00EFB002891DC02D11AF08E
S11353A0010F8DD12B461D4613F8012D302AFAD05A
S11353B0D7E6049A9A4284D1039B013303933123A1
S11353C01370CEE6094BFFF791BA249B002B7FF4B0
S11353D06AAA074BFFF78ABA059B002BAEDC209B19
S11353E0022B3FF7A8AEA9E7097700004476000036
S11353F0687600000048704774110020024B014693
S1135400186800F033BC00BF20100020000000002A
S113541001F0FF01102A2BDB10F0070F08D010F861
S1135420013B013A8B422DD010F0070F42B3F6D165
S1135430F0B441EA012141EA014122F007047FF07E
S113544000070023F0E80256083C85EA010586EAD5
S1135450010685FA47F5A3FA87F586FA47F6A5FA11
S113546087F68EB9EED1F0BC01F0FF0102F007021D
S113547032B110F8013B013A83EA010313B1F8D1C8
S11354800020704701387047002D06BF35460338A9
S1135490073815F0010F07D1013015F4807F02BFE2
S11354A0013015F4C03F0130F0BC0138704700BF33
S11354B070B5466A04460D4676B91020FFF79EFF84
S11354C00246606220B9184B1848662100F094FD2A
S11354D0C0E901660660C660666AF36883B1636A00
S11354E0DB6853F82500B8B9012101FA05F6721DED
S11354F09200204600F05EFB60B1C0E901560EE068
S113550021220421204600F055FB636AF060DB6829
S1135510002BE4D1002070BD026843F8252000234D
S1135520C0E90333F7E700BF757600001A7700007F
S113553070B5466A05460C4676B91020FFF75EFF43
S11355400246686220B9094B09488A2100F054FDDB
S1135550C0E901660660C6603CB16B6A6268DB68DC
S113556053F82210216043F8224070BD7576000084
S11355701A7700002DE9F0410D6907460C461E46D6
S113558001F1140C0020DCF8003099B202FB016137
S11355901E0C0B0C02FB063389B2013001EB0341F4
S11355A085424CF8041B4FEA1346ECDC0EB3A368A7
S11355B0AB4219DC616838460131FFF779FF804658
S11355C028B902460C4B0D48B52100F015FD22699F
S11355D0023204F10C0192000C30FEF7DFFB21468D
S11355E03846FFF7A5FF444604EB850301355E61A9
S11355F025612046BDE8F081097700001A77000094
S1135600030C1B04D3B90004102310F07F4F04BF14
S11356100002083310F0704F04BF0001043310F08F
S1135620404F04BF80000233002805DB10F0804F98
S113563003F1010308BF2023184670470023E4E761
S1135640036813F0070201460BD0DA0723D4980746
S113565049BF5B089B0801200B605CBF0B60022004
S1135660704798B2A8B91B0C1020DAB20AB90830F6
S11356701B0A1A0704BF1B0904309A0704BF9B08BE
S11356800230DA0703D45B0800F1010005D00B6097
S113569070471046E9E7002070472020704700005B
S11356A010B50C460121FFF703FF024628B9054B4C
S11356B005484FF4A07100F09FFC0123446103618D
S11356C010BD00BF097700001A7700002DE9F04FE4
S11356D091460A69D9F810309A42B8BF0B460C4675
S11356E0BCBF4C4699462769D9F810A0A3686168E5
S11356F007EB0A06B34285B0B8BF0131FFF7D8FE05
S113570030B90246444B454840F25D1100F074FC48
S113571000F1140505EB86082B460022434521D3EE
S113572004F1140303EB870709F1140303EB8A0262
S113573002923A1B153A22F00302043204F11501D5
S11357408F4238BF04220192029A03939A420CD8E2
S1135750002E03DD58F8043D002B5AD0066105B035
S1135760BDE8F08F43F8042BD8E7B3F800A0BAF1F2
S1135770000F24D004F1140EA9464FF0000C5EF87B
S1135780042BD9F800101FFA82FB89B20AFB0B1113
S11357904FEA124BD9F8002061444FEA124C0AFB3D
S11357A00BC202EB114289B241EA0241774549F842
S11357B0041B4FEA124CE2D8019A45F802C0039A3E
S11357C0B2F802900433B9F1000F20D0296804F133
S11357D0140CAE464FF0000ABCF800B0BEF802202C
S11357E009FB0B22924489B241EA0A414EF8041B98
S11357F05CF8042BBEF80010120C09FB021101EB3B
S11358001A4167454FEA114AE6D8019AA95004356E
S11358109AE7013E9CE700BF097700001A77000071
S11358202DE9F843154612F0030206460F4607D049
S1135830254C013A002354F82220FFF79BFE07462B
S1135840AD103DD0746A7CB91020FFF7D7FD024635
S1135850706228B91D4B1E484FF4D77100F0CCFB81
S1135860C0E901440460C460D6F82480D8F8084034
S11358704CB940F271213046FFF712FF0023C8F8FB
S11358800800044603604FF00009EB070AD53946C7
S113589022463046FFF71AFF394680463046FFF766
S11358A047FE47466D100BD0206838B92246214682
S11358B03046FFF70BFF2060C0F800900446E4E791
S11358C03846BDE8F88300BF88780000757600008C
S11358D01A7700002DE9F0470C464968236903EB69
S11358E06218A368074691464FEA621A08F1010656
S11358F0B3420BDB3846FFF7DBFD054648B90246E9
S11359002A4B2B4840F2D91100F076FB01315B00A1
S1135910EEE7002300F1140100F11002184653458C
S113592037DB20692AEAEA7A04F1140319F01F0923
S113593001EB8A0103EB80002FD0C9F1200E8A46C7
S11359404FF0000C1A6802FA09F242EA0C024AF813
S1135950042B53F8042B984222FA0EFCF2D8031BB2
S1135960153B23F00303043304F11502904238BFBE
S1135970042341F803C0BCF1000F01D008F1020672
S1135980013E38462E612146FFF7D2FD2846BDE888
S1135990F08742F8040F0133C1E7043953F8042BAC
S11359A041F8042F9842F9D8EAE700BF09770000CC
S11359B01A77000030B502690C69121B0ED100F190
S11359C01403143103EB840001EB840150F8045DEB
S11359D051F8044DA54203D005D30122104630BD31
S11359E08342F3D3FAE74FF0FF32F7E72DE9F84F9C
S11359F00C460646114620469046FFF7DBFF051E7F
S1135A0010D129463046FFF753FD30B93A4B0246D0
S1135A1040F23221394800F0EFFA0123C0E904359D
S1135A20BDE8F88FA4BF4346A0463046D8F804101A
S1135A30A6BF1C4600250125FFF73AFD20B92E4BD1
S1135A4002464FF41071E5E7D8F810702669C56076
S1135A5004F1140908F1140500F1140E05EB870C88
S1135A6009EB860608F11002F246002159F8043BBE
S1135A7052F804BF1FFA83F811FA8BF11B0CA1EB47
S1135A800808C3EB1B4303EB28431FFA88F81914D7
S1135A904E4548EA03434AF8043BE7D8331B153B19
S1135AA023F0030304331534A64238BF04231D44F2
S1135AB073449E462E4666450ED30CF10302521BD8
S1135AC022F00302033DAC4538BF00221A4452F8C9
S1135AD0043D7BB10761A3E756F8048B11FA88F201
S1135AE0141404EB184492B242EA04424EF8042B14
S1135AF02114E0E7013FEAE7097700001A77000084
S1135B002DE9F7430121DDE90A7690469946FFF72E
S1135B10CFFC044630B90246244B254840F20A31F2
S1135B2000F06AFAC9F30A55C9F313032DBBB8F19F
S1135B300002019326D068460092FFF781FD009988
S1135B40F0B1019AC0F1200302FA03F30B43C240FF
S1135B5063610192019BA361002B14BF0222012205
S1135B602261C5B1A5F2334505443D60C0F135005D
S1135B703060204603B0BDE8F08343F48013D6E7D9
S1135B806161E7E701A8FFF75BFD019B6361012207
S1135B9022612030E5E704EB8203A0F23240386052
S1135BA01869FFF72DFDC0EB4210E1E7097700000B
S1135BB01A77000013B54A431146019200F056F8D3
S1135BC0044618B1019A0021FEF7F6F8204602B007
S1135BD010BD000037B5002944D051F8043C0190B1
S1135BE0002BA1F10404B8BFE41800F061FA1E4AC6
S1135BF00198136833B96360146003B0BDE83040A2
S1135C0000F05CBAA34208D9256861198B4201BF30
S1135C1019685B6849192160EDE71A465B680BB1A6
S1135C20A342FAD911685518A5420BD1246821441E
S1135C305418A3421160E0D11C685B68536021448E
S1135C401160DAE702D90C230360D6E725686119ED
S1135C508B4204BF19685B68636004BF4919216003
S1135C605460CAE703B030BD10130020F8B5CD1C52
S1135C7025F0030508350C2D38BF0C25002D0646EC
S1135C8001DBA94203D90C2333600020F8BD00F0E6
S1135C900FFA21490A6814469CB9204F3B6823B97E
S1135CA02146304600F098F938602946304600F025
S1135CB093F9431C23D10C233360304600F0FEF9E2
S1135CC0E3E723685B1B17D40B2B03D923601C4425
S1135CD0256004E06368A2420CBF0B605360304649
