S01C000057535F323337305F5453325F554152545F4C6162362E7333378C
S113000000100020C90100001102000011020000CC
S11300101102000011020000110200001102000090
S11300201102000011020000110200001102000080
S11300301102000011020000110200001102000070
S11300401102000011020000110200001102000060
S11300501102000011020000110200001102000050
S11300601102000011020000110200001102000040
S11300701102000011020000110200001102000030
S113008011020000F95300001102000011020000E7
S11300901102000011020000355900001102000095
S11300A0110200001102000011020000DD540000E2
S11300B01102000011020000614000001102000062
S11300C011020000110200001102000011020000E0
S11300D011020000110200001102000011020000D0
S11300E011020000110200008553000011020000FB
S11300F011020000110200001102000011020000B0
S113010011020000110200001102000010B5054C9C
S1130110237833B9044B13B10448AFF300800123AF
S1130120237010BDA010002000000000C067000074
S113013008B5034B1BB103490348AFF3008008BD66
S113014000000000A4100020C0670000A3F5803A5E
S1130150704700BF174B002B08BF134B9D46FFF79A
S1130160F5FF00218B460F461348144A121A05F076
S113017015FE0E4B002B00D098470D4B002B00D0E2
S113018098470020002104000D000D48002802D0EB
S11301900C48AFF3008005F0DDFD2000290005F0D8
S11301A02FFD05F0C3FD00BF0000080000000000A3
S11301B00000000000100020A010002064110020A6
S11301C0000000000000000000B585B000F08AF8CF
S11301D00C4B03930C4B02930B4B01930B4B00936F
S11301E00AE0039A131D0393029B191D02911268DE
S11301F01A60019B04330193019A009B9A42F0D345
S1130200FFF7A8FFC867000000100020A01000201E
S1130210FEE7000000B583B000F020F801900A4B1F
S1130220D3F808311B0AC3F308030093009B01337E
S1130230019AB2FBF3F30193044A019B1360019BFF
S1130240184603B05DF804FB00400E40081000207F
S1130250014B1846704700BF00F0490282B01A4BA8
S1130260D3F8943003F00703023B032B1BD801A2FD
S113027052F823F0950200008D0200008502000070
S11302809D020000114B1B68019310E04FF40043E2
S113029001930CE00E4B1B68019308E00D4B1B68A7
S11302A05B08019303E00B4B1B68019300BF064BF3
S11302B0D3F800311B0A03F01F030133019AB2FB88
S11302C0F3F3184602B0704700400E4004100020BB
S11302D0001000200C100020014B1B6818467047CA
S11302E000100020064B074A9A60054BD3F888306B
S11302F0034A43F47003C2F8883000BF704700BF5C
S113030000ED00E0000000004FF400431846704781
S11303104FF47A7318467047014B1B6818467047B0
S11303200410002082B001900091FEE700B583B074
S11303300190019B1F2B04D940F22F110548FFF7B0
S1130340F1FF0122019B02FA03F3184603B05DF8A2
S113035004FB00BF005E000000B587B0039002916B
S11303600192029B1F2B03D991210A48FFF7DAFF60
S1130370039B03F1424303F58013DA00029B134409
S11303809B000593059B019A1A6000BF07B05DF8B6
S113039004FB00BF685E000084B001900091019BE3
S11303A003F1424303F58013DA00009B13449B00DE
S11303B00393039B1B68184604B07047054B1B68E6
S11303C003F04003002B01D1012300E00023184671
S11303D0704700BF3C300E4008B5FFF7EFFF0346FF
S11303E083F00103DBB2002B08D100BF12210448C3
S11303F0FFF7D2FF0346002BF8D100E000BF08BD91
S113040004300E4008B5FFF7E7FF044B5B681B0C94
S113041003F00303DBB2184608BD00BF00300E40F2
S113042000B585B0019001230393019B124A9342C6
S113043004D8002303930023029308E0019B0F4A8E
S1130440934202D80123029301E002230293039A08
S113045010210B48FFF780FF094BD3F8003123F03C
S11304608072029B1B0606491343C1F8003100BF8A
S113047005B05DF804FB00BF0048E8010090D0031C
S113048000400E4082B0034B1B680193019B184649
S113049002B070471010002000B583B0FFF7DEFEF5
S11304A00190074BD3F800311B0A03F01F030133FB
S11304B0019A02FB03F3184603B05DF804FB00BF86
S11304C000400E4000B583B0104800F081FC0346A4
S11304D08DF803309DF80330072B05D0092B07D185
S11304E0FFF7BCFE01900BE0FFF7CCFF019007E0A3
S11304F0002301934FF493510548FFF713FF00BF06
S1130500019B184603B05DF804FB00BF06000E0013
S1130510305F000000B585B00190019B002B1FD116
S1130520214800F055FC03468DF80B3000BF9DF8C0
S11305300B30013B072B29D801A252F823F000BF4E
S11305406F0500008D0500008D0500007D0500008D
S11305508D0500008D05000075050000850500006F
S11305604FF494511148FFF7DDFE002317E00023F8
S1130570039313E0FFF786FF03900FE0FFF7ACFE51
S113058003900BE0FFF788FF039007E00023039339
S113059041F297210548FFF7C5FE00BF039B1846AB
S11305A005B05DF804FB00BFB8003200305F000006
S11305B000B585B0019000911F4B5B6803F0407358
S11305C003930023029312E01C4A029BDB001344B2
S11305D01A79009BDBB29A4206D1184A029B52F860
S11305E03330019A9A4206D9029B01330293029B4B
S11305F0042BE9D900E000BF029B052B07D103239C
S1130600039341F29E310E48FFF78CFE05E00B4A3E
S1130610029BDB0013445B790393039B1B06039348
S1130620054B5B6823F040720349039B13434B6003
S113063000BF05B05DF804FB00000E40945F0000AD
S1130640305F000000B583B00E4B1B6C002B14BF51
S1130650012300238DF807300A4B41F671321A64E6
S1130660FFF7F6FD034600211846FFF7A1FF9DF8AA
S11306700730002B02D0034B00221A6400BF03B0E2
S11306805DF804FB00000E4000B585B001900091B8
S11306900D4B1B6C002B14BF012300238DF80F306E
S11306A0094B41F671321A6400990198FFF780FFF3
S11306B09DF80F30002B02D0034B00221A6400BFB8
S11306C005B05DF804FB00BF00000E4086B0019049
S11306D00F230593019B03330493059B0393039A10
S11306E0049B934228BF13460293029B1B07029369
S11306F0029B184606B07047034B5B6A1B0903F064
S113070003031846704700BF00400E4082B00190BA
S1130710054B5B6A23F03002019B1B010249134322
S11307204B6200BF02B0704700400E4010B584B069
S1130730019000230293019B424A934211D0019BF2
S1130740404A934207D8019B3F4A934209D0019BF8
S11307503E4A934205D041F29E413D48FFF7E2FDF7
S113076000E000BF019800F033FB03460393019BB4
S1130770344A93421AD0019B324A93421DD8019BBA
S1130780314A934204D0019B304A934207D014E08B
S1130790304BD3F8803003F00703039313E02D4B61
S11307A0D3F8843003F0070303930CE0294BD3F808
S11307B0883003F00703039305E041F2CD41244858
S11307C0FFF7B0FD00BF039B042B2ED801A252F803
S11307D023F000BF25080000E9070000F10700002E
S11307E001080000F9070000FFF78EFD029024E0E5
S11307F0FFF792FD029020E0FFF78AFD02901CE0D3
S1130800FFF72CFD0446134BD3F800311B0E03F005
S1130810010301331846FFF789FD0346B4FBF3F3E4
S113082002930AE00023029307E00023029341F2BB
S11308301F510748FFF776FD00BF029B184604B01E
S113084010BD00BF0500240002001E0003002000AC
S1130850305F000000400E4082B00190094BD3F895
S1130860443103F00103002B08D100BF054BD3F83A
S11308704021019B1340002BF8D100E000BF02B0DF
S1130880704700BF00400E4000BF704700BF704774
S113089000B583B00190019800F0BAF90346013322
S11308A0184603B05DF804FB00B587B001900B4611
S11308B08DF8033000230493019B1B0A03F00F03FC
S11308C0013B092B32D801A252F823F0F5080000AD
S11308D0010900002D0900002D090000FB0800009B
S11308E007090000110900002D0900001B09000080
S11308F0270900001B4B05931EE01B4B05931BE0CF
S11309001A4B059318E01A4B05930123049313E043
S1130910184B0593102304930EE0174B05934FF4E3
S11309208033049308E0154B059305E041F63B1131
S11309301348FFF7F7FC11E0019B1B0B03F01F03A7
S11309400393049B002B02D00498FFF785FF9DF8C6
S113095003301A4603990598FFF7FEFC07B05DF8CB
S113096004FB00BF00400E40B0400E40C0400E40AB
S1130970E0400E40E8400E40F0400E4050410E4032
S1130980305F000010B584B00190019B03F478132C
S1130990B3F5781F00F01B81B3F5781F00F22281B4
S11309A0B3F5481F00F00E81B3F5481F00F21A8119
S11309B0B3F5401F00F0E580B3F5401F00F212814B
S11309C0B3F5381F00F0B680B3F5381F00F20A8182
S11309D0B3F5101F00F0E980B3F5101F00F2028197
S11309E0B3F5001F00F0B580B3F5001F00F2FA80E4
S11309F0B3F5F01F79D0B3F5F01F00F2F380B3F52F
S1130A00D01F00F0AB80B3F5D01F00F2EB80B3F53C
S1130A10B01F7DD0B3F5B01F00F2E480B3F5A01F82
S1130A2068D0B3F5A01F00F2DD80B3F5801F00F09D
S1130A30C580B3F5801F00F2D580B3F5602F00F0B8
S1130A40B980B3F5602F00F2CD80B3F5402F3DD0CF
S1130A50B3F5402F00F2C680B3F5202F23D0B3F5B1
S1130A60202F00F2BF80B3F5802F0DD0B3F5802F77
S1130A7000F2B880002B03D0B3F5003F17D0B1E0EB
S1130A80FFF7ECFB0390B5E0FFF7E8FB03905B4B4B
S1130A90D3F80C311B0AC3F308030133039AB2FBE6
S1130AA0F3F30393A6E0FFF7D9FB0390A2E0FFF76B
S1130AB0D5FB0390514BD3F808311B0AC3F3080349
S1130AC00133039AB2FBF3F3039393E0FFF7C6FBFE
S1130AD003904A4BD3F814311B0A03F01F0301336C
S1130AE0039AB2FBF3F3039384E04548FFF71EFE39
S1130AF003907FE04348FFF719FE03903F4BD3F880
S1130B00303103F00303039A22FA03F3039371E0F1
S1130B103B48FFF70BFE0390384BD3F8203103F02A
S1130B200F031846FFF702FC0246039BB3FBF2F3E4
S1130B3003935FE03248FFF7F9FD03902F4BD3F89E
S1130B4020311B0903F00303039A22FA03F30393EE
S1130B5050E02D48FFF7EAFD03904BE02A48FFF7E9
S1130B60E5FD0390254BD3F828311B0903F003035B
S1130B701846FFF7DBFB0246039BB3FBF2F3039338
S1130B8038E02148FFF7D2FD03901C4BD3F82831FD
S1130B901B0A03F0030304331846FFF7C7FB02469E
S1130BA0039BB3FBF2F3039324E01648FFF7BEFD67
S1130BB003901FE0FFF786FC03901BE0FFF762FC45
S1130BC0039017E00020FFF7A5FC039012E0FFF765
S1130BD045FB04460198FFF75BFE0346B4FBF3F3C1
S1130BE0039307E00023039341F66B210748FFF7C3
S1130BF099FB00BF039B184604B010BD00400E4093
S1130C0002001E000500240003002000305F0000E5
S1130C1000B585B00190019B1B0903F00F030293FB
S1130C20029B013B092B00F2B88001A252F823F089
S1130C30590C0000690C0000790C0000990C0000AC
S1130C409B0D00009B0D0000A90C0000B90C0000D6
S1130C50130D0000730D0000564BD3F800311B0A2E
S1130C6003F01F030393A0E0524BD3F814311B0A83
S1130C7003F01F03039398E04E4BD3F800311B0E8F
S1130C8003F001030393039B01331846FFF74EFB64
S1130C900346013B039388E0464BD3F80C311B0A0F
S1130CA0C3F30803039380E0424BD3F808311B0AD3
S1130CB0C3F30803039378E0019B3F4A934204D0B3
S1130CC0019B3E4A93420DD01AE03A4BD3F82031AF
S1130CD003F00F0303930398FFF728FB0346013B3C
S1130CE0039315E0334BD3F820311B0903F00303BE
S1130CF003930398FFF71AFB0346013B039307E0B2
S1130D000023039341F6DF212D48FFF70BFB00BFBF
S1130D104BE0019B2B4A934204D0019B2A4A934205
S1130D200ED01DE0234BD3F828311B0903F0030335
S1130D3003930398FFF7FAFA0346013B039317E082
S1130D401C4BD3F828311B0A03F003030393039BC2
S1130D5004331846FFF7EAFA0346013B039307E01E
S1130D600023039341F603311548FFF7DBFA00BF74
S1130D701BE0019B154A934206D10E4BD3F8303148
S1130D8003F00303039307E00023039341F61231B6
S1130D900B48FFF7C7FA00BF07E00023039341F6AF
S1130DA037310748FFF7BEFA00BF039B184605B06A
S1130DB05DF804FB00400E408006160080162E00ED
S1130DC0305F000090171A0090273000A00914002B
S1130DD000B585B0019001238DF80F30019B03F01D
S1130DE00F030293029B013B072B00F2E78001A251
S1130DF052F823F0150E0000770E0000B50E000027
S1130E00BD0F0000070F0000450F0000BD0F0000DC
S1130E106F0F0000714BD3F8943003F00703023BCB
S1130E20052B23D801A252F823F000BF550E000071
S1130E304D0E0000450E00005D0E00006D0E00001A
S1130E40650E000002238DF80F3013E003238DF8A4
S1130E500F300FE004238DF80F300BE00B238DF8D7
S1130E600F3007E00C238DF80F3003E005238DF8D5
S1130E700F3000BFABE0594BD3F8803003F00703C9
S1130E80042B0ED0042B10D8012B02D0022B04D03B
S1130E900BE003238DF80F300BE002238DF80F30A5
S1130EA007E00A238DF80F3003E001238DF80F309B
S1130EB000BF8CE0494BD3F8843003F00703013BB7
S1130EC0032B1BD801A252F823F000BFDD0E000053
S1130ED0E50E0000F50E0000ED0E000003238DF872
S1130EE00F300FE002238DF80F300BE00A238DF84A
S1130EF00F3007E006238DF80F3003E001238DF84F
S1130F000F3000BF63E0354BD3F8883003F007039C
S1130F10042B0ED0042B10D8012B02D0022B04D0AA
S1130F200BE003238DF80F300BE002238DF80F3014
S1130F3007E00A238DF80F3003E001238DF80F300A
S1130F4000BF44E0254B1B6F03F00103002B05D0C9
S1130F50012B07D109238DF80F3007E007238DF803
S1130F600F3003E001238DF80F3000BF2FE01B4B3F
S1130F70D3F85C3103F03003302B16D0302B18D863
S1130F80202B0ED0202B14D8002B02D0102B04D0F1
S1130F900FE001238DF80F300FE007238DF80F3099
S1130FA00BE004238DF80F3007E008238DF80F3091
S1130FB003E001238DF80F3000BF08E000238DF813
S1130FC00F3041F68B610648FFF7ACF900BF9DF87E
S1130FD00F30184605B05DF804FB00BF00400E401A
S1130FE0305F000000B58BB001900B468DF80330E4
S1130FF00323099303238DF823300023069300234E
S11310000593019B112B1BD19DF80330042B03D1B5
S1131010FFF762F905900CE09DF80330052B08D129
S113102000F010FA0346BD4A934202D900F00AFACE
S11310300590059B002B03D00021059801F040F892
S1131040019B03F00F030493049B013B072B00F265
S11310505B8101A252F823F0791000008311000093
S1131060B911000009130000991100005D1200007D
S113107009130000891200009DF80330023B0A2B7B
S113108048D801A252F823F0B5100000C1100000A6
S1131090CD100000DF100000151100001511000034
S11310A0151100001511000009110000F1100000D5
S11310B0FD1000000423099300238DF823302FE052
S11310C00323099301238DF8233029E00223099394
S11310D002238DF823309248FFF7A2F920E0012380
S11310E0099303238DF823308D48FFF799F917E00E
S11310F00523099303238DF8233011E00723099373
S113110006238DF823300BE041F64C718548FFF738
S113111009F9FFE041F651718248FFF703F9F9E05C
S11311209DF82330062B06D09DF82330012201219F
S1131130184600F0CFFAFFF785FAFFF7A5FB059BE9
S1131140002B01D0FFF748F9774A099B5367FFF753
S113115061F80390FFF782F803461846FFF760F939
S1131160FFF750F9034619460398FFF78DFA059BDC
S1131170002B03D10121002000F0A2FFFFF786FB22
S1131180C8E06A4B06939DF80330062B04D141F660
S113119090716448FFF7C6F8069B002B01D0069BAC
S11311A000E0634B06939DF80330062B04D14FF403
S11311B0FD515C48FFF7B6F8069B002B01D0069B57
S11311C000E05C4B06939DF80330013B092B3BD8B0
S11311D001A252F823F000BF011200000712000020
S11311E017120000491200004912000027120000E3
S11311F04912000049120000491200004312000085
S11312000023079326E001220121002000F062FA66
S1131210022307931EE001220121012000F05AFA63
S11312200123079316E0FFF719F803461846FFF762
S1131230F7F8012202214048FFF78EF803230793B1
S113124008E00423079305E041F6CB713548FFF726
S113125069F85FE0069B079A1A605BE09DF803302B
S1131260072B02D0092B04D007E02F4B00221A676A
S113127009E02D4B01221A6705E042F25501294885
S1131280FFF750F846E045E09DF80330013B072B9B
S113129028D801A252F823F0B9120000E512000088
S11312A0E5120000CF120000E5120000E512000074
S11312B0BF120000DF1200000023079318E0012290
S11312C00121042000F006FA0123079310E0012213
S11312D00121022000F0FEF90223079308E0032312
S11312E0079305E042F2B3010E48FFF71BF811E043
S11312F00D4BD3F85C3123F03002079B1B010A49E4
S11313001343C1F85C3105E042F28A110548FFF746
S113131009F800BF0BB05DF804FB00BF002D3101DC
S11313200148E801305F000000400E4080400E405C
S113133088400E4084400E40B0400E4082B0019080
S1131340019B354A93425FD0019B334A93425FD855
S1131350019B324A934253D0019B304A934257D85F
S1131360019B2F4A934247D0019B2D4A93424FD869
S1131370019B2C4A93423BD0019B2A4A934247D873
S1131380019B294A93422FD0019B274A93423FD87D
S1131390019B264A934223D0019B244A934237D887
S11313A0019B234A934217D0019B214A93422FD891
S11313B0019B204A93420BD0019B1E4A934227D89B
S11313C0019B1D4A934203D0019B1C4A93421FD1A7
S11313D01B4BD3F880301CE0194BD3F88C3018E049
S11313E0174BD3F8983014E0154BD3F89C3010E029
S11313F0134BD3F8A0300CE0114BD3F8A83008E01D
S11314000F4BD3F8AC3004E00D4BD3F8B03000E010
S11314100023184602B0704780D543020048E80113
S113142080BA8C01C0EA21010024F400405DC600AA
S1131430C0CF6A0000093D0040420F0080841E00B6
S1131440B081E00F014B1B68184670470C10002058
S113145000B587B001900198FFF770FF0590059BD8
S1131460002B03D0059BB3F1FF3F04D142F2553169
S11314705148FEF757FF514B1B6804934F4A019B99
S113148013601120FFF7A4FC0346052B03D1FFF7DB
S1131490D9F8FFF7F9F900BF18214948FEF77CFF96
S11314A00346002BF8D1059BB3F1FF3F04D142F270
S11314B066314148FEF736FF019B424A93421AD0F7
S11314C0019B404A93421BD8019B3F4A934204D05C
S11314D0019B3E4A934207D012E0059B23F0C06370
S11314E043F0806305930CE0059B23F0C06343F055
S11314F00073059305E0059B23F0C063059300E0AA
S113150000BF1120FFF764FC0346052B02D10198AC
S1131510FEF786FF019A049B9A4203D901210198A0
S113152000F0CEFD2A4A059B13611120FFF750FC01
S11315300346052B26D1FEF76DFE0390039A019B0B
S11315409A4204D942F292311B48FEF7EBFE1B4B40
S11315501B68039A9A4204D942F293311648FEF763
S1131560E1FE164B1B68019A9A4204D042F2943170
S11315701148FEF7D7FEFEF745FF034619460398C8
S1131580FFF782F8FEF76AFE03461846FEF748FFA7
S1131590019A049B9A4203D80121002000F090FD97
S11315A01120FFF715FC0346052B01D1FFF76EF957
S11315B000BF07B05DF804FB305F00000C10002092
S11315C040410E4000093D0040420F0080841E004F
S11315D000400E4010B584B001901120FFF7F8FBD5
S11315E00346042B04D142F273413748FEF79AFEB6
S11315F001220021022000F06DF8019B5B78002B92
S113160007D1019B9B78002B03D1019BDB78002B36
S113161004D042F2AF412C48FEF784FE002303932A
S1131620019B1B7C012B04D142F2B6412648FEF7F4
S113163079FE019B1B7C022B01D101230393234BD5
S11316405B6A23F001022149039B13434B62019B14
S11316501B781A4608211E48FEF77EFE019B9B88D4
S1131660DB02019A527A1146184A0B43D362174B94
S11316701B6B03F07F62019BDB88DB021343019A3F
S1131680927A1A43019B1B7ADB0142EA0304019B11
S11316901B7A1846FFF71AF803460C4A23431363D0
S11316A0019B5B7B1A03019B9B7B1B011343019AE8
S11316B0D27B1A43019B1B7B1B04044913434B63DA
S11316C000BF04B010BD00BF305F000000400E40FA
S11316D024400E4000B589B003468DF807300B4610
S11316E08DF8063013468DF805309DF80730042B2D
S11316F03BD801A252F823F055170000431700000D
S11317001F1700000D170000311700000123059377
S11317100223049301230793002306932BE004235D
S1131720059308230493032307930223069322E0DB
S1131730102305932023049305230793042306937E
S113174019E040230593802304930723079306237A
S1131750069310E04FF4807305934FF400730493E1
S1131760092307930823069305E042F2D851494818
S1131770FEF7D8FD8BE09DF80630002B6AD00023DD
S11317808DF80F309DF80730022B1BD1FEF7B4FF04
S11317900346002B16D1404BDB6B03F48063002B14
S11317A004D142F2E7513B48FEF7BCFD01238DF81A
S11317B00F303A4B5B6A03F00103012B02D1012085
S11317C0FEF7A4FF354A059B136600BF069934480B
S11317D0FEF7E2FD0346002BF8D09DF80530002B00
S11317E055D000BF07992E48FEF7D6FD0346002BBF
S11317F0F8D09DF80730022B49D19DF80F30002B0B
S113180045D0264B5B6A03F00103012B05D101226D
S11318102021022000F090F903E00021022000F0D2
S11318202DF9022000F03EF802900122002102204E
S1131830FFF750FF0299022000F074F8174A059B45
S1131840136600BF07991648FEF7A6FD0346002B52
S1131850F8D01CE0114A049B136600BF0F4BD3F869
S113186090300121069A01FA02F21340002BF5D1BF
S11318709DF80530002B0AD000BF084BD3F89030F8
S11318800121079A01FA02F21340002BF5D109B0A5
S11318905DF804FB305F000000300E4000400E4055
S11318A090400E4000B585B003468DF807309DF892
S11318B00730013B032B24D801A252F823F000BFC8
S11318C0D1180000F5180000DD180000E918000028
S11318D0124B1B6AC3F3080303931AE00F4B1B69F3
S11318E003F07F03039314E00C4B9B6903F07F0325
S11318F003930EE0094BD3F89C30C3F30A0303931C
S113190007E00023039342F264610548FEF70AFDF1
S113191000BF039B184605B05DF804FB00400E4071
S1131920305F000000B585B0034600918DF80730A4
S11319309DF80730013B032B00F28D8001A252F881
S113194023F000BF55190000091A00009519000082
S1131950CF190000009BB3F5007F04D342F28961E4
S11319604248FEF7DFFC009BC3F30803009300BF6B
S11319701A213F48FEF710FD0346002BF8D13D4BDA
S11319801B6A23F4FF7323F001033A49009A1343BB
S11319900B6266E0009B7F2B04D942F296613348C8
S11319A0FEF7C0FC009B03F07F03009300BF1821E7
S11319B02F48FEF7F1FC0346002BF8D12D4B1B6991
S11319C023F07F022B49009B13430B6149E0009BEA
S11319D07F2B04D942F2B1612448FEF7A3FC009B9B
S11319E003F07F03009300BF19212148FEF7D4FCC4
S11319F00346002BF8D11F4B9B6923F07F021D493E
S1131A00009B13438B612CE01A4BD3F8903003F006
S1131A100403002B04D042F2C1611448FEF782FC97
S1131A20144B5B6A23F03003124A43F010035362F1
S1131A30009BDB0903F00F031846FEF747FE0390F3
S1131A400C4B1A6B0C4B1340009A1A430949039B25
S1131A5013430B6305E042F2DB610448FEF762FCCA
S1131A6000BF00BF05B05DF804FB00BF305F00009D
S1131A7040410E4000400E4000F8FF0F00B585B015
S1131A8003460A468DF8073013468DF806309DF854
S1131A900730022B04D042F2F3612448FEF742FCE3
S1131AA0FEF72AFE0346002B03D14FF440030393B1
S1131AB01DE09DF80630302B0DD0302B0FDC002BB1
S1131AC005D0202B0BD14FF4000303930FE04FF408
S1131AD0400303930BE04FF44003039307E0144BDC
S1131AE0039342F20E711148FEF71CFC00BF00BFC5
S1131AF0104BD3F89020039B1340039A9A42F7D1DA
S1131B00039B03F48003002B0AD00A4BD3F8A030C4
S1131B1003F48063002B14BF01230023DBB200E035
S1131B200123184605B05DF804FB00BF305F0000D8
S1131B30FF33E10700400E4000B583B003468DF843
S1131B4007300B468DF8063013468DF805309DF8A6
S1131B500730022B1AD19DF80630002B08D0114B08
S1131B604FF48062C3F8A8200E4A9DF806305366ED
S1131B709DF80530002B0FD09DF806209DF8073006
S1131B8011461846FFF77AFF034607E042F2447114
S1131B900548FEF7C7FB00E000BF0123184603B069
S1131BA05DF804FB00400E40305F000082B0EFF3AC
S1131BB010830093009B019372B600BF019B1846EB
S1131BC002B0704782B00190019B002B01D162B634
S1131BD000BF00BF02B0704784B0EFF311830193DC
S1131BE0019B039360230293029B83F3118800BF3C
S1131BF0039B184604B0704784B00190019B039383
S1131C00039B83F3118800BF00BF04B0704708B57D
S1131C10FEF700FB00BF08BD00B587B0039002913A
S1131C200192029B1F2B03D991210A48FEF77AFBEC
S1131C30039B03F1424303F58013DA00029B134430
S1131C409B000593059B019A1A6000BF07B05DF8DD
S1131C5004FB00BFBC5F000084B001900091019BB5
S1131C6003F1424303F58013DA00009B13449B0005
S1131C700393039B1B68184604B07047054B1B680D
S1131C8003F04003002B01D1012300E00023184698
S1131C90704700BF3C300E4008B5FFF7EFFF034626
S1131CA083F00103DBB2002B08D100BF12210448EA
S1131CB0FFF7D2FF0346002BF8D100E000BF08BDB8
S1131CC004300E4008B5FFF7E7FF044B5B681B0CBC
S1131CD003F00303DBB2184608BD00BF00300E401A
S1131CE082B00190024A019BD36200BF02B07047E8
S1131CF000300E40014B5B6A1846704700300E40BE
S1131D00024B00225A6300BF704700BF00300E40F0
S1131D10024B4AF6E8525A6300BF704700300E4047
S1131D20024B0022C3F8802100BF704700400E40E0
S1131D30034B45F60E02C3F8802100BF704700BF75
S1131D4000400E4082B003468DF807309DF80730FE
S1131D50C3F10203102202FA03F3184602B07047DB
S1131D6010B584B003468DF807309DF80730002B7A
S1131D701BD14A4BD3F89030494A13601120FFF726
S1131D8027F803461A46474B1A70FFF785FF464B60
S1131D905B681B0CDBB203F00303DAB2434B1A702B
S1131DA03E4B1B69424A136075E0FFF767FF034629
S1131DB0002B07D03D4B1B783B4C1846FFF7C2FF66
S1131DC003462361354BD3F8803103F001030393B9
S1131DD0FFF7AEFF00230293314B1B6803F00103AE
S1131DE0029A134302932E4B1B6803F01003029ACA
S1131DF0134302932A4B1B6803F04003029A1343D4
S1131E000293274B1B6803F00403029A13430293C3
S1131E10234B1B6803F48073029A134302931F4AF3
S1131E20029B1366FFF738FF1F4B1B6803F0100378
S1131E30002B18D000BF194BD3F8403103F0807346
S1131E40002BF8D1154A1A4B1B681361154B1B78EC
S1131E50052B08D1174B1C68FFF734FF03461946BE
S1131E602046FEF711FC0F4B1B78052B05D00D4BBC
S1131E701B7819461120FFF7B5F8094B1B6803F0CE
S1131E800103002B02D1054B02221A66039B002B8F
S1131E9001D0FFF745FF00BF04B010BD00400E4065
S1131EA0C8100020CC10002000300E40CD100020BF
S1131EB0D01000200C10002000B583B0FFF7DEFE28
S1131EC0034683F00103DBB2002B1FD1FFF7E4FECE
S1131ED0104B1B681B0A03F0030301930D4B5B6853
S1131EE01B0C03F003030093019A009B9A4206D94A
S1131EF0084B1B68074A43F01003136007E0054BC7
S1131F001B68044A23F01003136000E000BF03B011
S1131F105DF804FB00300E4082B00A4B1B6803F0EE
S1131F201003002B0BD0084B1B691B0C03F01F0381
S1131F300193019B082B02D1044B054A1A6000BF90
S1131F4002B0704700300E4000400E400C100020DC
S1131F50C0EA210100BF704700BF704700BF70474F
S1131F6000BF704700B585B003468DF807309DF873
S1131F700730002B02D00020FFF7F2FEFFF79CFF92
S1131F801D4B1B691C4A43F004031361FFF7E2FF76
S1131F90FFF7E2FF194B1B6803F01003002B08D076
S1131FA0FFF704FE039003F027FF0398FFF70AFEF0
S1131FB000E030BFFFF7D4FFFFF7D0FF9DF80730F4
S1131FC0002B03D00120FFF7CBFE01E0FFF7A4FFB5
S1131FD00B4B1B680A4A23F0004313609DF807303B
S1131FE083F00103DBB2002B01D0FFF710FE00BF2A
S1131FF005B05DF804FB00BF00ED00E000300E40CA
S11320004C310E4000B585B003468DF807309DF87D
S11320100730002B02D00020FFF7A2FEFFF74CFF91
S1132020234BD3F8803103F001030393FFF780FEC1
S11320301F4B4FF420721A66039B002B01D0FFF74D
S11320406FFE1C4B1B691B4A43F004031361FFF72B
S113205081FF194B1B6803F01003002B08D0FFF716
S1132060A5FD029003F0C8FE0298FFF7ABFD00E067
S113207030BFFFF773FF9DF80730002B03D001201A
S1132080FFF76EFE01E0FFF747FF0C4B1B680B4A9E
S113209023F0004313609DF8073083F00103DBB2A3
S11320A0002B01D0FFF7B3FD00BF05B05DF804FBC2
S11320B000400E4000ED00E000300E404C310E4078
S11320C000B585B001900B468DF80330FFF7D6FDBF
S11320D0034683F00103DBB2002B2AD1019B002BC2
S11320E00FD1164BD3F800311B0A03F01F03013341
S11320F00293FEF7B3F80246029B02FB03F3039339
S113210001E0019B03930E4B1B78002B0AD0039B29
S11321100C4A934206D89DF803301946022000F079
S113212013F807E09DF803301946002000F00CF87E
S113213000E000BF05B05DF804FB00BF00400E40A6
S1132140C4100020002D310110B586B003460A46A4
S11321508DF8073013468DF80630FFF78FFD0346E0
S113216083F00103DBB2002B3FD1FFF7ABFD034645
S11321701A469DF80730934239D01E4BD3F80031EC
S11321801B0A03F01F0301330593FEF767F804905D
S1132190049B059A02FB03F303939DF80730022B7B
S11321A00CD1039B144A934204D940F23161134881
S11321B0FEF7B8F802210498FEF766FA104C9DF871
S11321C007301846FFF7BEFD034623619DF806302D
S11321D0002B01D0FFF760FD9DF80730002B07D1DD
S11321E000210498FEF750FA02E000BF00E000BFAF
S11321F006B010BD00400E40002D310120600000EB
S113220000300E4000B583B001900E4B1B6823F4E0
S11322104072019B5B781B020A4913430B60019BCC
S11322205B78022B0AD1084B5B6A03F00053002B46
S113223004D040F26D610548FEF774F800BF03B0A6
S11322405DF804FB00300E4000400E4020600000AA
S1132250012318467047000000B583B00C4BDB6EB9
S11322600B4A43F08073D36600210A48FFF7F4FC5D
S11322700190019B002B03D0042000F075FD02E0C7
S1132280002000F071FD00BF03B05DF804FB00BF47
S113229000300E404C300E4000B58BB00123099342
S11322A0099B1B050893424BDB6C1B0A03F00F03CD
S11322B00793404B1B881A463E4B1B8828335B0808
S11322C0134403F12801079B5A1C13469B00134433
S11322D0B1FBF3F3013B0693069B05930723049399
S11322E0049A059B934228BF13460693069B1B063C
S11322F00693069B23F0E063002B04D040F689018B
S11323002D48FEF70FF8089B23F4E003002B04D0BC
S113231040F68A012848FEF705F8254BDB6C23F0CC
S1132320EE620699089B0B4321491343CB64234B6C
S1132330B3F90030002B36DB204BB3F90030ADF895
S11323400E30BDF80E20BDF80E3028335B08134460
S113235003F12802079B01335900079B01335B08F3
S11323600B44B2FBF3F30293029B01930723009304
S1132370009A019B934228BF13460293029B1B01C0
S11323800293029B23F07003002B04D040F6A201B9
S11323900948FDF7C7FF064B1B6D23F07002044983
S11323A0029B13430B6500BF0BB05DF804FB00BF39
S11323B000300E40BC10002020600000C01000203F
S11323C082B001900B46ADF80230019B9AB2044BE7
S11323D01A80044ABDF80230138000BF02B070476F
S11323E0BC100020C010002000B583B003468DF857
S11323F007309DF80730002B02D0012B04D007E0F2
S1132400084B094A9A6509E0064B084A9A6505E0B3
S113241040F6CE010648FDF785FF00BF00BF03B0BC
S11324205DF804FB00300E4077402057372110B789
S11324302060000000B585B003468DF807300B46D8
S11324408DF8063013468DF80530344BD3F88031BF
S113245003939DF80630032B1CD801A252F823F0F5
S11324607124000079240000832400008D240000DE
S1132470039BDBB2039314E0039B1B0ADBB20393BD
S11324800FE0039B1B0CDBB203930AE0039B1B0EC0
S1132490039306E040F612112148FDF743FF0023A1
S11324A038E09DF80530002B16D1039B1B030393E2
S11324B0039B23F47043002B06D040F61D111848EB
S11324C0FDF730FF002325E0164BDB6E23F470424A
S11324D01449039B1343CB669DF80530012B18D197
S11324E0039B1B030393039B23F47043002B06D02D
S11324F040F629110A48FDF715FF00230AE0094BAD
S1132500D3F8EC3023F470420649039B1343C1F81B
S1132510EC300123184605B05DF804FBB081E00FF0
S11325202060000000300E4000B589B00390029195
S113253011461A460B468DF8073013468DF80630BF
S113254000230793002306939DF806301B029DF891
S11325500720002A01D0012200E000221343059342
S1132560059B40F2013293425CD0059B40F201325C
S1132570934200F29380059BB3F5407F00F0828084
S1132580059BB3F5407F00F28980059B40F2012250
S113259093423BD0059B40F2012293427ED8059B97
S11325A0B3F5007F62D0059BB3F5007F76D8059B19
S11325B040F2011293421DD0059BB3F5817F6DD289
S11325C0059BB3F5807F45D0059BB3F5807F65D827
S11325D0059B002B32D0059B012B5FD1374BD3F8E1
S11325E074310793079B1B0ADBB20693079BDBB28C
S11325F0079359E0314BD3F874310793079B1B0EB3
S11326000693079B1B0CDBB207934DE02B4BD3F8CF
S113261078310793079B1B0ADBB20693079BDBB257
S1132620079341E0254BD3F878310793079B1B0EA2
S11326300693079B1B0CDBB2079335E01F4BD3F8C3
S11326406C310793079B1B0ADBB20693079BDBB233
S1132650079329E0194BD3F86C310793079B1B0EA2
S11326600693079B1B0CDBB207931DE0134BD3F8B7
S113267070310793079B1B0ADBB20693079BDBB2FF
S1132680079311E00D4BD3F870310793079B1B0E92
S11326900693079B1B0CDBB2079305E040F68E11F3
S11326A00748FDF73FFE00BF039B079A1A60029B91
S11326B0069A1A6000BF09B05DF804FBB081E00F10
S11326C02060000000B585B003468DF80730424B0A
S11326D05B6B012B0CBF012300238DF80F30FFF738
S11326E017FB00BF3C4B9B6F03F00103002BF9D198
S11326F0394B1B6C03F003030293029B002B04D0A1
S113270001220D213548FFF787FA029BDBB29DF8C1
S113271007209A4209D19DF80730002B58D1002296
S11327200D212E48FFF778FA52E0029B032B02D0CA
S1132730029B002B22D19DF80730022B03D09DF879
S11327400730012B1AD14FF40020FFF7C9FA00BF5C
S1132750214B9B6F03F00103002BF9D11E4B1B6C23
S113276023F003031C4A43F00103136400BFFFF783
S1132770C1FA034603F40023002BF8D000BF164B24
S11327809B6F03F00103002BF9D1134B1B6C23F057
S113279003029DF80730104913430B6400BF0E4B2E
S11327A09B6F03F00103002BF9D19DF80730002B38
S11327B014BF01230023DBB21A460D210748FFF79B
S11327C02BFA9DF80F30002B03D0FFF799FA00E0A5
S11327D000BF05B05DF804FB00300E4054300E40DD
S11327E000B585B001906C4B02229A636A4B9B6BD7
S11327F003F00F03022B06D040F64B216748FDF788
S113280091FD0023C3E0FFF723FD019B1B89C82B27
S113281004D940F655216148FDF784FD019B9A884F
S1132820019B1B899A4204D940F656215B48FDF767
S113283079FD019BB3F90C30C82B04DD40F6572118
S11328405648FDF76FFD019B5B78012B09D1019B75
S11328509B88C82B12D940F65B215048FDF762FDD6
S11328600CE0019B5B78022B08D1019B9B880A2B0F
S113287004D94FF426614948FDF754FD019BDB88D8
S113288042F21072934204D940F668214348FDF79E
S113289049FD019BDB884A2B02D80023039315E0F2
S11328A0019BDB88B3F5FA7F03D24FF08053039387
S11328B00CE0019BDB8840F6C312934203D84FF02F
S11328C00053039302E04FF040530393324BDB6C0D
S11328D023F0405323F00103019AB2F90C20002A9B
S11328E001DB012100E00021039A0A432A49134332
S11328F0CB64294BD3F8EC30274A43F44073C2F835
S1132900EC30019B9A88264B1A80FFF7A5FC019BAB
S11329101B891A46019BB3F90C3019461046FFF780
S11329204FFD019B9B88184600F0ACF9019B9B7BF3
S11329301846FFF759FD019B5B88012201211846C7
S113294000F032F8034683F00103DBB2002B06D01B
S113295040F69F211148FDF7E5FC002317E00E4BDC
S1132960DB6B0D4A43F48063D363019B5B781846A9
S1132970FFF7A8FE019B9B7A202B01D1012300E0E5
S113298000231A4605210748FFF746F90123184694
S113299005B05DF804FB00BF00300E40206000006D
S11329A0BE1000203C300E4010B594B001900B4690
S11329B08DF8033013468DF802300023139300235F
S11329C0119309AB00221A605A609A6006AB002288
S11329D01A605A609A6003AB00221A605A609A60C7
S11329E0A44B1B88ADF8083000238DF80A30019BF6
S11329F0B3F5E16F06D3019B40F6B832934201D898
S1132A00012300E000238DF843309DF8433003F0A8
S1132A1001038DF843309DF8433083F00103DBB2AA
S1132A20002B06D040F6EE219348FDF77BFC0023F3
S1132A301DE1019BB3F5E16F8CBF012300238DF8E9
S1132A4042309DF84230002B0AD04FF4E1631393D7
S1132A5040F6B8331193119A139BD31A129309E0D9
S1132A604FF4966313934FF4E1631193119A139BFC
S1132A70D31A12939DF84230002B0BD07F4BD3F81E
S1132A8068310893089B1B0E0593089B1B0CDBB253
S1132A9008930AE0794BD3F868310893089B1B0A22
S1132AA0DBB20593089BDBB20893754BDB6C1B0F01
S1132AB0DBB203F00303DBB28DF808309DF8083075
S1132AC09DF8422003A906A8FFF72EFD6C4BD3F80E
S1132AD0EC301B0ADBB203F00303DBB28DF80930E0
S1132AE09DF809409DF8422003AB191D06AB181D43
S1132AF02346FFF719FD019A139BD31A0599089AE7
S1132B008A1A03FB02F2129BB2FBF3F30B930B9AA8
S1132B10089B13440B93019A139BD31A0399069AA7
S1132B208A1A03FB02F2129BB2FBF3F30993099A8C
S1132B30069B13440993019A139BD31A0499079A89
S1132B408A1A03FB02F2129BB2FBF3F30A930A9A6A
S1132B50079B13440A930B9A059B9A4213D80B9A2A
S1132B60089B9A420FD30A9A049B9A420BD80A9A5A
S1132B70079B9A4207D3099A039B9A4203D8099A5E
S1132B80069B9A4206D240F63C313B48FDF7CAFB0D
S1132B9000236CE09DF80230002B12D0384BDB6D23
S1132BA023F4FE4323F002030B9A120213439DF80D
S1132BB04220002A01D0022200E0002230491343BF
S1132BC0CB659DF80330002B50D09DF808109DF87C
S1132BD0423000221846FFF72DFC034683F0010320
S1132BE0DBB2002B06D040F64B312348FDF79AFBAD
S1132BF000233CE09DF809109DF84230012218465C
S1132C00FFF718FC034683F00103DBB2002B06D068
S1132C1040F653311848FDF785FB002327E0099B54
S1132C200F930A9B0E930E9A0F9B934238BF134641
S1132C300993099B0D93E7230C930C9A0D9B9342E4
S1132C4028BF134609930E4B5B6E23F4FF7323F0E6
S1132C500103099A520013439DF84220002A01D02F
S1132C60012200E00022064913434B660123184663
S1132C7014B010BD8460000020600000B081E00F3B
S1132C8000300E4000B585B0019000230393344B0F
S1132C901B6F03F007030293314BDB6C03F001035A
S1132CA0002B14D0029B012B11D9019B132B02D8AA
S1132CB0042303933DE0019B132B05D9019B272B90
S1132CC002D80823039334E01023039331E0244B08
S1132CD0DB6C03F00103002B14D1029B012B11D8F0
S1132CE0019B092B02D80423039322E0019B092BA7
S1132CF005D9019B132B02D80823039319E0102351
S1132D00039316E0164BDB6C03F00103002B0BD08E
S1132D10029B012B08D8019B272B02D8082303937D
S1132D2007E01023039304E040F691310D48FDF7CA
S1132D30F9FA039B013B0393039B1A02039B1B03B6
S1132D4013430393064BDB6C23F47F420449039B38
S1132D501343CB64FFF7A0FA00BF05B05DF804FB92
S1132D6000300E402060000000B585B003468DF8A9
S1132D70073000211248FEF76FFF0390039B002BDE
S1132D8003D19DF80730012B07D9039B002B04D1F5
S1132D9040F6AF310B48FDF7C5FA0B4B1B6F23F020
S1132DA007029DF80730084913430B67074B1B883C
S1132DB01846FFF767FF00BF05B05DF804FB00BFCE
S1132DC04C300E402060000000300E40BE10002049
S1132DD084B001900091019B03F1C0630393039BB2
S1132DE0009A1A6000BF04B0704784B0019000914B
S1132DF0019B03F180630393039B009A1A6000BF55
S1132E0004B0704700B587B0039002910192FEF7B9
S1132E10CDFE0590039B1A68029BDB431A4001997F
S1132E20029B0B401A43039B1A600598FEF7CAFEE7
S1132E3000BF07B05DF804FB00B583B00346009102
S1132E408DF807309DF80730002B42D09DF80730ED
S1132E50012B3BD09DF80730022B34D09DF807306E
S1132E60032B2DD09DF80730042B27D09DF8073075
S1132E70052B20D09DF80730062B1AD09DF807307B
S1132E80072B14D09DF80730082B0ED09DF807307F
S1132E90092B07D09DF807300A2B01D107231AE02C
S1132EA0002318E04FF4404315E00F2313E0002300
S1132EB011E000230FE04FF6FF730CE000230AE05B
S1132EC04FF47F4307E040F6FF7304E04FF6C0730E
S1132ED001E040F2FF33009AD34003F00103002BDA
S1132EE004D14FF479710D48FDF71CFA9DF80720C1
S1132EF013465B0013441B010C3303F1804303F5B9
S1132F0020430121009A01FA02F211461846FFF704
S1132F106CFF00BF03B05DF804FB00BFEC60000071
S1132F2000B583B0034600918DF807309DF8073053
S1132F30002B42D09DF80730012B3BD09DF8073081
S1132F40022B34D09DF80730032B2DD09DF8073089
S1132F50042B27D09DF80730052B20D09DF807308F
S1132F60062B1AD09DF80730072B14D09DF8073094
S1132F70082B0ED09DF80730092B07D09DF8073099
S1132F800A2B01D107231AE0002318E04FF4404331
S1132F9015E00F2313E0002311E000230FE04FF6A8
S1132FA0FF730CE000230AE04FF47F4307E040F690
S1132FB0FF7304E04FF6C07301E040F2FF33009A60
S1132FC0D34003F00103002B04D140F213410D4818
S1132FD0FDF7A8F99DF8072013465B0013441B0175
S1132FE00C3303F1804303F520430121009A01FAD5
S1132FF002F211461846FFF7EBFE00BF03B05DF87E
S113300004FB00BFEC60000000B583B003460091F0
S11330108DF807309DF80730002B27D09DF8073036
S1133020012B23D09DF80730022B1FD09DF80730C9
S1133030032B1BD09DF80730042B1CD09DF80730C0
S1133040052B13D09DF80730062B14D09DF80730BC
S1133050072B10D09DF80730082B07D09DF80730B8
S1133060092B03D09DF807300A2B04D1009B23F0D1
S11330700113002B03D07D210B48FDF753F99DF874
S1133080072013465B0013441B0103F1804303F53F
S11330902043009A4FF001111846FFF7B3FE00BF1A
S11330A003B05DF804FB00BF5061000000B585B0BB
S11330B00291019303468DF80F3013468DF80E30BC
S11330C09DF80F30002B42D09DF80F30012B3BD0E0
S11330D09DF80F30022B34D09DF80F30032B2DD0E8
S11330E09DF80F30042B27D09DF80F30052B20D0EE
S11330F09DF80F30062B1AD09DF80F30072B14D0F3
S11331009DF80F30082B0ED09DF80F30092B07D0F7
S11331109DF80F300A2B01D107231AE0002318E091
S11331204FF4404315E00F2313E0002311E0002384
S11331300FE04FF6FF730CE000230AE04FF47F43E7
S113314007E040F6FF7304E04FF6C07301E040F27D
S1133150FF33029AD34003F00103002B04D140F261
S11331601D113D48FDF7DEF89DF80E30002B0FD001
S1133170019B002B06D09DF80F3002991846FFF7EB
S1133180CFFE05E09DF80F3002991846FFF754FE74
S1133190029B072B23D831499DF80F2013465B006F
S11331A013441B010B4404331A68029B9B000F2138
S11331B001FA03F3DB4313409DF80E10029A9200C8
S11331C001FA02F2114625489DF80F2019431346CF
S11331D05B0013441B0103440433196024E01F49BA
S11331E09DF80F2013465B0013441B010B44083366
S11331F01A68029B083B9B000F2101FA03F3DB438F
S113320013409DF80E10029A083A920001FA02F255
S1133210114612489DF80F20194313465B001344CE
S11332201B010344083319609DF80E30002B0FD1A5
S1133230019B002B06D09DF80F3002991846FFF72A
S11332406FFE05E09DF80F3002991846FFF7F4FD74
S113325000BF05B05DF804FB5061000000A0004011
S113326082B001900091019B009ADA6300BF02B022
S11332707047000000B587B0039002910192029B51
S11332801F2B03D991210A48FDF74CF8039B03F146
S1133290424303F58013DA00029B13449B00059319
S11332A0059B019A1A6000BF07B05DF804FB00BFDC
S11332B0B461000000B587B0039002910192FEF75B
S11332C075FC0590039B1A68029BDB431A40019925
S11332D0029B0B401A43039B1A600598FEF772FC8D
S11332E000BF07B05DF804FB00B589B003900291FC
S11332F001928DF80330019B002B04D140F20F1191
S11333005A48FDF70FF8019B002B00F0AB809DF8A5
S1133310033003F003038DF80330039B1B6823F48D
S11333204072039B1A6003989DF803301B021A46EF
S11333304FF44071FFF7BEFF029B002B16D1039B95
S11333404B4A934204D14B48FDF71CFB02900DE01D
S1133350039B494A934204D14848FDF713FB02906A
S113336004E040F229114148FCF7DCFF4FF0FF3341
S11333700793039B1B6803F00203002B13D09DF8F3
S11333800330022B0CD0022B21DC002B02D0012BAA
S113339003D01CE03A4B07931CE03A4B079319E027
S11333A0394B079316E09DF80330022B0CD0022B07
S11333B00FDC002B02D0012B03D00AE0304B079323
S11333C008E0324B079305E0314B079302E000BF5E
S11333D000E000BF029A079B9A4204D84FF4AF71F1
S11333E02248FCF79FFF9DF803302A4AD35C0593DB
S11333F0059B019A02FB03F30493049B002B05D164
S113340040F26F111948FCF78DFF2CE0019BDB00A3
S1133410029AD21A049B13445A1E049BB2FBF3F380
S1133420013B0693069B002B04DA40F275110F480A
S1133430FCF778FF069BB3F5007F04D34FF4BB7110
S11334400A48FCF76FFF039B1B6803F00203002B81
S113345004D0069B002B01D101230693069A039BFB
S11334601A6100E000BF09B05DF804FB18620000B7
S113347000C000400082040000C400400092040028
S113348080841E00404B4C00809FD500405489002E
S1133490002D31014862000000B583B001900B4655
S11334A08DF80330019B0B4A934208D0019B0A4AD2
S11334B0934204D040F28F110848FCF733FF019B7C
S11334C09DF8032000211846FFF7D4FE00BF03B087
S11334D05DF804FB00C0004000C400401862000016
S11334E000B583B001900091019B184A934208D023
S11334F0019B174A934204D04FF4D2711548FCF74C
S113350011FF019B00221A6413490198FFF7A8FEDA
S11335100198009B5B7883F00103DBB21A4601211A
S1133520FFF7A8FE009B5968009B9A68009B1B7BD1
S11335300198FFF7D9FE009B1B7819460198FFF705
S1133540ABFF00BF03B05DF804FB00BF00C0004048
S113355000C4004018620000FFFF070082B0019021
S1133560009100BF019B5A6B009B1340002BF9D1C3
S113357000BF00BF02B0704700B585B00390029150
S11335800192039B104A934207D1029B012B04D85A
S1133590019B1B0C1B04002B03D0D9210B48FCF707
S11335A0C1FE029B002B03D0029B012B04D007E039
S11335B0039B019A1A6103E0039B019A5A6100BFBD
S11335C000BF05B05DF804FB006004404C620000DD
S11335D000B583B001900B468DF80330019B0D4A72
S11335E0934204D040F209110B48FCF79BFE0221E0
S11335F00198FFF7B3FF9DF80330002B03D0019B24
S113360001225A6002E0019B02225A6000BF03B00B
S11336105DF804FB006004404C62000000B585B016
S11336200190009100230393019B3E4A934204D0EE
S11336304FF4B3713C48FCF775FE009B1B7883F094
S11336400103DBB2002B0CD0019B9B6803F0010348
S1133650002B06D002210198FFF780FF019B022274
S11336605A60009B5B78002B03D0039B43F4805388
S11336700393009B9B78002B03D1009BDB68002BFA
S11336800BD0039B43F400730393009BDB68002B74
S113369003D0009BDA68019B1A61009BDB78002B46
S11336A003D0039B43F480730393009B1B79002B8B
S11336B003D0039B43F040030393009B5B79002BEF
S11336C003D0039B43F080030393009B9B799B00EF
S11336D01A46039B13430393009BDB791B011A4691
S11336E0039B13430393009B1B7A1A46039B1343C8
S11336F00393019B039A1A60009B1B78002B0CD048
S1133700019B9B6803F00103002B06D10221019861
S1133710FFF724FF019B01225A6000BF05B05DF84A
S113372004FB00BF006004404C62000082B00190C2
S11337300091019B1B6C03F00103002B07D100BF18
S1133740019B5A6C009B1340002BF9D100E000BF91
S113375002B0704700B587B0039002910192019BBB
S1133760002B03D1FE211D48FCF7DCFD029B002B3E
S113377010D1039B1A4A934206D11A4B059305981C
S1133780FDF700F9029005E04FF493711348FCF73C
S1133790C9FD1FE0029B5A01019BB2FBF3F30493A2
S11337A0049B203B0493049BDB000493049B0E4A7C
S11337B0934204D940F233110848FCF7B3FD049A4C
S11337C0094B1340049304210398FFF7AFFF039BB5
S11337D0049ADA6007B05DF804FB00BF8062000061
S11337E000A0044090171A00F8FF010000B585B04E
S11337F001900B468DF80330019B114A934204D08B
S113380040F257110F48FCF78DFD9DF80330DB4360
S11338100393039B03F005030393039B5B00039350
S11338209DF80330039A1343039302210198FFF791
S11338307DFF019B039A5A6000BF05B05DF804FB4D
S113384000A004408062000082B001900B468DF815
S113385003309DF80330002B08D000BF019B5B6C44
S1133860002BFBD1019B01221A6402E0019B002280
S11338701A6400BF02B0704700B583B00190009194
S1133880019B1B4A934204D04FF4DC711948FCF7A6
S113389049FD02210198FFF749FF019B0A225A6062
S11338A001210198FFF7D0FF019B1B6823F01C0343
S11338B0009A127B1343009A527B1343009A927B23
S11338C01A43019B1A60009B5968009B9B681A4627
S11338D00198FFF73FFF009B1B781A46019B5A6033
S11338E000210198FFF7B0FF00BF03B05DF804FBAF
S11338F000A004408062000082B00190019B0C4A49
S113390093420BD0019B0B4A934207D0019B0A4A76
S1133910934203D0019B094A934201D1012300E061
S1133920002303F00103DBB2184602B0704700BF66
S1133930008001400084014000A0014000A4014037
S113394000B585B0019000910198FFF7D5FF0346BB
S1133950002B03D19A213748FCF7E4FC002303939E
S1133960009B1B7883F00103DBB2002B02D0019B88
S113397002225A60019B00225A62009B9B781A061D
S1133980009BDB781B041A43009B9B799B021A4320
S1133990009BDB791B021343009A127A1343009AAB
S11339A05278002A01D0402200E000221343009AFA
S11339B0527A002A01D0802200E000221343009AA8
S11339C0927A002A01D0202200E000221343009AB8
S11339D0D27A002A01D0102200E000221343009A78
S11339E0127B002A01D0082200E000221343039333
S11339F0009B1B79002B02D04FF4005200E0002200
S1133A00009B5B79002B02D04FF0805300E0002331
S1133A101343039A13430393019B039A1A60009B75
S1133A201B78002B02D0019B01225A6000BF05B015
S1133A305DF804FB1C63000000B58BB003468DF8F1
S1133A4007309DF8073003F00103002B0ED0614BC3
S1133A501B889BB201339AB25E4B1A8000F06EF958
S1133A605D4B1B68002B01D000F04EF99DF8073028
S1133A7003F00203002B00F0A8800023089300F059
S1133A8041FA07900023069300230593534B1B68C8
S1133A90079AD31A0893FEF79FF8099063E0089BEE
S1133AA004934D4B1B6803934B4B1B6806934B4A83
S1133AB0079B13600FE0069B1A79039B1B799A42BC
S1133AC001D9039B0693039B5B69049AD31A04935D
S1133AD0039B9B680393039B002B04D0039B5B69AC
S1133AE0049A9A42E7D20998FEF786F8069B5B6926
S1133AF0089AD31A0893069B00225A61FEF76CF8C1
S1133B000990069800F0C6F80998FEF775F8069B28
S1133B101B69002B0BD0FEF75FF80990069B1B690D
S1133B201946069800F05EF80998FEF765F8069BBA
S1133B30DB68002B06D0069BDB68069A12681146E8
S1133B4006989847059B0133059300F0DBF9029032
S1133B50029A079BD31A089A13440893029B07936B
S1133B60FEF73AF809901C4B1B68002B05D01A4B42
S1133B701B685B69089A9A4291D2194B00221A7009
S1133B80059B012B09D1069B002B06D0069BDB88E5
S1133B90022B02D1124B01221A700F4B1B68002B0F
S1133BA00DD00D4B1B6859690B4B1B68089A8A1A78
S1133BB05A610A4A079B136000F0A6F802E002204B
S1133BC000F01EFA0998FEF717F800BF0BB05DF875
S1133BD004FB00BFD4100020D8100020DC1000200B
S1133BE0E110002086B001900091009B0593019B99
S1133BF0059A5A61264B1B68002B40D0002304937E
S1133C00234B1B6803930CE0039B5B69059AD31A4F
S1133C100593019B059A5A61039B0493039B9B683C
S1133C200393039B002B13D0039B5B69059A9A4271
S1133C30EAD2039B5B69002BE6D0039B5B69059A80
S1133C409A4205D1019B1A79039B1B799A42DBD8CE
S1133C50049B002B03D0049B019A9A6002E00C4A57
S1133C60019B1360019B039A9A60039B002B0CD069
S1133C70039B5A69059BD21A039B5A6105E0044AC7
S1133C80019B1360019B00229A6000BF06B070473D
S1133C90D810002084B0019000230393194B1B68B3
S1133CA0029304E0029B0393029B9B680293029B92
S1133CB0002B03D0029A019B9A42F3D1029A019BF2
S1133CC09A4201D0022319E0039B002B04D0019BEC
S1133CD09A68039B9A6003E0019B9B68094A1360FE
S1133CE0019B9B68002B08D0019B9B685969019B31
S1133CF05A69019B9B680A445A610023184604B020
S1133D00704700BFD810002000B583B0094B1B6872
S1133D105A69094B1B6813440193022000F04EF9C1
S1133D20019800F0FDF800F041F800BF03B05DF821
S1133D3004FB00BFD8100020DC10002000B583B0C5
S1133D4000F0E0F80190174B1B68002B22D0164BB3
S1133D501B68019AD31A0093124B1B685B69009A83
S1133D609A420BD80F4B1B6859690E4B1B68009A7B
S1133D708A1A5A610C4A019B13600EE0094B1B68B6
S1133D805B69019AD31A084A1360064B1B68002228
S1133D905A6102E0044A019B136000BF03B05DF85E
S1133DA004FB00BFD8100020DC10002082B0134BAD
S1133DB01B68019300230093114B00221A7014E036
S1133DC0019BDB8803F00203002B03D00C4B012280
S1133DD01A700FE0019B9B680193019B002B08D094
S1133DE0019B5B69009A13440093009B012BE7D964
S1133DF000E000BF00BF02B0704700BFD810002031
S1133E00E010002000B583B00190019B022B04D97F
S1133E1040F293110648FCF785FA064A019B0433E5
S1133E201B01134404331B68184603B05DF804FBFC
S1133E30506300000020044000B583B0019000915D
S1133E40019B022B04D940F2A7110748FCF76AFA38
S1133E50064A019B04331B0113440433009A1A607D
S1133E6000BF03B05DF804FB506300000020044071
S1133E7000B583B001900198FFF7C4FF03461846CC
S1133E8003B05DF804FB00B583B001900091009984
S1133E900198FFF7D1FF00BF03B05DF804FB0000F9
S1133EA0014B9B68184670470020044082B0019083
S1133EB0024A019B136200BF02B070470020044015
S1133EC082B00190044B5A6A019BDB4302491340C0
S1133ED04B6200BF02B070470020044082B00190E2
S1133EE0044B5A6A0349019B13434B6200BF02B05F
S1133EF0704700BF00200440014B9B69184670477F
S1133F000020044008B5FFF7CBFF0346184608BD60
S1133F1008B50120FFF7ACFF0346184608BD0000B2
S1133F2000B587B00190FFF7EDFF0490FFF7F0FFB5
S1133F300390019B0593FFF7DFFF034603F004039F
S1133F40002B0AD10499039800F0BDF80346032B13
S1133F5003D8039A049B9A421BD10499059800F054
S1133F60B2F80346022B02D8049B03330593059B46
S1133F70B3F1FF3F2CBF0122002252429B1A05934A
S1133F80059B013B19460120FFF77DFF022000F04D
S1133F9015F8084B1B78002B08D0074B1B6D064AFD
S1133FA043F002031365034B00221A7000BF07B0ED
S1133FB05DF804FB141000200020044000B585B017
S1133FC003468DF80730002303939DF8073003F070
S1133FD00103002B03D0039B43F0010303939DF8DB
S1133FE0073003F00203002B03D0039B43F00403C8
S1133FF003930398FFF772FF00BF05B05DF804FB5D
S113400000B585B003468DF80730002303939DF86F
S1134010073003F00103002B03D0039B43F001039B
S113402003939DF8073003F00203002B0CD0039B8D
S113403043F004030393084B01221A70074B1B6DD2
S1134040064A23F0030313650398FFF739FF00BF03
S113405005B05DF804FB00BF1410002000200440EC
S113406000B585B000238DF80F30FDF7B5FD029043
S1134070FFF742FF0190019B03F00103002B05D0E1
S11340809DF80F3043F001038DF80F30019B03F0CE
S11340900403002B05D09DF80F3043F002038DF884
S11340A00F30019B03F007031846FFF7FFFE9DF84E
S11340B00F301846FFF7C0FC0298FDF79DFD00BFC6
S11340C005B05DF804FB82B001900091019A009B59
S11340D0D31A184602B0704782B00190019B0C4A73
S11340E093420BD0019B0B4A934207D0019B0A4A8F
S11340F0934203D0019B094A934201D1012300E07A
S1134100002303F00103DBB2184602B0704700BF7E
S1134110008001400084014000A0014000A401404F
S113412000B583B001900B468DF803300198FFF77A
S1134130D3FF0346002B04D14FF451710848FCF718
S1134140F1F89DF80330002B03D0019B01225A6043
S113415002E0019B02225A6000BF03B05DF804FB39
S11341609464000000B589B001902348FCF70AFC70
S11341700790079B214AA2FB03239B09019A02FB98
S113418003F39B0A069301211D48FCF78DFB02AB48
S113419000221A605A609A601A7301238DF808305D
S11341A001238DF8133000238DF8083001238DF896
S11341B010300A238DF80A3000238DF8093002AB41
S11341C019461048FFF7BCFB0E4A069B53620121B7
S11341D00C48FFF7A5FF00BF0A4B5B6A002BFBD11D
S11341E000210848FFF79CFF00210548FCF75CFB11
S11341F000BF09B05DF804FB40410500D34D6210D7
S1134200000204000080014084B001900091019BF1
S113421003F1C0630393039B009A1A6000BF04B0C8
S1134220704784B001900091019B03F18063039374
S1134230039B009A1A6000BF04B0704700B583B0B6
S1134240034600918DF807309DF80730002B42D0CB
S11342509DF80730012B3BD09DF80730022B34D05A
S11342609DF80730032B2DD09DF80730042B27D061
S11342709DF80730052B20D09DF80730062B1AD067
S11342809DF80730072B14D09DF80730082B0ED06B
S11342909DF80730092B07D09DF807300A2B01D170
S11342A007231AE0002318E04FF4404315E00F23DE
S11342B013E0002311E000230FE04FF6FF730CE03E
S11342C000230AE04FF47F4307E040F6FF7304E065
S11342D04FF6C07301E040F2FF33009AD34003F07D
S11342E00103002B04D14FF479710D48FCF71AF83F
S11342F09DF8072013465B0013441B010C3303F1A4
S1134300804303F520430121009A01FA02F2114689
S11343101846FFF786FF00BF03B05DF804FB00BF3B
S1134320FC64000000B583B0034600918DF80730AB
S11343309DF80730002B42D09DF80730012B3BD06D
S11343409DF80730022B34D09DF80730032B2DD075
S11343509DF80730042B27D09DF80730052B20D07B
S11343609DF80730062B1AD09DF80730072B14D080
S11343709DF80730082B0ED09DF80730092B07D085
S11343809DF807300A2B01D107231AE0002318E017
S11343904FF4404315E00F2313E0002311E0002302
S11343A00FE04FF6FF730CE000230AE04FF47F4365
S11343B007E040F6FF7304E04FF6C07301E040F2FB
S11343C0FF33009AD34003F00103002B04D140F2E1
S11343D013410D48FBF7A6FF9DF8072013465B0029
S11343E013441B010C3303F1804303F520430121E3
S11343F0009A01FA02F211461846FFF705FF00BFC2
S113440003B05DF804FB00BFFC64000008B50C4B6E
S113441000221A7000210820FFF710FF0121082054
S1134420FFF70CFF02210820FFF708FF03210820F3
S1134430FFF704FF0E210920FFF774FF00BF08BD3A
S1134440E210002000B585B00390029113468DF868
S11344500730029B03F00103002B08D09DF80730BE
S1134460002B04D00B210320FFF75CFF0FE0029B1D
S113447003F00103002B0AD09DF8073083F00103F9
S1134480DBB2002B03D00B210320FFF7D7FE029BE6
S113449003F00203002B08D09DF80730002B04D052
S11344A00C210320FFF73EFF0FE0029B03F0020301
S11344B0002B0AD09DF8073083F00103DBB2002BF8
S11344C003D00C210320FFF7B9FE029B03F0040381
S11344D0002B08D09DF80730002B04D00D210320B9
S11344E0FFF720FF0FE0029B03F00403002B0AD028
S11344F09DF8073083F00103DBB2002B03D00D21BC
S11345000320FFF79BFE039B03F00103002B08D05D
S11345109DF80730002B04D000210820FFF702FF8C
S11345200FE0039B03F00103002B0AD09DF8073032
S113453083F00103DBB2002B03D000210820FFF736
S11345407DFE039B03F00203002B08D09DF8073087
S1134550002B04D001210820FFF7E4FE0FE0039BA9
S113456003F00203002B0AD09DF8073083F0010307
S1134570DBB2002B03D001210820FFF75FFE039B71
S113458003F00403002B08D09DF80730002B04D05F
S113459002210820FFF7C6FE0FE0039B03F004038B
S11345A0002B0AD09DF8073083F00103DBB2002B07
S11345B003D002210820FFF741FE039B03F0080308
S11345C0002B08D09DF80730002B04D003210820CD
S11345D0FFF7A8FE0FE0039B03F00803002B0AD0AB
S11345E09DF8073083F00103DBB2002B03D00321D5
S11345F00820FFF723FE00BF05B05DF804FB0000B0
S113460000B589B01920FFF7ADFD114B02930123CA
S11346108DF8043001238DF8053001238DF80C301A
S11346204FF4885306931123059301238DF81C300E
S113463001238DF81D300023049301AB194605486E
S113464000F0AEFC00F04AF800BF09B05DF804FBCE
S1134650DDFB050000C4004000B589B00790069159
S11346600592069B0293074B0193079B00935523E6
S1134670059A0121044800F011FD00BF09B05DF85E
S113468004FB00BFE410002000C4004000B589B062
S1134690079006910592069B0293074B0193079B93
S11346A000935523059A0021044800F0F7FC00BF4D
S11346B009B05DF804FB00BFE810002000C400400E
S11346C082B0054B1B680193034B00221A60019BC7
S11346D0184602B0704700BFE410002000B583B054
S11346E00023019300230093454B00221A6001220A
S11346F000211120FFF7B0FF00BF00F0B7FE034612
S1134700002BFAD1FFF7DCFF034603F00F030193FC
S11347103C4B0B221A60012200210A20FFF7B6FF4E
S113472000BF00F0A3FE0346002BFAD1354B8222D2
S11347301A60012200210B20FFF7A8FF00BF00F040
S113474095FE0346002BFAD1012200211120FFF728
S113475083FF00BF00F08AFE0346002BFAD1FFF767
S1134760AFFF034603F00F030093019B013303F0F3
S11347700F03009A9A4203D0A2212348FBF7D2FDEB
S1134780204B01221A60012200210A20FFF77EFF3C
S113479000BF00F06BFE0346002BFAD1194B8122B7
S11347A01A60012200210B20FFF770FF00BF00F008
S11347B05DFE0346002BFAD1124B00221A6001223F
S11347C000211120FFF748FF00BF00F04FFE034611
S11347D0002BFAD1FFF774FF034603F00F03009395
S11347E0019B023303F00F03009A9A4203D0B021D5
S11347F00548FBF797FD00BF03B05DF804FB00BF5D
S1134800E4100020E81000206065000008B5094BA2
S113481011221A60012200210B20FFF737FF00BF8D
S113482000F024FE0346002BFAD1024B00221A604A
S113483000BF08BDE810002000B583B0019001223C
S113484001991420FFF708FF00BF03B05DF804FBD3
S113485008B5114B00221A6000F0BCFA00F0E0FA2F
S1134860102311220D494FF07E5000F019F801F089
S1134870A9F801F0EDF8FFF7C9FDFFF7C1FE032029
S113488001F0FCF80021002000F0B8F8102001F03D
S1134890A1F800BF08BD00BFEC1000206F12033B5D
S11348A000B591B0039002910192009300238DF81A
S11348B01130039B0893029B099300238DF8103059
S11348C000238DF81C3000238DF81D30019B0593C7
S11348D0009B069301238DF8303001238DF8383086
S11348E000238DF8283001230B9302230D93042316
S11348F00F9304AB1946034800F046FE00BF11B005
S11349005DF804FB0060044008B501F08FF803462D
S113491003F00403002B03D07B210448FBF702FDC2
S11349200820FFF789FF00BF08BD00BF80650000B5
S113493008B58E210248FBF7F5FC00BF08BD00BF97
S11349408065000008B501F071F8034603F0020326
S1134950002B03D0A0210348FBF7E4FCFFF756FF2C
S113496000BF08BD8065000000B583B001F05EF8AB
S1134970034603F00803002B03D0B3210B48FBF7D5
S1134980D1FCFFF79DFE0190019B132B05D801225A
S113499004210220FFF756FD04E000220421022036
S11349A0FFF750FD00BF03B05DF804FB8065000015
S11349B008B501F03BF8034603F01003002B03D0C5
S11349C0C1210B48FBF7AEFC0A4800F045F803464A
S11349D0002B03D1C2210648FBF7A4FC4FF4FA6074
S11349E0FFF7C0FB0121044800F09AFE00BF08BD98
S11349F0806500009C6500000060044000B593B031
S1134A00019000914FF41653029300238DF80C305B
S1134A1005238DF80D3000238DF80E3000238DF81A
S1134A200F30002311931B2306934FF4D8530A939A
S1134A30009B0F93019B10930123099301230D9372
S1134A4002AB1946034800F0C3FE00BF13B05DF883
S1134A5004FB00BF00A0044010B5ADF51A7D9AAB6D
S1134A60A3F519731860FDF7A1F8929045F241433C
S1134A707B937CAB4C220021184601F08FF944F65D
S1134A804F33679368AB4C220021184601F086F936
S1134A909AABA3F58E739D491A4603C982E80300B5
S1134AA0083348220021184601F078F99AABA3F59F
S1134AB0B6729749134603C9186004331980023348
S1134AC0090C1970D31D49220021184601F066F91A
S1134AD09AABA3F5DE748F4A234607CA03C31A7040
S1134AE004F1090347220021184601F057F99AAB53
S1134AF0A3F50374884A234607CA03C31A7004F152
S1134B00090347220021184601F048F99AABA3F59E
S1134B10197353AA1968104601F048F99AABA3F522
S1134B2019733FAA1968104601F040F97B4800F058
S1134B3003FF9190919B03F00403002B07D0012302
S1134B408DF867322021754800F0FFFE02E0002353
S1134B508DF86732919B03F00103002B03D00123EE
S1134B608DF866320FE000238DF8663201216B4820
S1134B7000F0EBFE00BF694800F0DEFE034603F0E0
S1134B800103002BF7D0919B03F00203002B03D009
S1134B9001238DF865320FE00421604800F0D5FE52
S1134BA000BF5E4800F0C8FE034603F00203002B7A
S1134BB0F7D000238DF865327BAB184601F005F978
S1134BC09090002398930AE07BAA989B13441B7847
S1134BD01946524800F0D1FE989B01339893989B54
S1134BE0909A9A42F0D867AB184601F0EEF890908C
S1134BF0002397931EE0494800F0D2FE034619466D
S1134C009AABA3F51772979B13440A461A7067AAC6
S1134C10979B13441A789AABA3F51771979B0B448F
S1134C201B789A4203D0E6213D48FBF77BFB979B18
S1134C3001339793979B909A9A42DCD853AB1846CA
S1134C4001F0C3F89090002396930CE09AABA3F57F
S1134C508E72969B13441B781946304800F08DFEE3
S1134C60969B01339693969B909A9A42EED83FABCB
S1134C70184601F0AAF890900023959320E0274865
S1134C8000F08EFE034619469AABA3F51772959B66
S1134C9013440A461A709AABA3F5B672959B134453
S1134CA01A789AABA3F51771959B0B441B789A421B
S1134CB003D0F7211A48FBF735FB959B01339593F5
S1134CC0959B909A9A42DAD82BAB184601F07DF85E
S1134CD09090002394930CE09AABA3F5DE72949B1E
S1134CE013441B7819460D4800F047FE949B01338A
S1134CF09493949B909A9A42EED817AB184601F07D
S1134D0064F89090002393932EE000BFC4650000E4
S1134D101466000064660000B466000000A004404D
S1134D20A8650000294800F03BFE034619469AABEB
S1134D30A3F51772939B13440A461A709AABA3F512
S1134D400372939B13441A789AABA3F51771939B40
S1134D500B441B789A4204D040F207111C48FBF71D
S1134D60E1FA939B01339393939B909A9A42D9D8F7
S1134D709DF8663283F00103DBB2002B03D00221DD
S1134D80124800F0E2FD9DF86732002B03D0102199
S1134D900E4800F0DAFD9DF8653283F00103DBB2C2
S1134DA0002B03D00821094800F0CFFD074800F08C
S1134DB0DBFD01238DF83F329298FCF703FF9DF849
S1134DC03F3218460DF51A7D10BD00BF00A0044007
S1134DD0A865000008B501210D48FBF765FD002218
S1134DE000210120FCF776FC012201210020FCF7C0
S1134DF071FC02210748FCF7F5F80A210648FCF784
S1134E00F1F801210548FBF74FFD00BF08BD00BFC5
S1134E10404105000300200002001E0030253E0032
S1134E2008B501213948FBF73FFD4FF0011103207C
S1134E30FEF7EAF80023042208210320FEF736F9DE
S1134E404FF001110320FEF7DFF8002304220921AB
S1134E500320FEF72BF9002304220E210920FEF77C
S1134E6025F90023042200210820FEF71FF900235E
S1134E70042201210820FEF719F90023042202214B
S1134E800820FEF713F90023042203210820FEF76B
S1134E900DF9002304220B210320FEF707F9002358
S1134EA004220C210320FEF701F9002304220D2122
S1134EB00320FEF7FBF80123042209210520FEF755
S1134EC0F5F84FF001110520FEF79EF801230822A2
S1134ED005210220FEF7EAF801230822042102201A
S1134EE0FEF7E4F80123042203210520FEF7DEF88F
S1134EF04FF480310520FEF787F8012301220421B5
S1134F000520FEF7D3F800BF08BD00BF00350A0036
S1134F1082B003468DF807309DF90730002B0CDB77
S1134F209DF8073003F01F0205499DF907305B091E
S1134F30012000FA02F241F8232000BF02B07047BA
S1134F4000E100E084B00190019B20225A60019BA3
S1134F501B6C0393019B1B6CDA43019B1B6C1A4073
S1134F60019B1A64019B5A6B019BDA63019B4022EB
S1134F705A60019B03225A6000BF019B5B6B03F4E0
S1134F808073002BF9D0019B5A6B019BDA63019B60
S1134F9020225A60019B039A1A6400BF04B0704730
S1134FA000B587B001900091019B384A934204D127
S1134FB001213748FBF778FC03E001213548FBF772
S1134FC073FC019B5B6B03F00103002B10D1019B6D
S1134FD001229A63019B5B6B03F00103002B03D155
S1134FE060212D48FBF79EF9019B0122DA630CE056
S1134FF0019B0122DA63019B5B6B03F00103002B2D
S113500003D066212448FBF78DF9009B5B788DF86B
S11350100830009B1B788DF81430009B5B68049368
S1135020009B1B7A8DF80930009BDB68039302AB6D
S113503019460198FEF754FA009B5A69009B1B69B4
S11350401A43019B9A64009B5B7E5B00009A127E6C
S11350501A43019B5A64019B4FF4B072DA63019BBB
S11350604FF4B0721A64019B084A934203D1112091
S1135070FFF74EFF02E02A20FFF74AFF0198FFF7EF
S113508061FF00BF07B05DF804FB00BF00C0004033
S113509000820400009204000467000000B585B09B
S11350A00390019200930B468DF80B30039B394A11
S11350B0934230D100BF384B1B7FDBB2002BFAD1B7
S11350C0039B9B6803F0E003002B03D0A02133482B
S11350D0FBF728F9304B01221A772F4A9DF80B3041
S11350E053772D4A039B13602B4B0022DA602A4A24
S11350F0019B9360284B00221A71274A069B136177
S1135100009B5B00244A5361234A079B9361089BDD
S1135110214A13622FE000BF214B1B7FDBB2002B1F
S1135120FAD1039B9B6803F0E003002B03D0B12169
S11351301A48FBF7F7F81A4B01221A77184A9DF818
S11351400B305377164A039B1360154B0022DA6029
S1135150134A019B9360124B00221A71104A069B5A
S11351601361009B5B000E4A53610D4A079B9361D8
S1135170089B0B4A1362022000F080FC039B01226F
S11351805A60009B5A00039BDA6200BF05B05DF8C9
S113519004FB00BF00C00040F010002004670000C2
S11351A01411002000B583B00190019B1B79052BDD
S11351B070D801A252F823F0D1510000E35100004D
S11351C02D520000A1520000955200004B520000E5
S11351D0019B01221A71019B1B68019A1269DA6210
S11351E05FE0019B5B7F002B0ED0019B02221A71B2
S11351F0019B1B6801225A60019B5A69019B1B6831
S113520042F00102DA624CE0019B05221A71019B13
S11352109B69191D019A9161019A12681B68D362F6
S1135220019BDB685A1C019BDA603AE0019B5B7FBF
S113523083F00103DBB2002B03D0EE211B48FBF704
S113524071F8019B03221A712BE0019B5B7F002BF9
S113525003D0F2211548FBF765F8019BDA68019B3E
S11352609B689A4207D1019B06221A71019B1B6815
S113527002225A6015E0019B9B69191D019A9161F4
S1135280019A12681B68D362019BDB685A1C019B5C
S1135290DA6006E040F201110448FBF743F800E04D
S11352A000BF00BF03B05DF804FB00BF046700004B
S11352B000B583B00190019B1B79032B30D1019B76
S11352C05B7F83F00103DBB2002B04D04FF48E71BB
S11352D01848FBF727F8019B1A68019B9B69181D66
S11352E001998861D2691A60019BDB685A1C019B91
S11352F0DA60019BDA68019B9B689A420BD1019B9F
S113530006221A71019B1B6808225A60019B1B68C4
S113531002225A600AE0019B1B6804225A6005E0DD
S113532040F229110348FAF7FDFF00BF00BF03B0A4
S11353305DF804FB0467000000B583B00190019B95
S11353401B79062B11D1019B00221A77019B0422A1
S11353501A71022000F0B6FB019B1B6A184600F08C
S113536039FB019B00221A7705E040F24B110448F7
S1135370FAF7D8FF00BF00BF03B05DF804FB00BF1D
S11353800467000000B583B0194B1A6C184B5B6BB3
S113539013400193164B1B6C0093154A019BD36376
S11353A0134B1B6CDA43124B1B6C114913400B64F7
S11353B0019B03F04003002B02D00E48FFF7F2FEDE
S11353C0019B03F02003002B02D00A48FFF770FF73
S11353D0019B03F48073002B02D00648FFF7ACFF57
S11353E0034A009B136400BF03B05DF804FB00BFD5
S11353F000C400401411002000B583B0194B1A6C8E
S1135400184B5B6B13400193164B1B6C0093154AAE
S1135410019BD363134B1B6CDA43124B1B6C114976
S113542013400B64019B03F04003002B02D00E4891
S1135430FFF7B8FE019B03F02003002B02D00A48BB
S1135440FFF736FF019B03F48073002B02D006485C
S1135450FFF772FF034A009B136400BF03B05DF8BB
S113546004FB00BF00C00040F0100020024B1B7F73
S1135470DBB21846704700BF1411002082B0034607
S11354808DF807309DF90730002B0CDB9DF80730B1
S113549003F01F0205499DF907305B09012000FA5A
S11354A002F241F8232000BF02B0704700E100E09F
S11354B082B001900091019B009A9A6200BF02B0F1
S11354C0704782B001900091019BDA6A009B1A43F5
S11354D0019BDA6200BF02B07047000000B583B0E0
S11354E0244B1A6A234BDB6A13400193214A019B24
S11354F09362019B03F00403002B0ED01D4B1B6A27
S113550003F00403002B03D035211B48FAF70AFFEC
S11355101A4B1B68184600F05DFA019B03F0010367
S1135520002B0ED0134B1B6A03F00103002B03D096
S11355303A211148FAF7F6FE114B1B68184600F0A1
S113554049FA019B03F00203002B0ED0094B1B6A9E
S113555003F00203002B03D03F210748FAF7E2FED1
S1135560084B1B68184600F035FA00BF03B05DF81D
S113557004FB00BF006004402067000040110020CD
S1135580381100203C11002000B589B00190009131
S1135590009BD3ED047A9FED5B7A67EE877AFCEE8D
S11355A0E77A17EE903A0793009BD3ED057A9FEDC7
S11355B0557A67EE877AFCEEE77A17EE903A06930F
S11355C0019B514A934203D101215048FBF76CF9E6
S11355D00021019800F0A4F8019B01225A6000BF49
S11355E0019B5B6B002BFBD1019B9B6803F00103C8
S11355F0002B03D176214648FAF794FE019B022240
S11356005A6000BF019B5B6B002BFBD1019B002206
S1135610DA6000238DF80B3001238DF80A30009BEB
S11356201B788DF80930009B5B788DF808300023D7
S11356308DF80C3000238DF80D3000238DF81030D8
S113564003238DF80E3003238DF80F3002AB194677
S11356500198FDF7E3FF00BF019B5B6B002BFBD1BF
S1135660079A00210198FDF787FF069A0121019806
S1135670FDF782FF019B01229A61019B0122DA61FD
S1135680009B5A68009B9B681A43019B5A64009BC9
S11356901B7B1A46009B5B7B5B0013431A46019BF2
S11356A01A644FF0FF310198FFF702FF009B93F853
S11356B028309B00009A127E1A43009B93F82030F6
S11356C05B00134319460198FFF7FBFE1B20FFF70D
S11356D0D5FE009BDB690F4A1360009B5B6A0E4A90
S11356E01360009BDB6A0D4A1360019B9B6803F007
S11356F00103002B02D0042000F0C0F900BF09B060
S11357005DF804FB00007A44006004408006160043
S113571020670000381100203C11002040110020B7
S113572000B583B001900B468DF803309DF803302B
S1135730002B13D0019B9B6803F00103002B0DD1B8
S1135740042000F09BF99DF8033019460198FDF7F9
S11357503FFF00BF019B5B6B002BFBD19DF8033027
S113576083F00103DBB2002B13D0019B9B6803F091
S11357700103002B0DD0042000F0A4F99DF80330A0
S113578019460198FDF724FF00BF019B5B6B002BBA
S1135790FBD100BF03B05DF804FB000082B00346F8
S11357A08DF807309DF90730002B0CDB9DF807308E
S11357B003F01F0205499DF907305B09012000FA37
S11357C002F241F8232000BF02B0704700E100E07C
S11357D000B587B001900091019B514A934203D1D7
S11357E001215048FBF760F8009B9B6B4E4A136005
S11357F0009B5B6B4D4A1360019B1B6903F0010323
S1135800002B1AD1019B01221A6100BF019B5B6C22
S1135810002BFBD1019B1B6903F00103002B03D177
S113582049214348FAF77EFD019B00221A6100BF1B
S1135830019B5B6C002BFBD111E0019B01221A61DF
S113584000BF019B5B6C002BFBD1019B1B6903F028
S11358500103002B03D151213548FAF763FD009B66
S11358601B680493009B1B798DF8143000238DF87A
S11358700830009B9B798DF81530009BDB6B0393FC
S1135880009BDB798DF8163002AB19460198FDF7C1
S1135890F3FF009B1A69009B1B6A1A43019B9A65DC
S11358A0009BDA69009BDB6A5B001A43019B5A6523
S11358B0019BC0225A6000BF019B5B6C002BFBD193
S11358C0009B5B7919460198FDF790FF00BF019B8F
S11358D05B6C002BFBD10FE0019B9B6803F0010381
S11358E0002B05D0019B9B6803F00203002B03D11E
S11358F069210F48FAF716FD019B9B6803F0010329
S1135900002BE9D0019B9B6803F00203002BE3D03A
S11359101620FFF743FF00BF07B05DF804FB00BF8C
S113592000A0044090171A004811002044110020E0
S11359304067000000BF704784B00190019B9B68E2
S11359400393039B184604B0704782B00190009102
S1135950019B009A5A6000BF019B5B6C002BFBD13A
S113596000BF00BF02B0704782B00190019B4FF0AE
S1135970FF325A6300BF02B0704782B001900B46F9
S11359808DF8033000BF019BDB6A03F00203002B98
S1135990F9D09DF80320019B9A6200BF02B07047C2
S11359A084B0019000BF019BDB6A03F00403002B69
S11359B0F9D0019BDB698DF80F309DF80F30184644
S11359C004B07047024B00221A6000BF704700BF4A
S11359D04C11002000B585B00190FCF7E7F8039066
S11359E0064B1A68019B1343044A13600398FCF79F
S11359F0E9F800BF05B05DF804FB00BF4C110020BE
S1135A0000B585B00190FCF7D1F80390019BDA430F
S1135A10054B1B681340044A13600398FCF7D2F843
S1135A2000BF05B05DF804FB4C110020014B1B685E
S1135A30184670474C110020044B1B69034A23F09D
S1135A400403136130BF00BF704700BF00ED00E0E6
S1135A5082B00023019307E0074A019B002142F82A
S1135A602310019B01330193019B042BF4DD00BF40
S1135A7000BF02B0704700BF5011002000B585B0D0
S1135A800190FCF793F803900C4A019B52F82330E1
S1135A905A1C0A49019B41F82320084A019B52F8E9
S1135AA02330042B03DD5B210548FAF73BFC039804
S1135AB0FCF788F800BF05B05DF804FB5011002026
S1135AC06067000000B585B00190FCF76FF80390A3
S1135AD00C4A019B52F823305A1E0A49019B41F893
S1135AE02320084A019B52F82330002B03DA752146
S1135AF00548FAF717FC0398FCF764F800BF05B0F3
S1135B005DF804FB501100206067000000B583B00D
S1135B10FCF74CF80190104B1B68002B15DC0E4B66
S1135B205B68002B11DC0C4B9B68002B02DDFFF73C
S1135B3083FF0AE0084BDB68002B03DD0120FCF740
S1135B4011FA02E00120FCF75DFA0198FCF73AF83B
S1135B5000BF03B05DF804FB50110020024BDB6C66
S1135B601B0EDBB218467047B081E00F00B583B05E
S1135B701D4B01225A64FFF7F1FF03468DF80730ED
S1135B809DF80730002B0CD1184B4AF6E8521A60E6
S1135B90174B1B68164A43F004031360134B00228F
S1135BA01A609DF80730012B05D8124B1B68114A67
S1135BB043F400531360104B1B6A23F444130E4A3E
S1135BC043F488131362084B1B68074A43F4807339
S1135BD013600A4B1B68094A43F4F843136000BF7F
S1135BE003B05DF804FB00BF00000E4090310E408E
S1135BF098310E4064310E4000400E40A4310E40F6
S1135C0030B58DB0454B07AC0FCB84E80F00444B47
S1135C1002AC1D460FCD0FC42B682380FFF7A6FFEF
S1135C204048FBF715FC00238DF8043000238DF861
S1135C30053007AB1846FCF7D3FD02238DF8053079
S1135C4001AB1846FCF7DEFA02AB1846FBF7C2FCC0
S1135C50012201210320FBF73DFD05211120FBF763
S1135C60C1F9002200210220FBF734FDFEF7F0FD0C
S1135C70FFF7DCFE034603F01003002B03D12E21B3
S1135C802948FAF74FFBFBF791FF0B90FFF7CEFE85
S1135C900346002B01D1FFF739FF0B98FBF792FF66
S1135CA0FFF7C4FE034603F00403002B04D00420D2
S1135CB0FFF7A6FEFEF728FEFFF7B8FE034603F043
S1135CC00103002B04D00120FFF79AFEFEF730FEFB
S1135CD0FFF7ACFE034603F00203002B04D00220BE
