S01D000057535F323337305F5453325F50574D5F496D706F72742E7333379D
S113000000100020C90100001102000011020000CC
S11300101102000011020000110200001102000090
S11300201102000011020000110200001102000080
S11300301102000011020000110200001102000070
S11300401102000011020000110200001102000060
S11300501102000011020000110200001102000050
S11300601102000011020000110200001102000040
S11300701102000011020000110200001102000030
S11300801102000011020000110200001102000020
S11300901102000011020000110200001102000010
S11300A01102000011020000110200001102000000
S11300B01102000011020000993200001102000038
S11300C011020000110200001102000011020000E0
S11300D011020000110200001102000011020000D0
S11300E011020000110200001102000011020000C0
S11300F011020000110200001102000011020000B0
S113010011020000110200001102000010B5054C9C
S1130110237833B9044B13B10448AFF300800123AF
S1130120237010BD9C10002000000000943C0000CF
S113013008B5034B1BB103490348AFF3008008BD66
S113014000000000A0100020943C0000A3F5803AB9
S1130150704700BF174B002B08BF134B9D46FFF79A
S1130160F5FF00218B460F461348144A121A03F078
S1130170BDFA0E4B002B00D098470D4B002B00D03E
S113018098470020002104000D000D48002802D0EB
S11301900C48AFF3008003F085FA2000290003F037
S11301A02BFA03F06BFA00BF000008000000000007
S11301B000000000001000209C100020E01000202F
S11301C0000000000000000000B585B000F08AF8CF
S11301D00C4B03930C4B02930B4B01930B4B00936F
S11301E00AE0039A131D0393029B191D02911268DE
S11301F01A60019B04330193019A009B9A42F0D345
S1130200FFF7A8FF9C3C0000001000209C10002079
S1130210FEE7000000B583B000F020F801900A4B1F
S1130220D3F808311B0AC3F308030093009B01337E
S1130230019AB2FBF3F30193044A019B1360019BFF
S1130240184603B05DF804FB00400E40081000207F
S1130250014B1846704700BF00F0490282B01A4BA8
S1130260D3F8943003F00703023B032B1BD801A2FD
S113027052F823F0950200008D0200008502000070
S11302809D020000114B1B68019310E04FF40043E2
S113029001930CE00E4B1B68019308E00D4B1B68A7
S11302A05B08019303E00B4B1B68019300BF064BF3
S11302B0D3F800311B0A03F01F030133019AB2FB88
S11302C0F3F3184602B0704700400E4004100020BB
S11302D0001000200C100020014B1B6818467047CA
S11302E000100020064B074A9A60054BD3F888306B
S11302F0034A43F47003C2F8883000BF704700BF5C
S113030000ED00E00000000082B001900091FEE7E3
S113031000B587B0039002910192029B1F2B03D971
S113032091210A48FFF7F0FF039B03F1424303F5D1
S11303308013DA00029B13449B000593059B019AEA
S11303401A6000BF07B05DF804FB00BF88370000E7
S113035084B001900091019B03F1424303F58013A3
S1130360DA00009B13449B000393039B1B6818460D
S113037004B07047054B1B6803F04003002B01D108
S1130380012300E000231846704700BF3C300E40B4
S113039008B5FFF7EFFF034683F00103DBB2002B40
S11303A008D100BF12210448FFF7D2FF0346002BF7
S11303B0F8D100E000BF08BD04300E4008B5FFF7D7
S11303C0E7FF044B5B681B0C03F00303DBB2184626
S11303D008BD00BF00300E4000B585B00190012378
S11303E00393019B124A934204D8002303930023EE
S11303F0029308E0019B0F4A934202D8012302931F
S113040001E002230293039A10210B48FFF780FFB7
S1130410094BD3F8003123F08072029B1B06064976
S11304201343C1F8003100BF05B05DF804FB00BF01
S11304300048E8010090D00300400E4000B585B0AC
S1130440019000911F4B5B6803F0407303930023FA
S1130450029312E01C4A029BDB0013441A79009BAE
S1130460DBB29A4206D1184A029B52F83330019A01
S11304709A4206D9029B01330293029B042BE9D9C9
S113048000E000BF029B052B07D10323039341F235
S11304909E310E48FFF738FF05E00B4A029BDB0054
S11304A013445B790393039B1B060393054B5B681F
S11304B023F040720349039B13434B6000BF05B014
S11304C05DF804FB00000E40B43800005038000012
S11304D000B583B00E4B1B6C002B14BF012300230B
S11304E08DF807300A4B41F671321A64FFF7B0FEFB
S11304F0034600211846FFF7A1FF9DF80730002BA3
S113050002D0034B00221A6400BF03B05DF804FB61
S113051000000E4000B585B0019000910D4B1B6C9E
S1130520002B14BF012300238DF80F30094B41F633
S113053071321A6400990198FFF780FF9DF80F301B
S1130540002B02D0034B00221A6400BF05B05DF8F3
S113055004FB00BF00000E4086B001900F230593FA
S1130560019B03330493059B0393039A049B9342D7
S113057028BF13460293029B1B070293029B184653
S113058006B07047034B5B6A1B0903F0030318466C
S1130590704700BF00400E4082B00190054B5B6A7B
S11305A023F03002019B1B01024913434B6200BF3D
S11305B002B0704700400E4082B00190094BD3F85E
S11305C0443103F00103002B08D100BF054BD3F8DD
S11305D04021019B1340002BF8D100E000BF02B082
S11305E0704700BF00400E4000BF704700BF704717
S11305F000B587B001900B468DF8033000230493B7
S1130600019B1B0A03F00F03013B092B32D801A203
S113061052F823F03D06000049060000750600006C
S113062075060000430600004F060000590600004E
S113063075060000630600006F0600001B4B05935F
S11306401EE01B4B05931BE01A4B059318E01A4B55
S113065005930123049313E0184B0593102304938B
S11306600EE0174B05934FF48033049308E0154BC9
S1130670059305E041F63B111348FFF745FE11E0F1
S1130680019B1B0B03F01F030393049B002B02D05D
S11306900498FFF791FF9DF803301A4603990598D3
S11306A0FFF736FE07B05DF804FB00BF00400E40C4
S11306B0B0400E40C0400E40E0400E40E8400E40C6
S11306C0F0400E4050410E405038000000B585B057
S11306D0019001238DF80F30019B03F00F03029367
S11306E0029B013B072B00F2E78001A252F823F0A2
S11306F01107000073070000B1070000B9080000EB
S11307000308000041080000B90800006B0800005D
S1130710714BD3F8943003F00703023B052B23D825
S113072001A252F823F000BF51070000490700005E
S11307304107000059070000690700006107000035
S113074002238DF80F3013E003238DF80F300FE0F0
S113075004238DF80F300BE00B238DF80F3007E0E6
S11307600C238DF80F3003E005238DF80F3000BF04
S1130770ABE0594BD3F8803003F00703042B0ED0C1
S1130780042B10D8012B02D0022B04D00BE003233E
S11307908DF80F300BE002238DF80F3007E00A23A9
S11307A08DF80F3003E001238DF80F3000BF8CE08B
S11307B0494BD3F8843003F00703013B032B1BD8C8
S11307C001A252F823F000BFD9070000E10700009E
S11307D0F1070000E907000003238DF80F300FE054
S11307E002238DF80F300BE00A238DF80F3007E059
S11307F006238DF80F3003E001238DF80F3000BF7E
S113080063E0354BD3F8883003F00703042B0ED094
S1130810042B10D8012B02D0022B04D00BE00323AD
S11308208DF80F300BE002238DF80F3007E00A2318
S11308308DF80F3003E001238DF80F3000BF44E042
S1130840254B1B6F03F00103002B05D0012B07D1AF
S113085009238DF80F3007E007238DF80F3003E0EC
S113086001238DF80F3000BF2FE01B4BD3F85C3110
S113087003F03003302B16D0302B18D8202B0ED099
S1130880202B14D8002B02D0102B04D00FE001230E
S11308908DF80F300FE007238DF80F300BE00423A1
S11308A08DF80F3007E008238DF80F3003E00123A3
S11308B08DF80F3000BF08E000238DF80F3041F6AB
S11308C08B610648FFF720FD00BF9DF80F301846E6
S11308D005B05DF804FB00BF00400E405038000036
S11308E000B58BB001900B468DF8033003230993B8
S11308F003238DF823300023069300230593019BE3
S1130900112B1BD19DF80330042B03D1FFF7E4FC1A
S113091005900CE09DF80330052B08D100F010FA87
S11309200346BD4A934202D900F00AFA0590059B9A
S1130930002B03D00021059800F0E2FF019B03F097
S11309400F030493049B013B072B00F25B8101A27C
S113095052F823F0750900007F0A0000B50A000070
S1130960050C0000950A0000590B0000050C00005E
S1130970850B00009DF80330023B0A2B48D801A2E6
S113098052F823F0B1090000BD090000C9090000B4
S1130990DB090000110A0000110A0000110A00001E
S11309A0110A0000050A0000ED090000F909000021
S11309B00423099300238DF823302FE003230993A4
S11309C001238DF8233029E00223099302238DF8B3
S11309D023309248FFF700FD20E00123099303230D
S11309E08DF823308D48FFF7F7FC17E005230993B2
S11309F003238DF8233011E00723099306238DF890
S1130A0023300BE041F64C718548FFF77DFCFFE095
S1130A1041F651718248FFF777FCF9E09DF82330E5
S1130A20062B06D09DF8233001220121184600F040
S1130A30CFFAFFF74DFDFFF7D7FD059B002B01D043
S1130A40FFF7A6FC774A099B5367FFF7E3FB039084
S1130A50FFF704FC03461846FFF7BEFCFFF7AEFCA5
S1130A60034619460398FFF755FD059B002B03D158
S1130A700121002000F044FFFFF7B8FDC8E06A4BF5
S1130A8006939DF80330062B04D141F69071644817
S1130A90FFF73AFC069B002B01D0069B00E0634B5A
S1130AA006939DF80330062B04D14FF4FD515C48A6
S1130AB0FFF72AFC069B002B01D0069B00E05C4B51
S1130AC006939DF80330013B092B3BD801A252F851
S1130AD023F000BFFD0A0000030B0000130B00000D
S1130AE0450B0000450B0000230B0000450B0000E4
S1130AF0450B0000450B00003F0B0000002307934B
S1130B0026E001220121002000F062FA022307936B
S1130B101EE001220121012000F05AFA012307936B
S1130B2016E0FFF79BFB03461846FFF755FC01222E
S1130B3002214048FFF7ECFB0323079308E004235A
S1130B40079305E041F6CB713548FFF7DDFB5FE025
S1130B50069B079A1A605BE09DF80330072B02D0CE
S1130B60092B04D007E02F4B00221A6709E02D4B14
S1130B7001221A6705E042F255012948FFF7C4FB38
S1130B8046E045E09DF80330013B072B28D801A23D
S1130B9052F823F0B50B0000E10B0000E10B00005C
S1130BA0CB0B0000E10B0000E10B0000BB0B0000CD
S1130BB0DB0B00000023079318E00122012104202D
S1130BC000F006FA0123079310E00122012102201C
S1130BD000F0FEF90223079308E00323079305E0DE
S1130BE042F2B3010E48FFF78FFB11E00D4BD3F82F
S1130BF05C3123F03002079B1B010A491343C1F8FF
S1130C005C3105E042F28A110548FFF77DFB00BF25
S1130C100BB05DF804FB00BF002D31010148E80171
S1130C205038000000400E4080400E4088400E4086
S1130C3084400E40B0400E4082B00190019B354A82
S1130C4093425FD0019B334A93425FD8019B324A5F
S1130C50934253D0019B304A934257D8019B2F4A69
S1130C60934247D0019B2D4A93424FD8019B2C4A73
S1130C7093423BD0019B2A4A934247D8019B294A7D
S1130C8093422FD0019B274A93423FD8019B264A87
S1130C90934223D0019B244A934237D8019B234A91
S1130CA0934217D0019B214A93422FD8019B204A9B
S1130CB093420BD0019B1E4A934227D8019B1D4AA5
S1130CC0934203D0019B1C4A93421FD11B4BD3F880
S1130CD080301CE0194BD3F88C3018E0174BD3F854
S1130CE0983014E0154BD3F89C3010E0134BD3F834
S1130CF0A0300CE0114BD3F8A83008E00F4BD3F828
S1130D00AC3004E00D4BD3F8B03000E000231846BB
S1130D1002B0704780D543020048E80180BA8C01D4
S1130D20C0EA21010024F400405DC600C0CF6A007F
S1130D3000093D0040420F0080841E00B081E00F96
S1130D40014B1B68184670470C10002000B587B093
S1130D5001900198FFF770FF0590059B002B03D0CD
S1130D60059BB3F1FF3F04D142F255315148FFF7DF
S1130D70CBFA514B1B6804934F4A019B136011201B
S1130D80FFF7A4FC0346052B03D1FFF7A1FBFFF7F4
S1130D902BFC00BF18214948FFF7DAFA0346002B61
S1130DA0F8D1059BB3F1FF3F04D142F266314148CB
S1130DB0FFF7AAFA019B424A93421AD0019B404A88
S1130DC093421BD8019B3F4A934204D0019B3E4A65
S1130DD0934207D012E0059B23F0C06343F0806385
S1130DE005930CE0059B23F0C06343F00073059367
S1130DF005E0059B23F0C063059300E000BF1120CC
S1130E00FFF764FC0346052B02D10198FFF7E4FACF
S1130E10019A049B9A4203D90121019800F070FDC4
S1130E202A4A059B13611120FFF750FC0346052B4A
S1130E3026D1FFF7EFF90390039A019B9A4204D954
S1130E4042F292311B48FFF75FFA1B4B1B68039A6F
S1130E509A4204D942F293311648FFF755FA164BD9
S1130E601B68019A9A4204D042F294311148FFF768
S1130E704BFAFFF7A3FA034619460398FFF74AFB18
S1130E80FFF7ECF903461846FFF7A6FA019A049B0C
S1130E909A4203D80121002000F032FD1120FFF70F
S1130EA015FC0346052B01D1FFF7A0FB00BF07B0DB
S1130EB05DF804FB503800000C10002040410E4047
S1130EC000093D0040420F0080841E0000400E4097
S1130ED010B584B001901120FFF7F8FB0346042BF2
S1130EE004D142F273413748FFF70EFA0122002180
S1130EF0022000F06DF8019B5B78002B07D1019B69
S1130F009B78002B03D1019BDB78002B04D042F2A9
S1130F10AF412C48FFF7F8F900230393019B1B7C96
S1130F20012B04D142F2B6412648FFF7EDF9019BAB
S1130F301B7C022B01D101230393234B5B6A23F017
S1130F4001022149039B13434B62019B1B781A4600
S1130F5008211E48FFF7DCF9019B9B88DB02019AFC
S1130F60527A1146184A0B43D362174B1B6B03F09A
S1130F707F62019BDB88DB021343019A927A1A4356
S1130F80019B1B7ADB0142EA0304019B1B7A18468E
S1130F90FFF7E2FA03460C4A23431363019B5B7B8E
S1130FA01A03019B9B7B1B011343019AD27B1A43B7
S1130FB0019B1B7B1B04044913434B6300BF04B018
S1130FC010BD00BF5038000000400E4024400E40C9
S1130FD000B589B003468DF807300B468DF806300E
S1130FE013468DF805309DF80730042B3BD801A239
S1130FF052F823F0511000003F1000001B100000B5
S1131000091000002D10000001230593022304930E
S113101001230793002306932BE00423059308235D
S11310200493032307930223069322E010230593DA
S113103020230493052307930423069319E04023F4
S1131040059380230493072307930623069310E054
S11310504FF4807305934FF40073049309230793AB
S11310600823069305E042F2D8514948FFF74CF9AA
S11310708BE09DF80630002B6AD000238DF80F30EA
S11310809DF80730022B1BD1FFF77CFA0346002B97
S113109016D1404BDB6B03F48063002B04D142F286
S11310A0E7513B48FFF730F901238DF80F303A4BF5
S11310B05B6A03F00103012B02D10120FFF76CFAF4
S11310C0354A059B136600BF06993448FFF740F97B
S11310D00346002BF8D09DF80530002B55D000BFF7
S11310E007992E48FFF734F90346002BF8D09DF8F2
S11310F00730022B49D19DF80F30002B45D0264BE9
S11311005B6A03F00103012B05D101222021022097
S113111000F090F903E00021022000F02DF90220F4
S113112000F03EF80290012200210220FFF750FF58
S11311300299022000F074F8174A059B136600BF59
S113114007991648FFF704F90346002BF8D01CE072
S1131150114A049B136600BF0F4BD3F89030012152
S1131160069A01FA02F21340002BF5D19DF80530DE
S1131170002B0AD000BF084BD3F890300121079A06
S113118001FA02F21340002BF5D109B05DF804FB1B
S11311905038000000300E4000400E4090400E4099
S11311A000B585B003468DF807309DF80730013B44
S11311B0032B24D801A252F823F000BFCD11000064
S11311C0F1110000D9110000E5110000124B1B6A57
S11311D0C3F3080303931AE00F4B1B6903F07F0367
S11311E0039314E00C4B9B6903F07F0303930EE01D
S11311F0094BD3F89C30C3F30A03039307E000239D
S1131200039342F264610548FFF77EF800BF039B35
S1131210184605B05DF804FB00400E40503800004D
S113122000B585B0034600918DF807309DF807306E
S1131230013B032B00F28D8001A252F823F000BF82
S1131240511200000513000091120000CB1200009F
S1131250009BB3F5007F04D342F289614248FFF753
S113126053F8009BC3F30803009300BF1A213F48BF
S1131270FFF76EF80346002BF8D13D4B1B6A23F4AD
S1131280FF7323F001033A49009A13430B6266E0AB
S1131290009B7F2B04D942F296613348FFF734F860
S11312A0009B03F07F03009300BF18212F48FFF732
S11312B04FF80346002BF8D12D4B1B6923F07F0216
S11312C02B49009B13430B6149E0009B7F2B04D9FE
S11312D042F2B1612448FFF717F8009B03F07F0343
S11312E0009300BF19212148FFF732F80346002B71
S11312F0F8D11F4B9B6923F07F021D49009B1343C8
S11313008B612CE01A4BD3F8903003F00403002BCC
S113131004D042F2C1611448FEF7F6FF144B5B6A35
S113132023F03003124A43F010035362009BDB099D
S113133003F00F031846FFF70FF903900C4B1A6BD9
S11313400C4B1340009A1A430949039B13430B6344
S113135005E042F2DB610448FEF7D6FF00BF00BFA0
S113136005B05DF804FB00BF5038000040410E405A
S113137000400E4000F8FF0F00B585B003460A4652
S11313808DF8073013468DF806309DF80730022B90
S113139004D042F2F3612448FEF7B6FFFFF7F2F8F7
S11313A00346002B03D14FF4400303931DE09DF843
S11313B00630302B0DD0302B0FDC002B05D0202B2A
S11313C00BD14FF4000303930FE04FF44003039356
S11313D00BE04FF44003039307E0144B039342F2F2
S11313E00E711148FEF790FF00BF00BF104BD3F8F9
S11313F09020039B1340039A9A42F7D1039B03F472
S11314008003002B0AD00A4BD3F8A03003F4806386
S1131410002B14BF01230023DBB200E00123184694
S113142005B05DF804FB00BF50380000FF33E1074E
S113143000400E4000B583B003468DF807300B46DC
S11314408DF8063013468DF805309DF80730022BD1
S11314501AD19DF80630002B08D0114B4FF480624E
S1131460C3F8A8200E4A9DF8063053669DF805304F
S1131470002B0FD09DF806209DF807301146184622
S1131480FFF77AFF034607E042F244710548FEF78E
S11314903BFF00E000BF0123184603B05DF804FBE6
S11314A000400E405038000082B0EFF310830093E8
S11314B0009B019372B600BF019B184602B07047AF
S11314C082B00190019B002B01D162B600BF00BF26
S11314D002B0704784B0EFF311830193019B03932F
S11314E060230293029B83F3118800BF039B184679
S11314F004B0704784B00190019B0393039B83F372
S1131500118800BF00BF04B0704708B5FEF782FE23
S113151000BF08BD00B587B0039002910192029B01
S11315201F2B03D991210A48FEF7EEFE039B03F11A
S1131530424303F58013DA00029B13449B00059396
S1131540059B019A1A6000BF07B05DF804FB00BF59
S1131550DC38000084B001900091019B03F1424308
S113156003F58013DA00009B13449B000393039B51
S11315701B68184604B07047054B1B6803F0400312
S1131580002B01D1012300E000231846704700BF5F
S11315903C300E4008B5FFF7EFFF034683F001032C
S11315A0DBB2002B08D100BF12210448FFF7D2FFA1
S11315B00346002BF8D100E000BF08BD04300E4004
S11315C008B5FFF7E7FF044B5B681B0C03F003034C
S11315D0DBB2184608BD00BF00300E4082B0019057
S11315E0024A019BD36200BF02B0704700300E4034
S11315F0014B5B6A1846704700300E40024B0022D4
S11316005A6300BF704700BF00300E40024B4AF6D9
S1131610E8525A6300BF704700300E40024B00226C
S1131620C3F8802100BF704700400E40034B45F6CD
S11316300E02C3F8802100BF704700BF00400E4077
S113164082B003468DF807309DF80730C3F10203DA
S1131650102202FA03F3184602B0704710B584B0A2
S113166003468DF807309DF80730002B1BD14A4BF9
S1131670D3F89030494A13601120FFF727F8034646
S11316801A46474B1A70FFF785FF464B5B681B0CE5
S1131690DBB203F00303DAB2434B1A703E4B1B690F
S11316A0424A136075E0FFF767FF0346002B07D03B
S11316B03D4B1B783B4C1846FFF7C2FF03462361A2
S11316C0354BD3F8803103F001030393FFF7AEFFEA
S11316D000230293314B1B6803F00103029A134366
S11316E002932E4B1B6803F01003029A13430293D8
S11316F02A4B1B6803F04003029A13430293274BBF
S11317001B6803F00403029A13430293234B1B68E0
S113171003F48073029A134302931F4A029B1366D5
S1131720FFF738FF1F4B1B6803F01003002B18D082
S113173000BF194BD3F8403103F08073002BF8D16C
S1131740154A1A4B1B681361154B1B78052B08D1DE
S1131750174B1C68FFF734FF034619462046FEF773
S1131760D9FE0F4B1B78052B05D00D4B1B78194662
S11317701120FFF7B5F8094B1B6803F00103002B98
S113178002D1054B02221A66039B002B01D0FFF7FE
S113179045FF00BF04B010BD00400E40C41000203F
S11317A0C810002000300E40C9100020CC100020CA
S11317B00C10002000B583B0FFF7DEFE034683F073
S11317C00103DBB2002B1FD1FFF7E4FE104B1B68B3
S11317D01B0A03F0030301930D4B5B681B0C03F01E
S11317E003030093019A009B9A4206D9084B1B6895
S11317F0074A43F01003136007E0054B1B68044AD3
S113180023F01003136000E000BF03B05DF804FB95
S113181000300E4082B00A4B1B6803F01003002B0B
S11318200BD0084B1B691B0C03F01F030193019B96
S1131830082B02D1044B054A1A6000BF02B070475E
S113184000300E4000400E400C100020C0EA210180
S113185000BF704700BF704700BF704700BF7047AC
S113186000B585B003468DF807309DF80730002B8E
S113187002D00020FFF7F2FEFFF79CFF1D4B1B690F
S11318801C4A43F004031361FFF7E2FFFFF7E2FF92
S1131890194B1B6803F01003002B08D0FFF704FE5C
S11318A0039001F039FF0398FFF70AFE00E030BF10
S11318B0FFF7D4FFFFF7D0FF9DF80730002B03D0CC
S11318C00120FFF7CBFE01E0FFF7A4FF0B4B1B68E1
S11318D00A4A23F0004313609DF8073083F00103A4
S11318E0DBB2002B01D0FFF710FE00BF05B05DF89E
S11318F004FB00BF00ED00E000300E404C310E4010
S113190000B585B001900B468DF80330FFF734FE27
S1131910034683F00103DBB2002B2AD1019B002B89
S11319200FD1164BD3F800311B0A03F01F03013308
S11319300293FEF793FC0246029B02FB03F303931C
S113194001E0019B03930E4B1B78002B0AD0039BF1
S11319500C4A934206D89DF803301946022000F041
S113196013F807E09DF803301946002000F00CF846
S113197000E000BF05B05DF804FB00BF00400E406E
S1131980C0100020002D310110B586B003460A4670
S11319908DF8073013468DF80630FFF7EDFD03464A
S11319A083F00103DBB2002B3FD1FFF709FE0346AE
S11319B01A469DF80730934239D01E4BD3F80031B4
S11319C01B0A03F01F0301330593FEF747FC049041
S11319D0049B059A02FB03F303939DF80730022B43
S11319E00CD1039B144A934204D940F23161134849
S11319F0FEF78AFC02210498FEF78CFD104C9DF83A
S1131A0007301846FFF71CFE034623619DF8063095
S1131A10002B01D0FFF7BEFD9DF80730002B07D146
S1131A2000210498FEF776FD02E000BF00E000BF4D
S1131A3006B010BD00400E40002D310140390000B9
S1131A4000300E4000B583B001900E4B1B6823F4A8
S1131A504072019B5B781B020A4913430B60019B94
S1131A605B78022B0AD1084B5B6A03F00053002B0E
S1131A7004D040F26D610548FEF746FC00BF03B098
S1131A805DF804FB00300E4000400E404039000079
S1131A90012318467047000000B583B00C4BDB6E81
S1131AA00B4A43F08073D36600210A48FFF752FDC6
S1131AB00190019B002B03D0042000F075FD02E08F
S1131AC0002000F071FD00BF03B05DF804FB00BF0F
S1131AD000300E404C300E4000B58BB0012309930A
S1131AE0099B1B050893424BDB6C1B0A03F00F0395
S1131AF00793404B1B881A463E4B1B8828335B08D0
S1131B00134403F12801079B5A1C13469B001344FA
S1131B10B1FBF3F3013B0693069B05930723049360
S1131B20049A059B934228BF13460693069B1B0603
S1131B300693069B23F0E063002B04D040F6890152
S1131B402D48FEF7E1FB089B23F4E003002B04D0AF
S1131B5040F68A012848FEF7D7FB254BDB6C23F0BF
S1131B60EE620699089B0B4321491343CB64234B34
S1131B70B3F90030002B36DB204BB3F90030ADF85D
S1131B800E30BDF80E20BDF80E3028335B08134428
S1131B9003F12802079B01335900079B01335B08BB
S1131BA00B44B2FBF3F30293029B019307230093CC
S1131BB0009A019B934228BF13460293029B1B0188
S1131BC00293029B23F07003002B04D040F6A20181
S1131BD00948FEF799FB064B1B6D23F0700204497C
S1131BE0029B13430B6500BF0BB05DF804FB00BF01
S1131BF000300E40B810002040390000BC10002016
S1131C0082B001900B46ADF80230019B9AB2044BAE
S1131C101A80044ABDF80230138000BF02B0704736
S1131C20B8100020BC10002000B583B003468DF826
S1131C3007309DF80730002B02D0012B04D007E0B9
S1131C40084B094A9A6509E0064B084A9A6505E07B
S1131C5040F6CE010648FEF757FB00BF00BF03B0B5
S1131C605DF804FB00300E4077402057372110B751
S1131C704039000000B585B003468DF807300B46A7
S1131C808DF8063013468DF80530344BD3F8803187
S1131C9003939DF80630032B1CD801A252F823F0BD
S1131CA0B11C0000B91C0000C31C0000CD1C0000C6
S1131CB0039BDBB2039314E0039B1B0ADBB2039385
S1131CC00FE0039B1B0CDBB203930AE0039B1B0E88
S1131CD0039306E040F612112148FEF715FB00239A
S1131CE038E09DF80530002B16D1039B1B030393AA
S1131CF0039B23F47043002B06D040F61D111848B3
S1131D00FEF702FB002325E0164BDB6E23F4704242
S1131D101449039B1343CB669DF80530012B18D15E
S1131D20039B1B030393039B23F47043002B06D0F4
S1131D3040F629110A48FEF7E7FA00230AE0094BA6
S1131D40D3F8EC3023F470420649039B1343C1F8E3
S1131D50EC300123184605B05DF804FBB081E00FB8
S1131D604039000000300E4000B589B00390029164
S1131D7011461A460B468DF8073013468DF8063087
S1131D8000230793002306939DF806301B029DF859
S1131D900720002A01D0012200E00022134305930A
S1131DA0059B40F2013293425CD0059B40F2013224
S1131DB0934200F29380059BB3F5407F00F082804C
S1131DC0059BB3F5407F00F28980059B40F2012218
S1131DD093423BD0059B40F2012293427ED8059B5F
S1131DE0B3F5007F62D0059BB3F5007F76D8059BE1
S1131DF040F2011293421DD0059BB3F5817F6DD251
S1131E00059BB3F5807F45D0059BB3F5807F65D8EE
S1131E10059B002B32D0059B012B5FD1374BD3F8A8
S1131E2074310793079B1B0ADBB20693079BDBB253
S1131E30079359E0314BD3F874310793079B1B0E7A
S1131E400693079B1B0CDBB207934DE02B4BD3F897
S1131E5078310793079B1B0ADBB20693079BDBB21F
S1131E60079341E0254BD3F878310793079B1B0E6A
S1131E700693079B1B0CDBB2079335E01F4BD3F88B
S1131E806C310793079B1B0ADBB20693079BDBB2FB
S1131E90079329E0194BD3F86C310793079B1B0E6A
S1131EA00693079B1B0CDBB207931DE0134BD3F87F
S1131EB070310793079B1B0ADBB20693079BDBB2C7
S1131EC0079311E00D4BD3F870310793079B1B0E5A
S1131ED00693079B1B0CDBB2079305E040F68E11BB
S1131EE00748FEF711FA00BF039B079A1A60029B8A
S1131EF0069A1A6000BF09B05DF804FBB081E00FD8
S1131F004039000000B585B003468DF80730424BD8
S1131F105B6B012B0CBF012300238DF80F30FFF7FF
S1131F2075FB00BF3C4B9B6F03F00103002BF9D101
S1131F30394B1B6C03F003030293029B002B04D068
S1131F4001220D213548FFF7E5FA029BDBB29DF82B
S1131F5007209A4209D19DF80730002B58D100225E
S1131F600D212E48FFF7D6FA52E0029B032B02D034
S1131F70029B002B22D19DF80730022B03D09DF841
S1131F800730012B1AD14FF40020FFF727FB00BFC5
S1131F90214B9B6F03F00103002BF9D11E4B1B6CEB
S1131FA023F003031C4A43F00103136400BFFFF74B
S1131FB01FFB034603F40023002BF8D000BF164B8D
S1131FC09B6F03F00103002BF9D1134B1B6C23F01F
S1131FD003029DF80730104913430B6400BF0E4BF6
S1131FE09B6F03F00103002BF9D19DF80730002B00
S1131FF014BF01230023DBB21A460D210748FFF763
S113200089FA9DF80F30002B03D0FFF7F7FA00E0B0
S113201000BF05B05DF804FB00300E4054300E40A4
S113202000B585B001906C4B02229A636A4B9B6B9E
S113203003F00F03022B06D040F64B216748FEF74E
S113204063F90023C3E0FFF723FD019B1B89C82B21
S113205004D940F655216148FEF756F9019B9A8848
S1132060019B1B899A4204D940F656215B48FEF72E
S11320704BF9019BB3F90C30C82B04DD40F6572112
S11320805648FEF741F9019B5B78012B09D1019B6E
S11320909B88C82B12D940F65B215048FEF734F9CF
S11320A00CE0019B5B78022B08D1019B9B880A2BD7
S11320B004D94FF426614948FEF726F9019BDB88D1
S11320C042F21072934204D940F668214348FEF765
S11320D01BF9019BDB884A2B02D80023039315E0EC
S11320E0019BDB88B3F5FA7F03D24FF0805303934F
S11320F00CE0019BDB8840F6C312934203D84FF0F7
S11321000053039302E04FF040530393324BDB6CD4
S113211023F0405323F00103019AB2F90C20002A62
S113212001DB012100E00021039A0A432A491343F9
S1132130CB64294BD3F8EC30274A43F44073C2F8FC
S1132140EC30019B9A88264B1A80FFF7A5FC019B73
S11321501B891A46019BB3F90C3019461046FFF748
S11321604FFD019B9B88184600F0ACF9019B9B7BBB
S11321701846FFF759FD019B5B880122012118468F
S113218000F032F8034683F00103DBB2002B06D0E3
S113219040F69F211148FEF7B7F8002317E00E4BD5
S11321A0DB6B0D4A43F48063D363019B5B78184671
S11321B0FFF7A8FE019B9B7A202B01D1012300E0AD
S11321C000231A4605210748FFF7A4F901231846FE
S11321D005B05DF804FB00BF00300E40403900003C
S11321E0BA1000203C300E4010B594B001900B465C
S11321F08DF8033013468DF8023000231393002327
S1132200119309AB00221A605A609A6006AB00224F
S11322101A605A609A6003AB00221A605A609A608E
S1132220A44B1B88ADF8083000238DF80A30019BBD
S1132230B3F5E16F06D3019B40F6B832934201D85F
S1132240012300E000238DF843309DF8433003F070
S113225001038DF843309DF8433083F00103DBB272
S1132260002B06D040F6EE219348FEF74DF80023EC
S11322701DE1019BB3F5E16F8CBF012300238DF8B1
S113228042309DF84230002B0AD04FF4E16313939F
S113229040F6B8331193119A139BD31A129309E0A1
S11322A04FF4966313934FF4E1631193119A139BC4
S11322B0D31A12939DF84230002B0BD07F4BD3F8E6
S11322C068310893089B1B0E0593089B1B0CDBB21B
S11322D008930AE0794BD3F868310893089B1B0AEA
S11322E0DBB20593089BDBB20893754BDB6C1B0FC9
S11322F0DBB203F00303DBB28DF808309DF808303D
S11323009DF8422003A906A8FFF72EFD6C4BD3F8D5
S1132310EC301B0ADBB203F00303DBB28DF80930A7
S11323209DF809409DF8422003AB191D06AB181D0A
S11323302346FFF719FD019A139BD31A0599089AAE
S11323408A1A03FB02F2129BB2FBF3F30B930B9A70
S1132350089B13440B93019A139BD31A0399069A6F
S11323608A1A03FB02F2129BB2FBF3F30993099A54
S1132370069B13440993019A139BD31A0499079A51
S11323808A1A03FB02F2129BB2FBF3F30A930A9A32
S1132390079B13440A930B9A059B9A4213D80B9AF2
S11323A0089B9A420FD30A9A049B9A420BD80A9A22
S11323B0079B9A4207D3099A039B9A4203D8099A26
S11323C0069B9A4206D240F63C313B48FDF79CFFFF
S11323D000236CE09DF80230002B12D0384BDB6DEB
S11323E023F4FE4323F002030B9A120213439DF8D5
S11323F04220002A01D0022200E000223049134387
S1132400CB659DF80330002B50D09DF808109DF843
S1132410423000221846FFF72DFC034683F00103E7
S1132420DBB2002B06D040F64B312348FDF76CFF9E
S113243000233CE09DF809109DF842300122184623
S1132440FFF718FC034683F00103DBB2002B06D030
S113245040F653311848FDF757FF002327E0099B46
S11324600F930A9B0E930E9A0F9B934238BF134609
S11324700993099B0D93E7230C930C9A0D9B9342AC
S113248028BF134609930E4B5B6E23F4FF7323F0AE
S11324900103099A520013439DF84220002A01D0F7
S11324A0012200E00022064913434B66012318462B
S11324B014B010BDA439000040390000B081E00F11
S11324C000300E4000B585B0019000230393344BD7
S11324D01B6F03F007030293314BDB6C03F0010322
S11324E0002B14D0029B012B11D9019B132B02D872
S11324F0042303933DE0019B132B05D9019B272B58
S113250002D80823039334E01023039331E0244BCF
S1132510DB6C03F00103002B14D1029B012B11D8B7
S1132520019B092B02D80423039322E0019B092B6E
S113253005D9019B132B02D80823039319E0102318
S1132540039316E0164BDB6C03F00103002B0BD056
S1132550029B012B08D8019B272B02D80823039345
S113256007E01023039304E040F691310D48FDF792
S1132570CBFE039B013B0393039B1A02039B1B03A8
S113258013430393064BDB6C23F47F420449039B00
S11325901343CB64FFF7A0FA00BF05B05DF804FB5A
S11325A000300E404039000000B585B003468DF878
S11325B0073000211248FEF7CDFF0390039B002B48
S11325C003D19DF80730012B07D9039B002B04D1BD
S11325D040F6AF310B48FDF797FE0B4B1B6F23F012
S11325E007029DF80730084913430B67074B1B8804
S11325F01846FFF767FF00BF05B05DF804FB00BF96
S11326004C300E404039000000300E40BA1000201B
S113261084B001900091019B03F1C0630393039B79
S1132620009A1A6000BF04B0704784B00190009112
S1132630019B03F180630393039B009A1A6000BF1C
S113264004B0704700B587B0039002910192FEF781
S11326502BFF0590039B1A68029BDB431A400199E8
S1132660029B0B401A43039B1A600598FEF728FF50
S113267000BF07B05DF804FB00B583B003460091CA
S11326808DF807309DF80730002B42D09DF80730B5
S1132690012B3BD09DF80730022B34D09DF8073036
S11326A0032B2DD09DF80730042B27D09DF807303D
S11326B0052B20D09DF80730062B1AD09DF8073043
S11326C0072B14D09DF80730082B0ED09DF8073047
S11326D0092B07D09DF807300A2B01D107231AE0F4
S11326E0002318E04FF4404315E00F2313E00023C8
S11326F011E000230FE04FF6FF730CE000230AE023
S11327004FF47F4307E040F6FF7304E04FF6C073D5
S113271001E040F2FF33009AD34003F00103002BA1
S113272004D14FF479710D48FDF7EEFD9DF80720B3
S113273013465B0013441B010C3303F1804303F580
S113274020430121009A01FA02F211461846FFF7CC
S11327506CFF00BF03B05DF804FB00BF0C3A00003F
S113276000B583B0034600918DF807309DF807301B
S1132770002B42D09DF80730012B3BD09DF8073049
S1132780022B34D09DF80730032B2DD09DF8073051
S1132790042B27D09DF80730052B20D09DF8073057
S11327A0062B1AD09DF80730072B14D09DF807305C
S11327B0082B0ED09DF80730092B07D09DF8073061
S11327C00A2B01D107231AE0002318E04FF44043F9
S11327D015E00F2313E0002311E000230FE04FF670
S11327E0FF730CE000230AE04FF47F4307E040F658
S11327F0FF7304E04FF6C07301E040F2FF33009A28
S1132800D34003F00103002B04D140F213410D48DF
S1132810FDF77AFD9DF8072013465B0013441B0166
S11328200C3303F1804303F520430121009A01FA9C
S113283002F211461846FFF7EBFE00BF03B05DF845
S113284004FB00BF0C3A000000B583B003460091BE
S11328508DF807309DF80730002B27D09DF80730FE
S1132860012B23D09DF80730022B1FD09DF8073091
S1132870032B1BD09DF80730042B1CD09DF8073088
S1132880052B13D09DF80730062B14D09DF8073084
S1132890072B10D09DF80730082B07D09DF8073080
S11328A0092B03D09DF807300A2B04D1009B23F099
S11328B00113002B03D07D210B48FDF725FD9DF866
S11328C0072013465B0013441B0103F1804303F507
S11328D02043009A4FF001111846FFF7B3FE00BFE2
S11328E003B05DF804FB00BF703A000000B585B08A
S11328F00291019303468DF80F3013468DF80E3084
S11329009DF80F30002B42D09DF80F30012B3BD0A7
S11329109DF80F30022B34D09DF80F30032B2DD0AF
S11329209DF80F30042B27D09DF80F30052B20D0B5
S11329309DF80F30062B1AD09DF80F30072B14D0BA
S11329409DF80F30082B0ED09DF80F30092B07D0BF
S11329509DF80F300A2B01D107231AE0002318E059
S11329604FF4404315E00F2313E0002311E000234C
S11329700FE04FF6FF730CE000230AE04FF47F43AF
S113298007E040F6FF7304E04FF6C07301E040F245
S1132990FF33029AD34003F00103002B04D140F229
S11329A01D113D48FDF7B0FC9DF80E30002B0FD0F3
S11329B0019B002B06D09DF80F3002991846FFF7B3
S11329C0CFFE05E09DF80F3002991846FFF754FE3C
S11329D0029B072B23D831499DF80F2013465B0037
S11329E013441B010B4404331A68029B9B000F2100
S11329F001FA03F3DB4313409DF80E10029A920090
S1132A0001FA02F2114625489DF80F201943134696
S1132A105B0013441B0103440433196024E01F4981
S1132A209DF80F2013465B0013441B010B4408332D
S1132A301A68029B083B9B000F2101FA03F3DB4356
S1132A4013409DF80E10029A083A920001FA02F21D
S1132A50114612489DF80F20194313465B00134496
S1132A601B010344083319609DF80E30002B0FD16D
S1132A70019B002B06D09DF80F3002991846FFF7F2
S1132A806FFE05E09DF80F3002991846FFF7F4FD3C
S1132A9000BF05B05DF804FB703A000000A00040E0
S1132AA082B00190009100BF019B5A6B009B1340C0
S1132AB0002BF9D100BF00BF02B0704700B585B04C
S1132AC0039002910192039B104A934207D1029B07
S1132AD0012B04D8019B1B0C1B04002B03D0D92110
S1132AE00B48FDF711FC029B002B03D0029B012B2A
S1132AF004D007E0039B019A1A6103E0039B019A47
S1132B005A6100BF00BF05B05DF804FB00600440DB
S1132B10D43A000000B583B001900B468DF8033021
S1132B20019B0D4A934204D040F209110B48FDF772
S1132B30EBFB02210198FFF7B3FF9DF80330002B54
S1132B4003D0019B01225A6002E0019B02225A60D9
S1132B5000BF03B05DF804FB00600440D43A0000F9
S1132B6000B585B00190009100230393019B3E4A78
S1132B70934204D04FF4B3713C48FDF7C5FB009B6E
S1132B801B7883F00103DBB2002B0CD0019B9B6804
S1132B9003F00103002B06D002210198FFF780FF08
S1132BA0019B02225A60009B5B78002B03D0039B9D
S1132BB043F480530393009B9B78002B03D1009B29
S1132BC0DB68002B0BD0039B43F400730393009B3F
S1132BD0DB68002B03D0009BDA68019B1A61009B21
S1132BE0DB78002B03D0039B43F480730393009B97
S1132BF01B79002B03D0039B43F040030393009BFA
S1132C005B79002B03D0039B43F080030393009B69
S1132C109B799B001A46039B13430393009BDB7928
S1132C201B011A46039B13430393009B1B7A1A460A
S1132C30039B13430393019B039A1A60009B1B7825
S1132C40002B0CD0019B9B6803F00103002B06D1E1
S1132C5002210198FFF724FF019B01225A6000BF63
S1132C6005B05DF804FB00BF00600440D43A0000E6
S1132C7000B58BB003468DF807309DF8073003F09C
S1132C800103002B0ED0614B1B889BB201339AB217
S1132C905E4B1A8000F06EF95D4B1B68002B01D06F
S1132CA000F04EF99DF8073003F00203002B00F00A
S1132CB0A8800023089300F041FA079000230693AC
S1132CC000230593534B1B68079AD31A0893FEF706
S1132CD001FC099063E0089B04934D4B1B6803932C
S1132CE04B4B1B6806934B4A079B13600FE0069BF4
S1132CF01A79039B1B799A4201D9039B0693039B80
S1132D005B69049AD31A0493039B9B680393039B04
S1132D10002B04D0039B5B69049A9A42E7D209987A
S1132D20FEF7E8FB069B5B69089AD31A0893069B97
S1132D3000225A61FEF7CEFB0990069800F0C6F80F
S1132D400998FEF7D7FB069B1B69002B0BD0FEF7F7
S1132D50C1FB0990069B1B691946069800F05EF8B2
S1132D600998FEF7C7FB069BDB68002B06D0069B81
S1132D70DB68069A1268114606989847059B01334A
S1132D80059300F0DBF90290029A079BD31A089A84
S1132D9013440893029B0793FEF79CFB09901C4B7A
S1132DA01B68002B05D01A4B1B685B69089A9A4272
S1132DB091D2194B00221A70059B012B09D1069B55
S1132DC0002B06D0069BDB88022B02D1124B01227A
S1132DD01A700F4B1B68002B0DD00D4B1B685969E3
S1132DE00B4B1B68089A8A1A5A610A4A079B13609C
S1132DF000F0A6F802E0022000F01EFA0998FEF79F
S1132E0079FB00BF0BB05DF804FB00BFD0100020BD
S1132E10D4100020D8100020DD10002086B00190CE
S1132E200091009B0593019B059A5A61264B1B68F0
S1132E30002B40D000230493234B1B6803930CE026
S1132E40039B5B69059AD31A0593019B059A5A6102
S1132E50039B0493039B9B680393039B002B13D056
S1132E60039B5B69059A9A42EAD2039B5B69002B38
S1132E70E6D0039B5B69059A9A4205D1019B1A79B6
S1132E80039B1B799A42DBD8049B002B03D0049B41
S1132E90019A9A6002E00C4A019B1360019B039A19
S1132EA09A60039B002B0CD0039B5A69059BD21A92
S1132EB0039B5A6105E0044A019B1360019B0022B5
S1132EC09A6000BF06B07047D410002084B001900F
S1132ED000230393194B1B68029304E0029B0393A2
S1132EE0029B9B680293029B002B03D0029A019BD6
S1132EF09A42F3D1029A019B9A4201D0022319E02B
S1132F00039B002B04D0019B9A68039B9A6003E007
S1132F10019B9B68094A1360019B9B68002B08D0A6
S1132F20019B9B685969019B5A69019B9B680A44F0
S1132F305A610023184604B0704700BFD410002023
S1132F4000B583B0094B1B685A69094B1B681344CD
S1132F500193022000F04EF9019800F0FDF800F012
S1132F6041F800BF03B05DF804FB00BFD41000209B
S1132F70D810002000B583B000F0E0F80190174BA2
S1132F801B68002B22D0164B1B68019AD31A00939E
S1132F90124B1B685B69009A9A420BD80F4B1B6853
S1132FA059690E4B1B68009A8A1A5A610C4A019B94
S1132FB013600EE0094B1B685B69019AD31A084A37
S1132FC01360064B1B6800225A6102E0044A019B0D
S1132FD0136000BF03B05DF804FB00BFD4100020F1
S1132FE0D810002082B0134B1B6801930023009378
S1132FF0114B00221A7014E0019BDB8803F00203DA
S1133000002B03D00C4B01221A700FE0019B9B682C
S11330100193019B002B08D0019B5B69009A134428
S11330200093009B012BE7D900E000BF00BF02B072
S1133030704700BFD4100020DC10002000B583B01E
S11330400190019B022B04D940F293110648FDF72D
S11330505BF9064A019B04331B01134404331B68C8
S1133060184603B05DF804FB083B00000020044050
S113307000B583B001900091019B022B04D940F26A
S1133080A7110748FDF740F9064A019B04331B01C9
S113309013440433009A1A6000BF03B05DF804FBC4
S11330A0083B00000020044000B583B00190019863
S11330B0FFF7C4FF0346184603B05DF804FB00B5F0
S11330C083B00190009100990198FFF7D1FF00BFF0
S11330D003B05DF804FB0000014B9B681846704781
S11330E00020044082B00190024A019B136200BF99
S11330F002B070470020044082B00190044B5A6A29
S1133100019BDB43024913404B6200BF02B070478E
S11331100020044082B00190044B5A6A0349019B89
S113312013434B6200BF02B0704700BF002004404D
S1133130014B9B69184670470020044008B5FFF70F
S1133140CBFF0346184608BD08B50120FFF7ACFFC6
S11331500346184608BD000000B587B00190FFF78C
S1133160EDFF0490FFF7F0FF0390019B0593FFF739
S1133170DFFF034603F00403002B0AD104990398EC
S113318000F0BDF80346032B03D8039A049B9A422C
S11331901BD10499059800F0B2F80346022B02D81B
S11331A0049B03330593059BB3F1FF3F2CBF01221E
S11331B0002252429B1A0593059B013B19460120AC
S11331C0FFF77DFF022000F015F8084B1B78002B59
S11331D008D0074B1B6D064A43F002031365034BEB
S11331E000221A7000BF07B05DF804FB1010002025
S11331F00020044000B585B003468DF80730002355
S113320003939DF8073003F00103002B03D0039BC5
S113321043F0010303939DF8073003F00203002BEE
S113322003D0039B43F0040303930398FFF772FF57
S113323000BF05B05DF804FB00B585B003468DF80A
S11332400730002303939DF8073003F00103002B9C
S113325003D0039B43F0010303939DF8073003F06D
S11332600203002B0CD0039B43F004030393084B8D
S113327001221A70074B1B6D064A23F003031365E2
S11332800398FFF739FF00BF05B05DF804FB00BFEA
S1133290101000200020044000B585B000238DF8F4
S11332A00F30FEF717F90290FFF742FF0190019BE0
S11332B003F00103002B05D09DF80F3043F0010308
S11332C08DF80F30019B03F00403002B05D09DF80B
S11332D00F3043F002038DF80F30019B03F0070316
S11332E01846FFF7FFFE9DF80F301846FFF7C0FCA5
S11332F00298FEF7FFF800BF05B05DF804FB82B04A
S113330001900091019A009BD31A184602B07047AD
S113331008B500F039F800F057F8102311224FF0E7
S11333208041044800F00AF80121034800F002F942
S113333000BF08BD000040400060044000B58BB0F1
S1133340039002910192009300238DF81130039BA6
S11333500893029B099300238DF8103001238DF804
S11333601C3001238DF81D30019B0593009B0693AF
S113337004AB1946034800F047F800BF0BB05DF8F2
S113338004FB00BF0060044008B501210B48FDF7B1
S11333902FF9002200210120FDF71AFE002200214E
S11333A00020FDF715FE0A210548FDF799FA0121D1
S11333B00448FDF71DF900BF08BD00BF40410500EA
S11333C002001E0030253E0008B501210D48FDF71E
S11333D00FF94FF001110320FFF736FA00230422FE
S11333E008210320FFF782FA4FF001110320FFF7B1
S11333F02BFA0023042209210320FFF777FA00BFE8
S113340008BD00BF00350A0000B589B001900091E5
S1133410009BD3ED047A9FED437A67EE877AFCEE46
S1133420E77A17EE903A0793009BD3ED057A9FED68
S11334303D7A67EE877AFCEEE77A17EE903A0693C8
S1133440019B394A934203D101213848FDF7D0F852
S1133450019B01225A6000BF019B5B6B002BFBD1D7
S1133460019B9B6803F00103002B03D14F213048DB
S1133470FCF74AFF019B02225A6000BF019B5B6B71
S1133480002BFBD1019B0022DA6000238DF80B3066
S113349001238DF80A30009B1B788DF80930009BBE
S11334A05B788DF8083000238DF80C3000238DF8FC
S11334B00D3000238DF8103003238DF80E300323D4
S11334C08DF80F3002AB19460198FFF749FB00BF96
S11334D0019B5B6B002BFBD1079A00210198FFF73E
S11334E0EDFA069A01210198FFF7E8FA019B0122FF
S11334F09A61019B0122DA61009B5A68009B9B68D8
S11335001A43019B5A64009B1B7B1A46009B5B7BFE
S11335105B0013431A46019B1A6400BF09B05DF8AF
S113352004FB00BF00007A440060044080061600DB
S11335304C3C000000B583B001900B468DF803307D
S11335409DF8033019460198FFF7E4FA00BF03B071
S11335505DF804FB024BDB6C1B0EDBB218467047B4
S1133560B081E00F00B583B01D4B01225A64FFF710
S1133570F1FF03468DF807309DF80730002B0CD17E
S1133580184B4AF6E8521A60174B1B68164A43F068
S113359004031360134B00221A609DF80730012BBB
S11335A005D8124B1B68114A43F400531360104BA7
S11335B01B6A23F444130E4A43F488131362084B22
S11335C01B68074A43F4807313600A4B1B68094A5B
S11335D043F4F843136000BF03B05DF804FB00BF7D
S11335E000000E4090310E4098310E4064310E4080
S11335F000400E40A4310E4030B58BB01C4B06ACDD
S11336000FCB84E80F001B4B01AC1D460FCD0FC43C
S11336102B682380FFF7A6FF1748FDF797FB0023CD
S11336208DF8003000238DF8013006AB1846FEF704
S1133630F7FC02238DF801306B461846FEF702FAB8
S113364001AB1846FDF744FC012201210320FDF7DC
S1133650BFFC05211120FDF743F9002200210220BF
S1133660FDF7B6FCFFF754FE0120FEF7F9F8FBE77F
S11336706C3C00007C3C000080BA8C0108B5074B10
S1133680044613B10021AFF30080054B1868836A28
S113369003B19847204600F031F800BF0000000055
S11336A0903C000070B50D4D0D4C641BA410002619
S11336B0A64209D10B4D0C4C00F022F8641BA41057
S11336C00026A64205D170BD55F8043B9847013643
S11336D0EEE755F8043B98470136F2E794100020D2
S11336E094100020941000209810002002440346F7
S11336F0934200D1704703F8011BF9E7FEE700BFCE
S1133700F8B500BFF8BC08BC9E467047F8B500BFCA
S1133710F8BC08BC9E4670475FF800F075100020A6
S1133720633A5C73696C69636F6E6C6162735C733A
S1133730696D706C696369747973747564696F5CBD
S113374076355C646576656C6F7065725C73646B0A
S1133750735C6765636B6F5F73646B5F73756974C8
S1133760655C76332E325C706C6174666F726D5C6E
S1133770656D6C69625C696E635C656D5F636F6DDA
S11337806D6F6E2E68000000633A5C73696C696348
S11337906F6E6C6162735C73696D706C696369747C
S11337A07973747564696F5C76355C646576656C91
S11337B06F7065725C73646B735C6765636B6F5F7A
S11337C073646B5F73756974655C76332E325C70F9
S11337D06C6174666F726D5C656D6C69625C696E58
S11337E0635C656D5F6275732E680000633A5C7399
S11337F0696C69636F6E6C6162735C73696D706C24
S1133800696369747973747564696F5C76355C6433
S11338106576656C6F7065725C73646B735C676509
S1133820636B6F5F73646B5F73756974655C763328
S11338302E325C706C6174666F726D5C656D6C6960
S1133840625C696E635C656D5F636D752E68000014
S1133850433A2F53696C69636F6E4C6162732F53E3
S1133860696D706C696369747953747564696F2FD9
S113387076352F646576656C6F7065722F73646B33
S1133880732F6765636B6F5F73646B5F73756974C4
S1133890652F76332E322F706C6174666F726D2FC4
S11338A0656D6C69622F7372632F656D5F636D75EF
S11338B02E63000040787D0100000000005A62027F
S11338C000010000C0CF6A0002000000809FD50004
S11338D002010000002D310102020000633A5C7312
S11338E0696C69636F6E6C6162735C73696D706C33
S11338F0696369747973747564696F5C76355C6443
S11339006576656C6F7065725C73646B735C676518
S1133910636B6F5F73646B5F73756974655C763337
S11339202E325C706C6174666F726D5C656D6C696F
S1133930625C696E635C656D5F6275732E6800001E
S1133940433A2F53696C69636F6E4C6162732F53F2
S1133950696D706C696369747953747564696F2FE8
S113396076352F646576656C6F7065722F73646B42
S1133970732F6765636B6F5F73646B5F73756974D3
S1133980652F76332E322F706C6174666F726D2FD3
S1133990656D6C69622F7372632F656D5F656D75FC
S11339A02E63000000000000633A5C73696C696375
S11339B06F6E6C6162735C73696D706C696369745A
S11339C07973747564696F5C76355C646576656C6F
S11339D06F7065725C73646B735C6765636B6F5F58
S11339E073646B5F73756974655C76332E325C70D7
S11339F06C6174666F726D5C656D6C69625C696E36
S1133A00635C656D5F6275732E680000633A5C7376
S1133A10696C69636F6E6C6162735C73696D706C01
S1133A20696369747973747564696F5C76355C6411
S1133A306576656C6F7065725C73646B735C6765E7
S1133A40636B6F5F73646B5F73756974655C763306
S1133A502E325C706C6174666F726D5C656D6C693E
S1133A60625C696E635C656D5F6770696F2E680088
S1133A70433A2F53696C69636F6E4C6162732F53C1
S1133A80696D706C696369747953747564696F2FB7
S1133A9076352F646576656C6F7065722F73646B11
S1133AA0732F6765636B6F5F73646B5F73756974A2
S1133AB0652F76332E322F706C6174666F726D2FA2
S1133AC0656D6C69622F7372632F656D5F677069D2
S1133AD06F2E63002E2E2F6765636B6F5F73646BAD
S1133AE05F332E322E312F706C6174666F726D2FBE
S1133AF0656D6C69622F7372632F656D5F6C65749D
S1133B00696D65722E630000633A5C73696C696366
S1133B106F6E6C6162735C73696D706C69636974F8
S1133B207973747564696F5C76355C646576656C0D
S1133B306F7065725C73646B735C6765636B6F5FF6
S1133B4073646B5F73756974655C76332E325C7075
S1133B506C6174666F726D5C656D6C69625C696ED4
S1133B60635C656D5F727463632E6800633A5C73B3
S1133B70696C69636F6E6C6162735C73696D706CA0
S1133B80696369747973747564696F5C76355C64B0
S1133B906576656C6F7065725C73646B735C676586
S1133BA0636B6F5F73646B5F73756974655C7633A5
S1133BB02E325C706C6174666F726D5C656D6C69DD
S1133BC0625C696E635C656D5F636F6D6D6F6E2EB5
S1133BD068000000633A5C73696C69636F6E6C61C2
S1133BE062735C73696D706C6963697479737475FD
S1133BF064696F5C76355C646576656C6F7065725C
S1133C005C73646B735C6765636B6F5F73646B5F3A
S1133C1073756974655C76332E325C706C6174669E
S1133C206F726D5C656D6C69625C696E635C656D19
S1133C305F636D752E680000010000000500000040
S1133C400000000002000003000000002E2E2F736D
S1133C5072632F536F757263652046696C65732FA9
S1133C606C6574696D65722E6300000000010807BD
S1133C700F000A00C8002000A0000100000000009E
S1133C80A00068010A200706020A040700000000D9
S1073C9014100020E8
S10B3C94B8C4FF7F0100000029
S1133C9C00F0490200800000C0EA2101C0EA2101C1
S1133CAC0100000000000000000000000000000003
S1133CBC00000000000000000000000000000000F4
S1133CCC00000000000000000000000000000000E4
S1133CDC00000000000000000000000000000000D4
S1133CEC00000000000000000000000000000000C4
S1133CFC00000000000000000000000000000000B4
S1133D0C0000000082B0064B1B6843F00043019393
S1133D1C30BF034A019B136000BF02B0704700BF61
S10F3D2C4C310E40310100000D0100007C
S90301C932
