:1000000000100020CD010000C9010000C90100005E
:10001000C9010000C9010000C9010000C9010000B8
:10002000C9010000C9010000C9010000C9010000A8
:10003000C9010000C9010000C9010000C901000098
:10004000C9010000C9010000C9010000C901000088
:10005000C9010000C9010000C9010000C901000078
:10006000C9010000C9010000C9010000C901000068
:10007000C9010000C9010000C9010000C901000058
:10008000C9010000A5360000C9010000C901000037
:10009000C9010000C9010000993A0000C90100002F
:1000A000C9010000C9010000C9010000A537000016
:1000B000C9010000C9010000D9290000C9010000E0
:1000C000C9010000C9010000C9010000C901000008
:1000D000C9010000C9010000C9010000C9010000F8
:1000E000C9010000C901000025370000614100007E
:1000F000DD3F0000C9010000C9010000C901000086
:10010000C9010000C9010000C901000010B5054C7B
:10011000237833B9044B13B10448AFF300800123B3
:10012000237010BD1412002000000000CC850000D8
:1001300008B5034B1BB103490348AFF3008008BD6A
:100140000000000018120020CC850000A3F5803AC2
:10015000704700BF174B002B08BF134B9D46FFF79E
:10016000F5FF00218B460F461348144A121A04F07B
:100170008FFB0E4B002B00D098470D4B002B00D06F
:1001800098470020002104000D000D48002802D0EF
:100190000C48AFF3008004F049FB2000290004F074
:1001A00079F804F02FFB00BF0000080000000000F9
:1001B0000000000000100020141200206013002036
:1001C0000000000000000000FEE700BF08B500F0DE
:1001D0005BF8064B0648834206D2064A52F8041BD7
:1001E00043F8041B9842F9D8FFF7B4FF0010002031
:1001F00014120020D48500000048704700F0490226
:10020000114BD3F8943003F00703023B032B18D8AB
:10021000DFE803F00D0214104FF400400A4BD3F84E
:100220000031C3F304230133B0FBF3F07047074BF5
:100230001868F3E7064B18684008EFE7054B1868A5
:10024000ECE7034B1868E9E700400E40041000207B
:10025000081000200C10002008B5FFF7D1FF054B57
:10026000054AD3F80831C3F308230133B0FBF3F098
:10027000106008BD00400E4000100020014B1868BF
:10028000704700BF04100020044B054A9A60D3F861
:10029000882042F47002C3F88820704700ED00E027
:1002A000000000004FF40040704700BF4FF47A7028
:1002B000704700BF014B1868704700BF0C1000204A
:1002C00006490A6810B4064C1044A0428CBF4FF097
:1002D000FF3208605DF8044B104670471010002094
:1002E00000000420FEE700BF264B98423DD00DD809
:1002F000A3F5B703A3F5586398423AD010D9224B1F
:10030000984211D1214BD3F84C017047204B9842B1
:1003100033D0204B984213D11C4BD3F86001704767
:100320001D4B98421DD001D9002070471B4B9842AD
:1003300002D01B4B98420DD1144BD3F830017047BB
:10034000A3F53703A3F5D8539842EDD10F4BD3F85B
:1003500058017047134B9842E6D10C4BD3F830014B
:1003600070470A4BD3F83C017047084BD3F8500153
:100370007047064BD3F848017047044BD3F85C0133
:10038000704700BFC0EA21010024F4000081E00FA3
:100390000048E80180D54302C0CF6A0080841E0077
:1003A00000093D0040420F004FF0000C144B154A6D
:1003B0005B68C9B2614510B5634608D00133052BAF
:1003C00002F1080213D012F808CC6145F6D152F8B8
:1003D0000C4C8442F2D30C4A02EBC3035B791A063D
:1003E00007494B6823F0407313434B6010BD074827
:1003F00041F29E31FFF776FF4FF04072F0E700BF09
:1004000000000E40A87D00009C7D0000D87C00000C
:1004100038B5054C41F67133256C2364FFF7C4FFF2
:100420000DB10023236438BD00000E40C0F3032348
:10043000013B10B4092B06D8DFE803F00C150505C5
:10044000191D2D0533391C485DF8044B41F63B114D
:10045000FFF748BF194CC0F30430204480005DF81A
:10046000044B01607047164CC0F30430F5E7154C9F
:10047000C0F30430F1E7144CC0F304304FF0010C2A
:10048000124AD2F84431DB07E7D4D2F8403113EAFC
:100490000C0FFAD1E1E70E4CC0F304304FF0100C12
:1004A000EEE70C4CC0F304304FF4803CE8E70A4C14
:1004B000C0F30430D1E700BFD87C00000000F21088
:1004C0000006F2108005F2100007F21000400E4006
:1004D0004007F2108007F210800AF21008B5C0F34E
:1004E0000313013B092B0FD8DFE803F015272D1B61
:1004F0000E0E213744053D4B98424BD13C4BD3F86F
:10050000300100F0030008BD3A4841F63731FFF7EB
:10051000E9FE002008BD364BD3F80001C0F30420EB
:1005200008BD334BD3F80C01C0F3082008BD304B95
:10053000D3F80801C0F3082008BD2D4BD3F81401EF
:10054000C0F3042008BD2A4BD3F800310120C3F3C7
:10055000006303449840013808BD274B984220D0DF
:10056000264B984230D0234841F6DF21FFF7BAFEF0
:10057000002008BD224B98422FD003F5B01303F59D
:100580008053984216D01B4841F60331FFF7AAFE6C
:10059000002008BD174841F61231FFF7A3FE0020E6
:1005A00008BD134BD3F82031012003F00F0398400E
:1005B000013808BD0E4BD3F82831C3F301230433AF
:1005C00001209840013808BD094BD3F820310120A3
:1005D000C3F301139840013808BD054BD3F8283107
:1005E0000120C3F301139840013808BDA00914008D
:1005F00000400E40D87C00008006160080162E00B9
:1006000090171A0000F00F00013808B5072813D81A
:10061000DFE800F019243A122F451204284BD3F8D2
:100620005C3103F03003202B47D0302B43D0102B0C
:1006300014BF0120072008BD224841F68B61FFF757
:1006400051FE002008BD1E4BD3F8943003F0070381
:10065000023B052B2DD81C4AD05C08BD184BD3F8A3
:10066000803003F00703013B032B20D8174AD05CEE
:1006700008BD134BD3F8883003F00703013B032B6D
:1006800015D8134AD05C08BD0D4BD3F8843003F065
:100690000703013B032B0AD80E4AD05C08BD084B68
:1006A0001B6F13F0010F0CBF0720092008BD0120AC
:1006B00008BD052008BD082008BD042008BD00BFF6
:1006C00000400E40D87C00003C7D0000447D0000CE
:1006D000447D0000487D00002B4B984210B52FD080
:1006E0002A4B9842044623D0294B984230D041F2FD
:1006F0009E412848FFF7F6FD2046FFF783FF41F2B1
:10070000CD4104462348FFF7EDFD042C34D8DFE843
:1007100004F00D2B2F032700FFF772FD1E4BD3F8BB
:100720000041C4F30064013420FA04F4204610BDF3
:10073000FFF768FF184BD3F8884004F00704E4E79C
:10074000FFF760FF144BD3F8844004F00704DCE7A4
:10075000FFF758FF104BD3F8804004F00704D4E7AC
:10076000BDE81040FFF7A2BDBDE81040FFF79ABDFD
:10077000BDE81040FFF79EBD064841F21F51FFF74C
:10078000B1FD0024D2E700BF0300200005002400D3
:1007900002001E00D87C000000400E4000F47813D8
:1007A000B3F5B01F10B500F09D802BD8B3F5402FE6
:1007B00000F0A2801AD9B3F5801F14D0B3F5A01FA2
:1007C00009D16348FFF788FF624BD3F8303103F05B
:1007D0000303D84010BDB3F5602F40F098805D4B07
:1007E0001B6FDB070AD45C4B186810BDB3F5802F74
:1007F0006DD01ED9B3F5202F40F08980BDE81040A0
:10080000FFF7FEBCB3F5381F48D030D9B3F5481F09
:1008100000F08480B3F5781F1BD10446FFF7F0FC8D
:10082000034620461C46FFF759FE0130B4FBF0F0AA
:1008300010BD002BE2D0B3F5003F68D1FFF7E0FC1C
:10084000444BD3F80831C3F308230133B0FBF3F072
:1008500010BDB3F5401F5AD14048FFF73DFF3D4B57
:10086000D3F82831C3F301230433D84010BDB3F5C6
:10087000001F1DD007D9B3F5101F48D1BDE81040A7
:100880003348FFF729BFB3F5D01F16D0B3F5F01FDB
:100890003DD1BDE810403248FFF71EBF3048FFF79A
:1008A0001BFF2C4BD3F82031C3F30113D84010BDEC
:1008B000BDE810402948FFF70FBF2848FFF70CFF9D
:1008C000244BD3F82831C3F30113D84010BDFFF7F0
:1008D00097FC204BD3F80C31C3F308230133B0FB52
:1008E000F3F010BD1E48FFF7F7FE1A4BD3F8203186
:1008F00003F00F03D84010BDFFF782FC154BD3F86F
:100900001431C3F304230133B0FBF3F010BD1548D9
:1009100041F66B21FFF7E6FC002010BD0D4CD4F82A
:100920005C3103F03003202B04D0302B06D0102B89
:10093000F2D158E7BDE81040FFF7A0BCFFF760FC1C
:10094000D4F80031C3F3042303FB000010BD00BF43
:100950000500240000400E40141000200300200079
:1009600002001E00D87C00002DE9F8430546FFF781
:10097000BBFC431E0333064659D8DFF820827A4B6E
:10098000D8F80070C8F80050D3F8943003F007038B
:10099000023B052B46D9754C41F67133D4F8409093
:1009A0002364FFF729FC0021FFF7FEFCB9F1000FDB
:1009B00040F0BF806E4BD3F86048002CFBD1721C16
:1009C00000F0BD806B4B9D4200F0A5806A4B9D42BC
:1009D00000F09E80694B9D422FD0634BD3F894303A
:1009E00003F00703023B052B33D9654B9D4240F2D0
:1009F000A380644A0123954294BF4FF080724FF068
:100A0000007261490B645849D1F8003123F08073BA
:100A10001343BD42C1F8003121D90121284600F01D
:100A200097FE1CE0594AD35C052BC3D1B3E7584865
:100A300042F25531FFF756FC9FE726F0C06646F0BC
:100A40008066494BD3F8943003F00703023B052B33
:100A500072D84E4AD35C052BC7D0BD42DDD8424B7D
:100A60001E61D3F8943003F00703023B052B2BD90A
:100A7000FFF7F2FB8542064667D3D8F80030B34251
:100A800069D3AB4204D0424842F29431FFF72AFCCA
:100A9000404BDB6B5B0604D43F4AD2F8C830002BD6
:100AA000FBD13C4B3046314E5968D6F8408041F678
:100AB0007133C1F301413364FFF776FCB8F1000FE5
:100AC00006D00023336403E0304AD35C052BCFD03B
:100AD000FFF796FB2A4B984218D92A4B01249842DB
:100AE00094BF4FF080704FF00070274B1E4A1C647B
:100AF000D2F8003123F080731843BD42C2F80001E0
:100B00000ED9194BD3F89430BDE8F8830020ECE7F8
:100B100026F0C06695E726F0C06646F0007690E7BE
:100B20000121002000F014FE0F4BD3F89430BDE8F3
:100B3000F883002323643DE70022134661E714484D
:100B400042F26631FFF7CEFB3CE7114842F29231A8
:100B5000FFF7C8FB91E70E4842F29331FFF7C2FB63
:100B6000D8F800308DE700BF00400E4000000E4076
:100B70000020C84380841E0000093D0040420F0051
:100B80000048E8010090D0030000C8433C7D00000D
:100B9000D87C000000300E400000C6430810002042
:100BA000344BD3F8943003F00703023B052B10B508
:100BB000044608D8304AD35C042B04D12F4842F2B3
:100BC0007341FFF78FFB2B4A08231366D2F890304E
:100BD0005907FBD4274AD2F890301B07FBD463781F
:100BE00013B9A378002B38D042F2AF412348FFF766
:100BF00079FB217C012936D01E4A2148536A23F013
:100C00000103022908BF43F0010321785362C0F8B1
:100C1000A014637AA18843EAC123D362136BA17A3B
:100C2000207A03F07F630B43E18843EAC123C11CB0
:100C30000F2943EAC01328BF0F2143EA017313634E
:100C4000A37B94F80DC0E07B217B1B0143EA0C33AE
:100C5000034343EA0143536310BDE378002BC3D140
:100C6000217C0129C8D142F2B6410448FFF73AFB82
:100C7000217CC1E700400E403C7D0000D87C000094
:100C80000000C843013810B50C46032868D8DFE8D7
:100C900000F0223512027F295CD8354A04F07F0427
:100CA000D2F86438002BFBD1324A936923F07F03DA
:100CB0001C43946110BD7F2946D82D4A04F07F045F
:100CC000D2F86038002BFBD12A4A136923F07F0346
:100CD0001C43146110BDB1F5007F2FD2244AC4F328
:100CE0000804D2F86838002BFBD1224A136A23F497
:100CF000FF7323F001032343136210BD1D4BD3F890
:100D000090305B0714D41B481B4B416A21F0300123
:100D100041F010014162016BC4F3C31203320B4076
:100D20000F2A28BF0F22234343EA0273036310BD37
:100D3000124842F2C161FFF7D5FAE4E70F4842F2E8
:100D40008961FFF7CFFAC9E70C4842F29661FFF7D5
:100D5000C9FAB2E7094842F2B161FFF7C3FA9CE76A
:100D6000BDE81040054842F2DB61FFF7BBBA00BFA7
:100D70000020C84300400E4000F8FF0FD87C000060
:100D8000042870D82DE9F0414D4B0D464D4953F8DC
:100D9000207051F8206082B00446002D4BD04A4BA1
:100DA000022853F8208063D000254848484B384437
:100DB0008000C3F860800368002BFCD0002A37D085
:100DC000424B33449E003368002BFCD0022C2FD1C1
:100DD00075B33F4A536ADB0766D54FF48061202321
:100DE000C2F8A8105366536AC3F30113002B0BBF5C
:100DF0004FF4800000204FF440014FF40001D2F87E
:100E0000903031EA0303FAD1002855D1304CD4F8A0
:100E10009C50012200210220FFF7B2FFC5F30A0116
:100E20000220FFF72FFF042323663368002BFCD03A
:100E300002B0BDE8F081274B53F82030244801214F
:100E40000366B940D0F890300B42FBD1002AEFD0B6
:100E500001231F4A03FA06F6D2F890303342FBD141
:100E600002B0BDE8F0811C4842F2D851FFF73ABA0F
:100E7000174B5B6A13F0300F96D1184BDB6B58059C
:100E80000AD5134B596AC9078FD5596A21F0300129
:100E900041F01001596288E70F48019242F2E75190
:100EA000FFF720FA019AECE7536AD2F8903003F486
:100EB0004003B3F5400FF8D1D2F8A030A6E700BF49
:100EC000607D00004C7D0000747D00008004F21005
:100ED00000400E40887D0000D87C000000300E40AD
:100EE0001128F8B50C460AD000F00F000138072889
:100EF0001CD8DFE800F00922721B375C1B6904294B
:100F000000F0978005296AD00025023C0A2C00F2E7
:100F1000A580DFE814F03E01D30025013201A300D3
:100F2000A300A300A300CC0043014101BDE8F840A9
:100F3000A64842F28A11FFF7D5B9062900F062816E
:100F4000A34D013C092C06D8DFE804F07A63530571
:100F500005140505057CBDE8F8409C4841F6CB71B9
:100F6000FFF7C0B906299B4DEBD198484FF4FD51CE
:100F7000FFF7B8F9FFF744F9974B98426BD9974BB5
:100F80000121984294BF4FF080704FF00070944B55
:100F9000944A1964D2F80031934923F080731843BE
:100FA0000123C2F80001C1F8083603232FE0072906
:100FB00000F0FA80092900F0FB80BDE8F840834882
:100FC00042F25501FFF78EB94C1E072C3CD8DFE8E2
:100FD00004F06A3B3B633B3B4C6C844DB1E7844A75
:100FE000844B15689D428FD90021284600F0B0FB44
:100FF0008BE77C4B7C4A40211966D2F81832002BD3
:10100000FBD0794AD2F81C32002BFBD001232B6095
:10101000F8BD744B744A4FF480711966D2F82032CF
:10102000002BFBD0704AD2F82432002BFBD00223D5
:10103000EDE7FFF723F9054600283FF465AFD3E756
:101040000023E4E70423E2E7BDE8F8405F4842F20A
:10105000B301FFF747B90020014698E7BDE8F84023
:101060005A4841F65171FFF73DB95E4B5E4A102177
:101070001966D2F81032002BFBD05B4AD2F814323A
:10108000002BFBD01021574AD2F85C3123F03003FB
:101090000B43C2F85C31F8BD012211460220FFF774
:1010A0006FFE2021EFE70021EDE73021EBE7BDE8FF
:1010B000F840464841F64C71FFF714B90120032669
:1010C00001221146FFF75CFE4B4C41F67133276C51
:1010D0002364FFF791F80021FFF766F90FB10023B1
:1010E0002364002D68D13F4B5E67FFF7B5F80446D7
:1010F000FFF786F8384A904253D9384A0121904286
:1011000094BF4FF080734FF00073354A1164354936
:10111000D1F8002122F080721343384AC1F800311F
:10112000D36B5B0604D4364AD2F8C830002BFBD10F
:10113000324B314E5968376C41F67133C1F301417E
:1011400020463364FFF730F90FB100233364002DDC
:101150007FF45EAF28460121BDE8F84000F0F8BA00
:101160001F4B204A01211964D2F80031022043F0BC
:101170008073C2F800310646A2E7194B194A0126CE
:101180001E64D2F8003143F080730320C2F80031AE
:1011900096E70020042693E7072695E70320052617
:1011A0008EE700231946B0E70E4B00221A67F8BD00
:1011B0000C4B01221A67F8BD104BDB6B5A0692D418
:1011C0000F4AD2F8C830002BFBD18CE7D87C000046
:1011D00080400E4088400E400048E8010090D00357
:1011E0000000C84300400E400010C84384400E4039
:1011F00008100020002D310100000E4000300E408C
:101200000000C6430348044D41F69071FFF76AF8A9
:10121000ABE600BFD87C000080400E40EFF31080AA
:1012200072B6704700B962B6704700BFEFF3118025
:10123000602383F31188704780F31188704700BFE3
:1012400038B542EA0323B3F5007F05460C463BD090
:101250001DD8B3F5807F40D00CD940F201129342E3
:1012600044D1304BD3F824321A0EC3F307432B601A
:10127000226038BD002B43D0012B37D1294BD3F846
:101280002432C3F30722DBB22B60226038BDB3F5F2
:10129000407F3ED040F20132934208D1214BD3F837
:1012A00028321A0EC3F307432B60226038BD40F288
:1012B000012293421AD11B4BD3F82832C3F30722E1
:1012C000DBB22B60226038BD164BD3F82032C3F35B
:1012D0000722DBB22B60226038BD124BD3F81C32E0
:1012E0001A0EC3F307432B60226038BD0E4840F648
:1012F0008E11FEF7F7FF002213462B60226038BDE7
:10130000084BD3F81C32C3F30722DBB22B602260F8
:1013100038BD044BD3F820321A0EC3F307432B60B9
:10132000226038BD0081E00FC47D00001D4B022803
:1013300010B5D3F830320C4622D003281ED0012835
:1013400014BFDBB2C3F307231B0354B913F4702F8C
:1013500019D11549CA6E22F4704213430120CB669D
:1013600010BD13F4702F15D10F49D1F8EC2022F4E1
:10137000704213430120C1F8EC3010BD1B0EE3E7AF
:10138000C3F30743E0E7094840F61D11FEF7AAFF43
:10139000204610BD054840F62911FEF7A3FF0020A6
:1013A00010BD00BF0081E00F00300E40C47D000082
:1013B0000E4BDA6B520618D4DB6B5B0604D40C4A76
:1013C000D2F8C830002BFBD1084B19685A68C1F31A
:1013D0000121C2F3014291421A6803D942F010027E
:1013E0001A60704722F010021A60704700300E40F9
:1013F0000000C6432E4BDA6B520670B506D42D4959
:1014000009781022C1F102018A401A612A4B2B4D42
:10141000D3F8804145F60E02C3F88021296840F2D6
:1014200055120A4022491A66CB6B5E0604F001048D
:1014300004D4234AD2F8C830002BFBD11C4B1B68C4
:10144000D80617D51C4AD2F84031D901FBD41D4B20
:101450001D4E1B6813613178052916D01120FFF746
:101460003FFD2B68DB070CD51CB1134B0022C3F8E2
:10147000802170BD144E31780529EFD12B68DB0730
:10148000F2D40D4B02221A66EEE7094B0F4ADB6BD2
:1014900010685A0604D40A4AD2F8C830002BFBD18F
:1014A000034B5968C1F30141FEF7B2FFE3E700BF08
:1014B00000300E404112002000400E40301200204B
:1014C0000000C6433C1200203A1200200810002001
:1014D0000F4A08B50F4BD2F890201A601120FFF781
:1014E00091F80D4A0D4B1070DB6B5B0604D40C4A6F
:1014F000D2F8C830002BFBD1084B0A485B6804497E
:10150000094AC3F3014303700B69136008BD00BFB0
:1015100000400E40301200203A12002000300E40F1
:101520000000C643411200203C120020704700BF5B
:10153000704700BF704700BF704700BF10B504463A
:1015400000283AD1FFF734FF1F4A136943F0040320
:101550001361FFF7EBFFFFF7EBFF1C4B1B68DA068D
:1015600024D430BFFFF7E8FFFFF7E4FF4CB1FFF7EB
:1015700041FF164AD2F84C3123F00043C2F84C31F7
:1015800010BD124B1B68DB0605D5114B1B69C3F35D
:101590000443082B14D00D4AD2F84C3123F00043F9
:1015A000BDE81040C2F84C31FEF756BEFFF736FEDC
:1015B00006F08EFBFFF736FED4E7FFF789FFC1E7A1
:1015C000044B054A1A60E6E700ED00E000300E40EB
:1015D00000400E4008100020C0EA210110B504466A
:1015E000002845D1FFF7E4FE254BD3F880214FF4C6
:1015F000207145F60E00C3F880011966D10744BF7B
:101600000022C3F880211F4A136943F004031361C9
:10161000FFF78CFF1C4B1B68DA0622D430BFFFF7A4
:1016200089FF4CB1FFF7E6FE174AD2F84C3123F0A0
:101630000043C2F84C3110BD134B1B68DB0605D5C7
:101640000F4B1B69C3F30443082B14D00E4AD2F886
:101650004C3123F00043BDE81040C2F84C31FEF796
:10166000FBBDFFF7DBFD06F033FBFFF7DBFDD6E745
:10167000FFF72EFFB6E7054B054A1A60E6E700BF05
:1016800000400E4000ED00E000300E400810002049
:10169000C0EA2101294BDA6B520600D57047DB6B9B
:1016A0002DE9F0410D465906044604D4244AD2F8E7
:1016B000C830002BFBD1214F7B68C3F301439C4210
:1016C0000ED0204BD3F80081FEF79AFD022C06467F
:1016D00019D0C4F10202102393403B6145B90CB10B
:1016E000BDE8F08121463046BDE8F041FEF790BEEE
:1016F000FB6B5A06F3D4124AD2F8C830002BFBD148
:10170000002CEDD1EEE7104BC8F3042808FB0008CD
:1017100098450CD802213046FEF77AFE074B10227E
:101720001A61002DDCD0DB6B5B06E4D5D8E70748F7
:1017300040F23161FEF7D6FDECE700BF00300E400D
:101740000000C64300400E40002D3101C47D000062
:10175000164BDB6B5B0609D448B1154B1B7813B1F4
:10176000144B98421CD90020FFF794BF704710B566
:10177000114B82B0D3F800410191FEF741FD0C4BB3
:1017800001991B78C4F3042404FB000013B1094B36
:10179000984208D9002002B0BDE81040FFF77ABF98
:1017A0000220FFF777BF0220F5E700BF00300E40B0
:1017B00040120020002D310100400E4009494278BE
:1017C0000B6823F4407343EA0223022A0B6000D023
:1017D0007047054B5B6A9B00FAD5044840F26D6187
:1017E000FEF780BD00300E4000400E40C47D00007A
:1017F000254A4AF6E85310B4546B5363936FDB07E2
:10180000FCD4136C13F0030324D0204A012183423B
:10181000C2F8B41A1BD0032B02D1431E012B21D9CD
:10182000194A936FDB07FCD4136C174923F00303A9
:10183000034313648B6F13F00103FBD10038134A89
:1018400018BF0120012CC2F8B40A00D14B635DF827
:10185000044B70470028E0D10C4B5DF8044BC3F8F3
:10186000B40A7047084A4FF40023D362936FD90734
:10187000FCD4136C044923F0030343F00103136405
:101880004B6A1A03FCD5CBE700300E400000C6437C
:101890002DE9F04FA0F5E16689B00024B6F5966F0A
:1018A000CDE90244CDE90444CDE9064472D8B0F54F
:1018B000E16F9146054688468CBF012200225DD02B
:1018C0005A4BD3F81832190EC3F307434FF4966BF3
:1018D00007910493DFF85CA10192DAF84C40C4F35D
:1018E000017405A902A82346FFF7AAFCDAF8EC70F8
:1018F000019AC7F301273B4606A903A8FFF7A0FCFE
:10190000049A07998B1A06FB03F3B3FBFBF3D21877
:101910002CBF01230023914226D32BBB03980699A9
:101920000B1A06FB03F3B3FBFBF3C3182CBF012018
:101930000020994218D3B8B902980599A1EB000C80
:1019400006FB0CF6B6FBFBFB10EB0B0B2CBF0120D0
:101950000020594508D338B9B9F1000F23D1B8F1A7
:10196000000F30D1012405E0314840F63C31FEF74C
:10197000B9FC0024204609B0BDE8F08F2B4BD3F80A
:1019800018324FF41676C3F30721DBB207910493A4
:10199000B3469FE7264840F6EE21FEF7A3FC20461B
:1019A00009B0BDE8F08FDAF85C1021F4FE4121F0B7
:1019B000020141EA0222B5F5E16F1E4918BF42F06B
:1019C0000202CA65CBE7204600210193FFF7AEFC77
:1019D000019B0446F0B1012138460193FFF7A6FCB4
:1019E000019B0446E0B1134A9B4538BF9B46536EAA
:1019F00023F4FF73BBF1E70F23F0010328BF4FF07F
:101A0000E70BB5F5E16F18BF43F0010343EA4B0361
:101A10005366AFE7064840F64B31FEF763FCA9E793
:101A2000034840F65331FEF75DFCA3E70081E00F69
:101A3000C47D000000300E403C4B196FDA6C10B5CD
:101A4000D4073ED511F0060F57D0132862D84FF4B3
:101A50004C5236483649C36C364C23F47F4313430B
:101A6000C364C26C0B88C16CC2F3032228330132F9
:101A700003EB530302EB820CB3FBFCF3013B072B9C
:101A800028BF072321F0EE6141EA036343F480138A
:101A9000C364B4F90030002B12DB03F12801C1F359
:101AA0004E030B445408016D04EB4202B3FBF2F207
:101AB000072A21F0700328BF072243EA02120265B9
:101AC00010BDDA6CD4070BD411F0060F18D0DB6C04
:101AD000194840F69131FEF705FC6FF0FF02B8E7B8
:101AE000DB6CDC07F4D511F0060FF1D127288CBF91
:101AF0004FF47F424FF4EE42ABE7DA6CD10711D4DA
:101B00000928A4D90A3809288CBF4FF47F424FF422
:101B1000EE429EE7143813288CBF4FF47F424FF4F7
:101B2000EE4296E7DB6CDB07E0D4D1E700300E40F5
:101B30003612002038120020C47D000038B5754BE5
:101B400002229A639B6B03F00F03934240F0A9803B
:101B50000389C82B044637D8A2889A422AD8B4F9F8
:101B60000C30C82B1DDC6378012B11D0022B00F048
:101B7000BF80E38842F21072934200F2A9804A2BA0
:101B80002CD9B3F5FA7F80F0AA804FF0805126E07F
:101B9000A388C82BEDD9604840F65B21FEF7A2FB75
:101BA000E7E75D4840F65721FEF79CFB6378012B81
:101BB000DCD1EDE7584840F65621FEF793FBB4F927
:101BC0000C30C82BCFDDECE7534840F65521FEF72B
:101BD00089FB2389A2889A42C1D9EBE700214D4AAB
:101BE000B4F90C00D36C4D4D23F0405323F00103A6
:101BF0000028A8BF43F001030B43D364D2F8EC30B4
:101C0000A08843F44073C2F8EC30D36E288043F0D0
:101C10008073D366424BD3F88019D3F880390029FA
:101C200038D0002B6ED03B4A136F23F0070343F0EC
:101C300004031367FFF700FF3A493B4B2089B4F9CF
:101C40000C200880A0881A80FFF7F6FEA37B002BEB
:101C50003AD0012B34D0304840F6CE01FEF742FB9B
:101C6000012260881146FFF713FE054608B3294A92
:101C7000D36B43F48063D3636078FFF7B9FDA37A35
:101C8000274AA3F12003B3FA83F35B09C2F8943720
:101C9000284638BD136F23F007031367FFF7CCFE08
:101CA000CAE71D4840F64B210025FEF71BFB2846DE
:101CB00038BD194840F69F21FEF714FB284638BD71
:101CC000144B1A4A9A65CBE7124B194A9A65C7E733
:101CD000114840F66821FEF705FBE3884FE740F620
:101CE000C3118B4294BF4FF000514FF0405176E743
:101CF000A3880A2B7FF63DAF07484FF42661FEF715
:101D0000F1FA36E7044840F6AF31FEF7EBFA2888DF
:101D100089E700BF00300E40C47D0000341200206F
:101D20000000C6433612002038120020372110B7B9
:101D300077402057032838B504460D461ED904289D
:101D400005D005281AD0A0F10803022B16D90D489A
:101D50007D21FEF7C7FA04EB4404240104F180441A
:101D600004F52044FFF75AFA23685D4005F0011599
:101D70005D402560BDE83840FFF754BA35F00113E7
:101D8000E9D0E4E7287E00002DE9F0410D46164633
:101D900098460446E8B1012800F0AE80022800F021
:101DA000EB80032800F0E580042800F09F800528E0
:101DB00000F01581831F012B40F29880082800F065
:101DC0001D81092800F028810A2840F08F80072310
:101DD00001E040F2FF33EB40DF0740F187809EB324
:101DE000B8F1000F20D0002C00F08980012C00F009
:101DF000ED80022C00F0FC80032C00F0E180042C2C
:101E000000F0C980052C00F00181A31F012B40F2D6
:101E1000C280082C00F00981092C00F00E810A2CE8
:101E200040F0B98007236CE0002C71D140F2FF3301
:101E3000EB40D90740F1A9800122834BAA4004EB73
:101E4000440109010B441A6067003A19120102F1BA
:101E50008042072D02F520423BD85368A9000F208D
:101E6000884023EA000306FA01F10B43536076BB76
:101E7000B8F1000F1CD0002C74D0012C00F0AC8005
:101E8000022C00F0AF80032C00F09180042C76D05F
:101E9000052C00F0B580A31F012B70D9082C00F091
:101EA000C080092C00F0C6800A2C68D107235BE0B3
:101EB000002C42D140F2FF33EB40DB0771D5624B7F
:101EC0003C4424010121234401FA05F51D60BDE8CD
:101ED000F081A5F1080391689B000F20984021EA4A
:101EE000000106FA03F30B439360C0E7574840F242
:101EF0001D11FEF7F7F972E74FF6C0736BE740F27A
:101F0000FF33EB40D80746D50122514BAA4096E754
:101F1000012C5ED0022C6ED0032C4ED0042C34D079
:101F2000052C70D0A31F012B2FD9082C7BD0092C96
:101F30007DD00A2C29D107237AE7012C43D0022C2B
:101F400053D0032C36D0042C2BD0052C61D0A31FEA
:101F5000012B26D9082C62D0092C71D00A2C20D153
:101F60000723A9E740F2FF33EB40DA0707D5384BE8
:101F7000A6E74FF47F432EE740F6FF732BE7354883
:101F800040F21341FEF7AEF9F1E732484FF47971B0
:101F9000FEF7A8F950E72F4840F21341FEF7A2F9E7
:101FA000B2E72C484FF47971FEF79CF987E74FF4BC
:101FB0007F43D9E74FF47F437EE74FF47F4337E712
:101FC0004FF47F439DE74FF6C07375E74FF6C0733C
:101FD00097E74FF6C0732BE74FF6C073C4E74FF691
:101FE000FF73F8E640F6FF73BEE740F6FF7363E762
:101FF00040F6FF7385E740F6FF7319E70F23EAE623
:102000004FF6FF73B0E74FF6FF7311E74FF6FF731C
:1020100077E74FF6FF734FE74FF44043DBE60F23BC
:102020004AE70F23A0E70F2302E70F2369E74FF4E6
:102030004043FDE64FF4404396E74FF4404360E7EA
:102040004FF4404338E700BF0CA00044287E000056
:102050000CA000468C7E0000F8B50768064627F401
:10206000407707600C4603F003071546FFF7D6F8E4
:10207000326882EA072303F4407353403360FFF76A
:10208000D1F854B92C4B9E424CD02C4B9E424ED092
:102090002B4840F22911FEF725F933689A071ED51F
:1020A000032F22D126484FF4AF71FEF71BF9254BC1
:1020B000D85D05FB00F018B36FEAC50505442C4454
:1020C000B4FBF0F4013C22D4B4F5007F24D2336891
:1020D0009B0702D5002C08BF01243461F8BD032FF3
:1020E000E0D0194B53F8273002E0184B53F8273053
:1020F0009C42D7D9134BD85D05FB00F00028DBD1FB
:10210000BDE8F8400E4840F26F11FEF7EBB80C48FE
:1021100040F27511FEF7E6F809484FF4BB71FEF77F
:10212000E1F8D4E70A48FEF739FB0446B5E7094869
:10213000FEF734FB0446B0E700C0004000C4004096
:10214000F07E0000387F00002C7F0000207F000020
:1021500000820400009204001C4B984270B50446B3
:102160000E4608D003F58063984204D018484FF417
:10217000D271FEF7B7F804F142457278154905F5BA
:1021800080156B0182F0010200202064E1635A6037
:10219000B268A2B1337B71682046FFF75DFF0B4B3D
:1021A00036789C4208D003F580639C4204D00848EE
:1021B00040F28F11FEF796F86D012E6070BD044855
:1021C00040F20F11FEF78EF8E9E700BF00C00040B3
:1021D000F07E0000FFFF07000C4B984270B50546EB
:1021E0000C46164608D00A48D921FEF77BF85CB1A8
:1021F000012C00D16E6170BD0129F4D8130C1B04B1
:10220000002BF0D1002CF3D12E6170BD0060044092
:102210003C7F000038B50A4B984204460D4604D076
:10222000084840F20911FEF75DF8636B9B07FCD488
:1022300015B10123636038BD0223636038BD00BF60
:10224000006004403C7F000038B5244B98420546AE
:102250000C4604D022484FF4B371FEF743F82178BE
:1022600011B9AB68DB0729D46278A378002A0CBFC8
:1022700000224FF480523BBBE3685BBBE3780BB1B9
:1022800042F4807223790BB142F0400263790BB1C2
:1022900042F08002E37994F806C0207A1B0143EAF9
:1022A0008C03034313432B6039B1AB68DA0704D4C2
:1022B0006B6B9B07FCD401236B6038BD6B6B98077D
:1022C000FCD402236B60CFE7E36842F40072002B7A
:1022D000D4D001E042F400722B61CFE700600440EB
:1022E0003C7F000070B505460C4616461AB36CB923
:1022F000164B9D4206D0BDE8704015484FF49371CF
:10230000FDF7F0BF1348FEF749FA0446124B61018E
:10231000B1FBF6F4203CB3EBC40F4FEAC4060FD375
:102320002B6C0D4AD90702EA060202D46B6C5B07DC
:10233000FCD4EA6070BD0648FE21FDF7D3FFD6E766
:10234000034840F23311FDF7CDFFE9E700A0044058
:10235000707F000090171A00F8FF010038B50C4B91
:10236000984204460D4604D00A4840F25711FDF742
:10237000B9FFE943236C490001F00A01DA0745EA95
:10238000010502D4636C9B07FCD4656038BD00BFB7
:1023900000A00440707F0000154B984270B50446C1
:1023A0000E4604D013484FF4DC71FDF79BFF236CFD
:1023B000DA0702D4636C9B07FCD40A236360656C64
:1023C000002DFCD101232364717B337B22680B43F6
:1023D000B17B22F01C020B4313437168B268236087
:1023E0002046FFF77FFF33786360256470BD00BF30
:1023F00000A00440707F000038B52D4B9842044681
:102400000D460FD003F5806398420BD003F5E053DF
:10241000984207D003F58063984203D025489A215B
:10242000FDF760FF2A780AB9022363600023636224
:10243000EB78A978E8791B0443EA0163297A0B4316
:10244000A97943EA81236978002914BF402100213A
:1024500043EA00230B43697A6879002914BF80217D
:1024600000210B43A97A002914BF202100210B432E
:10247000E97A002914BF102100210B43297B002990
:1024800014BF082100210B432979002914BF4FF400
:1024900000510021002843EA010314BF4FF080518E
:1024A00000210B4323600AB10123636038BD00BFE4
:1024B00000800140A47F000070B506460C4615461A
:1024C00062B194B10F4B6D00013CB4FBF5F413EA1B
:1024D00004234FEA04250DD1756170BD0A484FF4FD
:1024E0002271FDF7FFFE002CECD10848FEF756F9EB
:1024F0000446E7E7044840F2A521FDF7F3FE7561C5
:1025000070BD00BF070080FFD87F0000404105007C
:1025100038B50E4B984204460D4610D003F5806343
:1025200098420CD003F58063984208D003F580638D
:10253000984204D0064840F2BE21FDF7D3FEEB439B
:102540005B0003F00A03E360E56038BD0000014072
:10255000D87F0000294B984210B5044639D003F5C6
:10256000806398421FD003F58063984231D003F511
:102570008063984217D0224840F22E41FDF7B2FE08
:102580000023204A40F6AA6041F20501E060236082
:102590006160A3606361E364A26423666367A36709
:1025A000E367A36510BD0023164A40F6AA6041F216
:1025B0000501E06023606160A3606361E364A2647D
:1025C00023666367A367E3672365A3650023E36569
:1025D00010BD00230B4A40F6AA6041F20501E060FD
:1025E00023606160A3606361E364A2642366636740
:1025F000A367E36700232365A36510BD00000140C6
:10260000D87F0000F9FF010038B5294B98420446F5
:102610000D4610D003F5806398420CD003F580631B
:10262000984208D003F58063984204D021484FF4C3
:102630005671FDF757FE2046FFF78CFFA97B2A8ACB
:10264000236842F00102002943EA020314BF4FF459
:10265000806100210B432A7D236023680AB143F087
:102660000053AA7C23601AB1EB7C43F08003A3657E
:102670002B7BAA68696843F4805363602046FFF7A8
:102680001BFF6B7B0BB11023E3606B7D1BB12368D9
:1026900043F480332360AB7DEA7D1B07120503F012
:1026A000E04302F4E002134323662B78E36038BD75
:1026B00000000140D87F000070B4114E41613368C2
:1026C0007BB1002500E023465A698A420DD89C68F8
:1026D000891A1D464161002CF5D19860846070BC58
:1026E00070473060836070BC70472DB93060836084
:1026F000511A70BC59617047A8608360F8E700BF49
:102700005012002010B500F00FF90B4B1B6883B17D
:102710000A495C690A68A0EB020C644504D32244B0
:10272000121A5A61086010BD001B002208605A612D
:1027300010BD024B186010BD501200204412002042
:1027400038B50E4D0E4A2B6814685B6902201C4494
:1027500000F01AF9204600F0EDF80A482B68002234
:102760000270D988890706D49B681BB159690A444D
:10277000012AF6D938BD0123037038BD501200205C
:102780004412002048120020104A1368B3B183425B
:1027900002D115E0984206D01A469B68002BF9D169
:1027A00008B102207047836893602BB141695A6970
:1027B0000A4400205A617047184670470028F0D13B
:1027C00083681360002BF1D1F6E700BF50120020A0
:1027D0002DE9F04FC20783B0044604D4A30711D4F7
:1027E00003B0BDE8F08F4C4A138801339BB21380CD
:1027F000FFF788FF494B1B68002BEFD0FFF7A0FFC6
:10280000A307EDD5DFF81C81DFF8109100F08CF8FC
:10281000D8F800500646451BFEF708FDD9F80030F1
:102820008346002B74D000273C465A69AA421146C1
:1028300051D8C8F800602A461C4602E05969914206
:1028400009D8187994F804C0844588BF1C469B6851
:10285000521A002BF2D15846FEF7EEFC0023D4F8B2
:1028600014B06361FEF7E2FC82462046FFF78CFF5E
:102870005046FEF7E1FC23690BBBE36813B1216806
:102880002046984700F050F8B344A5EB0B0B0BEB38
:1028900000050646FEF7CAFCD9F80030013783462A
:1028A000002BC2D11E4A012F137025D0022000F048
:1028B00079F8584603B0BDE8F04FFEF7BDBCFEF70F
:1028C000B5FC216901902046FFF7F6FE019B1846F2
:1028D000FEF7B2FCD1E712490020012F087010D09A
:1028E000521B5A61C8F80060FFF72AFF584603B030
:1028F000BDE8F04FFEF7A0BCE388022BD6D11770DD
:10290000D4E7002CECD0E0880228E9D10F70E7E78B
:10291000034A1370CAE700BF4A1200205012002079
:102920004C12002044120020014B9868704700BFF1
:1029300000200440124B9A68596D9B695B0702D4D2
:102940008B1A032B18D9831A022B98BFD01C0C4B5F
:10295000B0F1FF3F38BF013858655A6A42F00402AF
:102960005A62084B1A7832B105490A6D002042F0CC
:1029700002020A65187070478A42F2D1E3E700BF8D
:1029800000200440181000208207054A00F00103CF
:10299000516A48BF43F004030B435362704700BFC2
:1029A00000200440820700F0010306D41A460849BB
:1029B0004B6A23EA02034B627047064A044801212E
:1029C0001170016D21F0030143F004020165EEE78F
:1029D000002004401810002010B5FEF727FC0A4B19
:1029E0009B695A07084A044603F0010003F00703F5
:1029F00048BF40F002001362FFF7EAFE2046BDE840
:102A00001040FEF719BC00BF0020044070B5054619
:102A100084B01648164CFDF7C1FE164AA2FB0023EF
:102A20009B0903FB05F514480121FDF7FFFC012676
:102A300000230A22AD0A694620460293CDE90033FD
:102A40008DF80C308DF80B608DF808608DF8022041
:102A5000FFF7D2FC65626660616A0029FCD102233F
:102A600005486360FDF7E2FC04B070BD404105001D
:102A700000800140D34D62100002040030B58FB0D9
:102A8000124913480191002340F205124FF480517E
:102A9000CDE902300492ADF8181012254FF490528F
:102AA0004FF090504FF49011CDE90901CDE9075254
:102AB000059302220323074C07480B9401A98DF8C4
:102AC00030200D9301F008F90FB030BD050100036F
:102AD000C0CF6A0001010100000C014030B585B093
:102AE000012328200021CDE90013039003AB4C48BB
:102AF000062201F0D7F901F0C9F904460028FAD1FD
:102B00000120FFF783FF0123CDE90043444803ABD5
:102B10000622802101F0C6F901F0B8F90446002828
:102B2000FAD101F0B9F9012305683D48CDE9004328
:102B3000072203AB2146039201F0B4F901F0A6F994
:102B400004460028FAD10120FFF760FF0123CDE9F8
:102B50000043334803AB0722802101F0A3F901F0C1
:102B600095F904460028FAD101F096F90368072B7D
:102B700004D1A5F12804B4FA84F4640901232022C5
:102B80000021CDE900130392254803AB052201F093
:102B900089F901F07BF905460028FAD10120FFF7F9
:102BA00035FF0123CDE900531D4803AB05228021E9
:102BB00001F078F901F06AF905460028FAD101F030
:102BC0006BF903681648009501213C22202B0191E6
:102BD0000392294603AB4FF0130218BF002401F003
:102BE00061F901F053F905460028FAD10120FFF7F9
:102BF0000DFF0123CDE90053094803AB13228021C7
:102C000001F050F901F042F90028FBD101F044F93C
:102C100003683C2B0CBF2046002005B030BD00BF30
:102C2000000C014000B5034683B00A460121CDE9FE
:102C3000003104480023802101F034F903B05DF82D
:102C400004FB00BF000C01400C490D4B0D4A10B4B1
:102C500000240C7001200221C3F88C010424C3F865
:102C60008C1108204FF48041C3F88C41C3F88C01CB
:102C70005DF8044BC2F8BC11704700BF541200202D
:102C800000A0004400A00046CB0710B43DD48C0740
:102C900023D5002A47D1414B4FF480544907C3F84C
:102CA0009C401DD4C10722D5002A4AD13B4B0121AB
:102CB000C3F88C1181071DD444074ED5002A57D183
:102CC000364B0422C3F88C21020703D5334B08226C
:102CD000C3F88C215DF8044B70474B07E2D54ABB23
:102CE0002E4B4FF40051C407C3F89C10DED4840768
:102CF000E2D562BB294B0222C3F88C214307E3D5FE
:102D0000264B0422C3F88C21DEE7002A39D1234B5D
:102D10004FF40064C3F89C408B07BCD44C07DFD44D
:102D2000C307C3D4E3E71E4B4FF480544907C3F8ED
:102D30009C40B7D51A4B4FF40051C3F89C10C10703
:102D4000D5D5174B01218407C3F88C11B4D5144B8A
:102D50000221C3F88C1143070AD40107BAD5002A0F
:102D6000B4D00F4B5DF8044B0822C3F88C21704798
:102D70000B4B0422C3F88C210307F2D45DF8044BFB
:102D80007047074B4FF40064C3F89C408C07CAD4CB
:102D90004B07CFD4C107AAD5D3E700BF00A000449A
:102DA00000A00046F0B519208DB0FFF72FFE40F2CD
:102DB00001134A4A4A484B4CADF81430012600250D
:102DC000ADF82C3005A94FF488531127CDE90973CC
:102DD00007928DF82060069500F08CFBCDE9016527
:102DE0003F4800943B4655223146256000F0F0FBF9
:102DF00000F052FC0028FBD13B4D00950B21CDE9A2
:102E000001000A232960364827685522012100F075
:102E1000DFFB00F041FC0028FBD18222CDE901005C
:102E200000952F482A600B235522012100F0D0FB8A
:102E300000F032FC0028FBD10121CDE90110009403
:102E400027481123552200F0C3FB00F025FC002881
:102E5000FBD12668013706F00F0607F00F07BE42C8
:102E600003D022488E21FDF73DFA00230121CDE950
:102E7000013300951A4829600A23552200F0A8FB67
:102E800000F00AFC0028FBD18122CDE90100009569
:102E900013482A600B235522012100F099FB00F012
:102EA000FBFB0028FBD10121CDE9011000940C4867
:102EB0001123552200F08CFB00F0EEFB0028FBD123
:102EC0002368013603F00F0306F00F06B34203D068
:102ED00006489D21FDF706FA0DB0F0BDDDFB0500AB
:102EE00000C40040581200205C1200204080000006
:102EF000024B002218681A60704700BF5812002069
:102F000010B50A4C84B000231120CDE901332060B4
:102F1000009407480B235522012100F059FB00F0D3
:102F2000BBFB0028FBD1206004B010BD5C12002068
:102F300000C4004000B585B00121064B0093CDE9E7
:102F4000011014230448552200F042FB05B05DF83F
:102F500004FB00BF5812002000C4004070B50320DD
:102F60008CB000F06FFE00F08BF900F0AFF94FF07D
:102F70008043049301238DF828308DF82030079387
:102F80000223154A15480993694604230024102595
:102F9000112605920B93ADF8004001960295ADF80D
:102FA0000C408DF8184000F041FC00F0F7FD00F0F7
:102FB00089FE032000F046FEFFF746FEFFF7F2FE13
:102FC000FFF75CFD2146202000F022F928460CB0D6
:102FD000BDE8704000F0E8BD6F12033B00600440A4
:102FE00010B588B000F0FEFD03071AD4FFF780FF8C
:102FF000132804460EDC042101220220FFF744FEC0
:103000000A492246684602F0B7F8684600F028F9F7
:1030100008B010BD042100220220FFF735FE04494C
:10302000EFE704487921FDF75DF9DFE77C800000D8
:103030008C8000006080000008B500F0D3FD4306DE
:103040000AD400F029FF074B02681A803121BDE83D
:1030500008408020FFF7E6BD03489821FDF742F9BC
:10306000EFE700BF201000206080000010B588B09E
:1030700000F0B8FD030620D400F00EFF194A0168E5
:103080001388194C43EA012321781BB2138019B12C
:10309000002B17DC08B010BD002BFBDA0122022147
:1030A00004202270FFF7F0FD1049684602F064F832
:1030B000684600F0D5F808B010BD0D48AD21FDF709
:1030C00011F9D9E70022022104202270FFF7DCFD6C
:1030D0000849684602F050F8684600F0C1F808B0A8
:1030E00010BD00BF2010002060120020A48000004E
:1030F00060800000B480000000B585B000F072FD73
:10310000430728D41648174902680B68033207EEB4
:10311000902A0133B8EE677A07EE903AF8EE677AB4
:103120000260C7EE277A0B6017EE900A01F012FBDF
:1031300002460B4668460C4902F01EF8684600F04D
:103140008FF80820FFF7F6FE32214020FFF76AFDD6
:1031500005B05DF804FB0548CF21FDF7C3F8D1E7C2
:103160001C10002064120020C0800000608000005D
:103170000148E821FDF7B6B86080000008B500F00E
:1031800031FD830703D4BDE80840FFF7B9BE04480A
:10319000F821FDF7A7F8BDE80840FFF7B1BE00BF72
:1031A0006080000008B500F01DFDC3060BD4FFF7DA
:1031B00095FC88B10B48012100F0DEFBBDE808401A
:1031C000094800F04DB8094840F20911FDF78AF8A6
:1031D000FFF784FC0028EDD104484FF48871FDF717
:1031E00081F8E7E700600440CC80000060800000C8
:1031F00008B500F0F7FC830600D408BDBDE8084020
:1032000002484FF49071FDF76DB800BF6080000078
:1032100010B590B000240F944FF4165E4FF4A064E4
:10322000CDE90D10CDE900E404211B24CDE90441D2
:103230004FF4D8500321CDE908010522012340F2C3
:10324000011C0648ADF830C06946CDE90623CDE93A
:103250000A2300F0B1FB10B010BD00BF00A0044075
:1032600000B583B0019001F0AFFF01990246034819
:1032700003B05DF804EB00F063BC00BF00A00440A5
:1032800008B50E480121FDF7D1F8002211460120B2
:10329000FDF776FD012211460020FDF771FD08487B
:1032A0000221FDF71DFE07480A21FDF719FEBDE8C2
:1032B000084005480121FDF7B9B800BF40410500AD
:1032C0000300200002001E0030253E0010B54648D5
:1032D0000121FDF7ABF84FF001110320FEF72AFDA5
:1032E0000023042208210320FEF74EFD4FF00111B8
:1032F0000320FEF71FFD0023042209210320FEF70F
:1033000043FD002304220E210920FEF73DFD00238A
:10331000194604220820FEF737FD0023042201216C
:103320000820FEF731FD0023042202210820FEF7C9
:103330002BFD0023042203210820FEF725FD002396
:1033400004220B210320FEF71FFD002304220C2181
:103350000320FEF719FD002304220D210320FEF7B0
:1033600013FD0123042209210520FEF70DFD4FF076
:1033700001110520FEF7DEFC0123082205210220B1
:10338000FEF702FD0123082204210220FEF7FCFCC7
:103390000123042203210520FEF7F6FC01231A462F
:1033A00004210520FEF7F0FC01230422082105205A
:1033B000FEF7EAFC0123042203210220FEF7E4FCCD
:1033C00001231A4619460220FEF7DEFC01230422DF
:1033D00000210220FEF7D8FC0221BDE810400123A5
:1033E00004220846FEF7D0BC00350A0010B5037968
:1033F0000446052B31D8DFE803F0191F0308300914
:10340000C369002B40D00323237110BDC369012B76
:103410003FD0D4E90223934230D0A26921681068DA
:1034200001330432A261C862E36010BD03684269DF
:1034300001210171DA6210BDC369012B14D0002B88
:10344000E3D18369C26805210171016818680132FE
:103450000433A361C862E26010BDBDE810400F48AC
:1034600040F20511FCF73EBF0269016852000220DC
:10347000207142F001024B60CA6210BD2368062130
:10348000022221715A6010BD0448F421FCF72AFF82
:10349000B9E70248F821FCF725FFBAE7DC80000015
:1034A0000379032B12D1C36970B50446D3B1D4E9B3
:1034B0000203A16922680133D5690E1D8342A6610A
:1034C0000D60E36007D00423536070BD08484FF4DB
:1034D0009671FCF707BF0620207108210223516076
:1034E000536070BD024840F21F11FCF7FBFEDEE79F
:1034F000DC80000070B5314B044698420CBF304868
:10350000304884B00D460121FCF790FF636B13F047
:10351000010F4FF0010343D1A363636BD90748D573
:103520000123E363D5E901232988ADF80010029354
:1035300069462B7B019220468DF80C30FEF70CFE7D
:10354000D5E90462697E2B7E1C48324343EA41037D
:10355000A264844263641C4B4FF4B0710CBF4FF4FF
:1035600000324FF48062E16321640CBF1A605A603C
:1035700020236360226C206C236C23EA0003236405
:10358000636BE3634021032361606360636BDB056E
:10359000FCD5616BE16320236360226404B070BDDD
:1035A000E363636BDA07BDD508486021FCF79AFE38
:1035B000B8E706485B21FCF795FEB1E700C0004084
:1035C000008204000092040000E100E0DC800000C2
:1035D0002DE9F0412B4EB0420446884615461F4661
:1035E00028D0294B984208D0022000F02BFB012361
:1035F0009D406360E562BDE8F081244E96F820208E
:10360000002AFBD1204B9B6813F0E00F2FD1002341
:10361000C6E903353371079BF361089B0699736212
:103620000122194BC6F808807761B16186F8202025
:103630003360D9E7164E96F82020002AFBD1114BB3
:103640009B6813F0E00F17D10023C6E903353371EF
:10365000079BF361089B069973620122094BC6F828
:1036600008807761B16186F820203360BCE70948A3
:10367000B021FCF737FECAE70648A021FCF732FE6E
:10368000E2E700BF00C0004000C4004090120020EC
:1036900068120020DC800000014B93F82000704786
:1036A0009012002038B51C4B5C6B1A6C1D6C196CA9
:1036B00014401A6C22EA010261061A64DC6306D423
:1036C000A20609D4E3050CD4134B1D6438BD13487E
:1036D000FFF78CFEA206F5D51048FFF7E1FEE305E3
:1036E000F2D50E4C2379062B07D00D4840F24B1132
:1036F000FCF7F8FD084B1D6438BD042300220220AE
:10370000237184F8202000F0BDFA606A00F04CFAC2
:10371000014B1D6438BD00BF00C00040681200208E
:10372000DC80000038B51C4B5C6B1A6C1D6C196C8E
:1037300014401A6C22EA010261061A64DC6306D4A2
:10374000A20609D4E3050CD4134B1D6438BD1348FD
:10375000FFF74CFEA206F5D51048FFF7A1FEE305E2
:10376000F2D50E4C2379062B07D00D4840F24B11B1
:10377000FCF7B8FD084B1D6438BD0423002202206D
:10378000237184F8202000F07DFA606A00F00CFAC2
:10379000014B1D6438BD00BF00C4004090120020E2
:1037A000DC8000001C4B10B51C6ADA6A1440E2078A
:1037B0009C6206D51B6ADB0724D4184B186800F0FE
:1037C000F3F9A00707D5144B1B6A99071FD4144BB4
:1037D000186800F0E9F9620709D50F4B1B6A5B070F
:1037E00006D4104BBDE81040186800F0DDB910BDDC
:1037F0000D484221FCF776FD0A4BBDE810401868E1
:1038000000F0D2B908483821FCF76CFDD5E706482E
:103810003D21FCF767FDDAE700600440B8120020A4
:10382000BC120020C0120020F880000030B5494BC7
:103830002DED028B984285B004460D4600F0858040
:10384000A368D9076AD401236360636B002BFCD1A2
:10385000A368DA0774D502236360636B002BFCD185
:1038600029786A788DF8011001218DF80020ADF8D3
:103870000210394AE3606946204601928DF808300B
:10388000FEF7E2FC616B0029FCD19FED347AD5EDA7
:10389000047A95ED058A67EE877A28EE078AFCEEB2
:1038A000E77ABCEEC88A17EE902A2046FEF794FC11
:1038B000204618EE102A0121FEF78EFCD5E90132D0
:1038C00095F80DC095F8200013432A7B0121A161D2
:1038D00042EA4C02E161636495F8283022644FF0BB
:1038E000FF32A2629B002A7EE16A43EA400313434F
:1038F0000B431B4AE3624FF0006313601949A3684E
:103900001948EC69194A0C60DB076C6AE96A0460C3
:1039100011600ED405B0BDEC028B30BD042000F068
:10392000B1F900212046FEF775FC636B002BFCD13A
:1039300089E7042000F086F905B0BDEC028B30BDAC
:103940000B487521FCF7CEFC85E70A480121FCF7FE
:103950006DFD75E7006004400000030300007A4439
:1039600000E100E0B8120020BC120020C0120020CC
:10397000F88000008006160038B58368044611B14F
:10398000DA070ED538BDDB07FCD50D46042000F064
:1039900079F929462046FEF73DFC636B002BFCD1EC
:1039A00038BD042000F04EF901212046FEF732FC1C
:1039B000636B002BFCD138BD30B5044685B031486F
:1039C0000D460121FCF732FD01232361636C002BBE
:1039D000FCD12369012B03D02B485021FCF782FC3A
:1039E00000232361636C002BFCD18DF80030AB7990
:1039F0008DF80D30EB6B25490193EB79244A8DF856
:103A00000E306B6B28680B60AB6B136002902B79E8
:103A10008DF80C3069462046FEF7BEFC296A2B69FA
:103A2000A26D0B431343A365636DE96AEA6943EA38
:103A300041031343402263656260636C002BFCD139
:103A400080236360636C002BFCD169792046FEF70C
:103A500085FC636C002BFCD1A368D807FCD5A36858
:103A60009907F9D5A368DA0702D5A3689B0703D4A1
:103A700005486E21FCF736FC064B4FF480021A60B5
:103A800005B030BD90171A0018810000F812002010
:103A9000FC12002000E100E038B5254BDC6A9A6B8F
:103AA0009D6B996B14409A6BA00722EA01029A63FE
:103AB0005C6306D4E10725D41D4A936B2B439363C3
:103AC00038BD1C4B1A79012A27D1D3E90212914241
:103AD00028D0511C1A44D9601968127C8A62E20706
:103AE000EAD51968002083F830008A6B187122F03B
:103AF00001028A63032000F0C5F80F4B186800F03C
:103B000053F807E00B4B1A79012AEAD00B48A6219B
:103B1000FCF7E8FB25F00305CEE708488C21FCF70D
:103B2000E1FBC7E719688A6B42F001028A63D6E7B6
:103B300000A00440C4120020FC12002018810000E4
:103B40002DE9F041134C82B00646904694F830308F
:103B500003F0FF05002BF9D10191FDF75FFB07464C
:103B6000032000F06FF8E56001990B48C4F8088065
:103B7000012584F8305001F01FFBB36B266043F041
:103B800002033846B363257102B0BDE8F041FDF78A
:103B900049BB00BFC4120020D4120020014B0022F8
:103BA0001A6070470013002010B50446FDF736FB7D
:103BB000034A13682343BDE810401360FDF732BB8E
:103BC0000013002010B50446FDF728FB044A1368D3
:103BD00023EA0403BDE810401360FDF723BB00BFD8
:103BE00000130020014B1868704700BF001300202D
:103BF00010B5FDF713FB114B1A68002A044604DDCB
:103C00002046BDE81040FDF70DBB5A68002AF7DCDE
:103C10009A68002A06DD0A4A136923F00403136137
:103C200030BFEDE7DB68002B4FF0010002DDFDF750
:103C300085FCE5E7FDF7D2FCE2E700BF04130020B6
:103C400000ED00E038B50446FDF7E8FA0B4A52F8FB
:103C500024300133042B42F82430054604DC284686
:103C6000BDE83840FDF7DEBA05488221FCF73AFB93
:103C70002846BDE83840FDF7D5BA00BF0413002040
:103C80003881000038B50446FDF7C8FA0B4A52F8EF
:103C90002430013B002B42F82430054604DB284643
:103CA000BDE83840FDF7BEBA05489C21FCF71AFB79
:103CB0002846BDE83840FDF7B5BA00BF0413002020
:103CC00038810000034B0022C3E90022C3E902222D
:103CD0001A6170470413002030B55F4B984287B0DB
:103CE00004460D4600F0A6805C4B984200F0A78089
:103CF0005B4B98420CBF5B485B480121FCF796FB8D
:103D0000236C13F0010F4FF0010340F084806364D3
:103D1000236CDA0740F189800123A3646B88A968CA
:103D2000ADF810306B782A7B02910020697B8DF80A
:103D30000D30EB898DF800008DF80C208DF80E10F9
:103D40002A69ADF8123069466B68059220460193E6
:103D5000FEF75AFCD5E906120A43296A95F82B307A
:103D60000A43696A0A4395F829109B0043EA410314
:103D700095F82810A2670B4395F82A10042243EA0D
:103D8000C1036367A264E36C4FF4806113434FF493
:103D90000062E364E160E26029782046FEF7B8FB48
:103DA0002369D807FCD523699907F9D52369DA0770
:103DB00022D523699B071FD5274B9C4223D0274B35
:103DC0009C4241D0264B9C42284B07BF4FF40071C8
:103DD0004FF480724FF480514FF4006259605A6082
:103DE000234A95F82C402349234B286B1470234A0F
:103DF00008601A6007B030BD21486921FCF772FAEB
:103E0000154B9C42DBD1194B4FF400514FF48052BB
:103E100019601A60E4E7A364236CDB077FF57EAFCB
:103E200017484521FCF75EFA78E715484021FCF772
:103E300059FA71E713480121FCF7F8FA60E71248D4
:103E40000121FCF7F3FA5BE7084B4FF400114FF444
:103E5000801219601A60C3E70000014000040140AD
:103E600000080140006204000072040000E100E06C
:103E70001C1300201813002020130020000C014008
:103E8000608100000042040000520400014B93F8DE
:103E90002400704720130020014B1868704700BFB2
:103EA0004C1300202DE9F04100AF0646D7F81CC0A6
:103EB0004FEA8C04E01D20F00700ADEB000DEE464C
:103EC000ADEB000D6846884661B9BCF1000F09DD15
:103ED000043B1C44AEF1040153F8045F41F8045F55
:103EE0009C42F9D1374B384C186094F8243003F0D9
:103EF000FF05002BF9D1BB69A3620CF10103C4E9F2
:103F0000060EA36002200123C4E9035562612571F6
:103F100084F82430C4F82080FFF794FE2B4B2C4A01
:103F20001C7815684FF44063F360A4B1012C37D0BE
:103F3000022C3BD0032C36D0042C2BD0052C38D0AF
:103F4000A31F012B26D9082C36D0092C36D00A2CD9
:103F500020D1072301E040F2FF33EB40DB0719D506
:103F60001C4B04EB4404240123440122AA401A60A0
:103F7000F36CB8F1000F09D043F00403F364F36C61
:103F800043F00203F364BD46BDE8F08123F004036F
:103F9000F364F4E710484FF47971FCF7A3F9DFE715
:103FA0004FF6C073D9E74FF47F43D6E740F6FF736F
:103FB000D3E74FF6FF73D0E70F23CEE74FF440432C
:103FC000CBE700BF4C130020201300201C1300205F
:103FD000181300200CA000448C7E0000F8B5594B4B
:103FE0001C6CDA6CDE6CD96C1440DA6C22EA0102CB
:103FF000A107DA649C6404D4E2071BD4514BDE644D
:10400000F8BD514D2B79012B4DD0022B67D0002BE1
:1040100056D04E484FF48571FCF764F9D5E9022378
:104020009342E9D12B6A0BB946F00106E20726F06C
:104030000206E3D5444D2B79012B09D0434840F2C9
:104040002911FCF74FF93F4B26F00106DE64F8BD5D
:104050002A684FF400610323D16002202B71FFF71F
:1040600011FEA86AFFF7A0FD394A3A4B14781F6881
:10407000002C3ED0012C4CD0022C53D0032C54D019
:10408000042C0AD0052C53D0A31F012B05D9082CD2
:1040900051D0092C51D00A2C52D02F4840F2134154
:1040A000FCF720F92AE0D5E902239342BAD0E96966
:1040B00028680F68476301330431E961EB60AFE7BB
:1040C0002A6A6969002A0CBF012302232B71EB685D
:1040D0000A43296801334A63EB60AA68A0E7D5E97F
:1040E0000223934218D0296801330020EB60486313
:1040F00096E740F2FF33FB40DB07CED504EB4404E8
:10410000164B24010122BA4000211A5185F82410CF
:1041100099E74FF6C073EEE72A68D36C23F00203E9
:10412000D3647FE740F6FF73E5E74FF47F43E2E7B0
:104130004FF6FF73DFE70F23DDE74FF44043DAE785
:104140000723D8E7000C0140201300206081000005
:104150001C130020181300208C7E00000CA00046C9
:10416000F8B5454B1A6CD96CDC6CD86C0A40D96C2C
:1041700021EA0001D9649A64520702D43E4BDC6400
:10418000F8BD3E4D2E79022E10D12B69ABB92968AE
:10419000AB69C9691960012213462A61AA689A426B
:1041A000354B08BF24F00404DC64F8BD344840F209
:1041B0005311FCF797F82B69F0E72A68A968D069D2
:1041C000AA690133171D8B42AF6110602B61D5D1F5
:1041D0000323A86A2B71FFF7E7FC3046FFF752FD77
:1041E000D5E902329A4204D0254840F24D11FCF73D
:1041F00079F8244A244B16781F681EB3012E27D065
:10420000022E28D0032E29D0042E0AD0052E28D025
:10421000B31F012B05D9082E26D0092E28D00A2E2F
:1042200024D01A4840F21341FCF75CF806EB46062E
:10423000174B36010122BA4000219A512B6985F8AB
:104240002410ABE740F2FF33FB40DB07EED4E8E796
:104250004FF6C073F8E740F6FF73F5E74FF47F437E
:10426000F2E74FF6FF73EFE70F23EDE70723EBE7E6
:104270004FF44043E8E700BF000C0140201300204A
:10428000608100001C130020181300208C7E0000A9
:104290000CA00046F0B5764C764EDFF8ECE194E8E1
:1042A0000F008BB001AD103485E80F000FCC0DF17D
:1042B000140CACE80F0001272368ACF800307764D9
:1042C000DEF8FC301B0E40F0CA806B4A4AF6E8511B
:1042D000C2F89011D2F8981141F00401C2F8981177
:1042E000C2F89031644AD2F8643143F40053C2F802
:1042F0006431624A5F49136A614823F4441343F40A
:10430000881313620B68A2F5805243F480730B602C
:10431000D2F8A43143F4F843C2F8A431FCF724FBEB
:10432000002428468DF8004002258DF80140FDF755
:1043300005FC68468DF80150FDF740FA05A8FCF72A
:104340002FFC012211460320FCF71AFD0521112044
:10435000FCF7C6FD224621462846FCF711FDFEF774
:10436000FDFDFFF73FFCC3067DD5FCF757FF044674
:10437000FFF738FC70B32046FCF754FFFFF732FC20
:10438000470730D4FFF72EFCC60735D4FFF72AFCC9
:1043900085073AD4FFF726FC04073FD4FFF722FC39
:1043A000C00644D4FFF71EFC810649D4FFF71AFC6F
:1043B00042064ED4FFF716FC0306D6D58020FFF741
:1043C00001FCFEF753FEFCF729FF0446FFF70AFC49
:1043D0000028D0D1FFF70CFC2046FCF723FFFFF7A5
:1043E00001FC4707CED50420FFF7ECFBFEF784FE67
:1043F000FFF7F8FBC607C9D50120FFF7E3FBFEF77F
:10440000B7FEFFF7EFFB8507C4D50220FFF7DAFB05
:10441000FEF7B4FEFFF7E6FB0407BFD50820FFF761
:10442000D1FBFEF7DDFDFFF7DDFBC006BAD510209E
:10443000FFF7C8FBFEF7B6FEFFF7D4FB8106B5D544
:104440002020FFF7BFFBFEF7D3FEFFF7CBFB4206B2
:10445000B0D54020FFF7B6FBFEF7EEFDAAE7012B33
:104460007FF447AF3EE707482E21FBF73BFF7CE791
:104470008C81000000000E4000300E4000400E40D5
:1044800080BA8C017C8100000081E00F81F0004146
:1044900002E000BF83F0004330B54FEA41044FEA29
:1044A000430594EA050F08BF90EA020F1FBF54EAC4
:1044B000000C55EA020C7FEA645C7FEA655C00F060
:1044C000E2804FEA5454D4EB5555B8BF6D420CDD31
:1044D0002C4480EA020281EA030382EA000083EAB4
:1044E000010180EA020281EA0303362D88BF30BD54
:1044F00011F0004F4FEA01314FF4801C4CEA1131AA
:1045000002D0404261EB410113F0004F4FEA033308
:104510004CEA133302D0524263EB430394EA050F93
:1045200000F0A780A4F10104D5F1200E0DDB02FA02
:104530000EFC22FA05F2801841F1000103FA0EF296
:10454000801843FA05F359410EE0A5F120050EF15C
:10455000200E012A03FA0EFC28BF4CF0020C43FA8D
:1045600005F3C01851EBE37101F0004507D54FF09A
:10457000000EDCF1000C7EEB00006EEB0101B1F5EA
:10458000801F1BD3B1F5001F0CD349085FEA300030
:104590004FEA3C0C04F101044FEA445212F5800F3B
:1045A00080F09A80BCF1004F08BF5FEA500C50F1D8
:1045B000000041EB045141EA050130BD5FEA4C0CBB
:1045C000404141EB0101013C28BFB1F5801FE9D218
:1045D00091F0000F04BF01460020B1FA81F308BF3B
:1045E0002033A3F10B03B3F120020CDA0C3208DD07
:1045F00002F1140CC2F10C0201FA0CF021FA02F1E2
:104600000CE002F11402D8BFC2F1200C01FA02F151
:1046100020FA0CFCDCBF41EA0C019040E41AA2BF76
:1046200001EB0451294330BD6FEA04041F3C1CDA3E
:104630000C340EDC04F11404C4F1200220FA04F05E
:1046400001FA02F340EA030021FA04F345EA030108
:1046500030BDC4F10C04C4F1200220FA02F001FACA
:1046600004F340EA0300294630BD21FA04F029464C
:1046700030BD94F0000F83F4801306BF81F48011E5
:104680000134013D4EE77FEA645C18BF7FEA655C58
:1046900029D094EA050F08BF90EA020F05D054EA2A
:1046A000000C04BF1946104630BD91EA030F1EBF2F
:1046B0000021002030BD5FEA545C05D14000494133
:1046C00028BF41F0004130BD14F580043CBF01F526
:1046D000801130BD01F0004545F0FE4141F470010C
:1046E0004FF0000030BD7FEA645C1ABF19461046E7
:1046F0007FEA655C1CBF0B46024650EA013406BFE8
:1047000052EA033591EA030F41F4002130BD00BFA6
:1047100090F0000F04BF0021704730B54FF4806463
:1047200004F132044FF000054FF0000150E700BFE4
:1047300090F0000F04BF0021704730B54FF4806443
:1047400004F1320410F0004548BF40424FF0000130
:104750003EE700BF42004FEAE2014FEA31014FEA73
:1047600002701FBF12F07F4393F07F4F81F06051C2
:10477000704732F07F4208BF704793F07F4F04BF0D
:1047800041F40021704730B54FF4607401F00045EA
:1047900021F000411CE700BF50EA010208BF70474A
:1047A00030B54FF000050AE050EA010208BF70473B
:1047B00030B511F0004502D5404261EB41014FF4A4
:1047C000806404F132045FEA915C3FF4D8AE4FF0AC
:1047D00003025FEADC0C18BF03325FEADC0C18BF8F
:1047E000033202EBDC02C2F1200300FA03FC20FAE0
:1047F00002F001FA03FE40EA0E0021FA02F114442D
:10480000BDE600BF08B5074B044613B10021AFF366
:104810000080054B1868836A03B19847204602F070
:1048200071FF00BF00000000B081000070B50D4DA9
:104830000D4C641BA4100026A64209D10B4D0C4C54
:1048400003F03AFA641BA4100026A64205D170BDFD
:1048500055F8043B98470136EEE755F8043B984776
:104860000136F2E70C1200200C1200200C1200207E
:10487000101200200A44914200F1FF3300D170472A
:1048800010B511F8014B03F8014F9142F9D110BD59
:1048900002440346934200D1704703F8011BF9E735
:1048A0002DE9F04788B0002B1D461446BCBF03F12C
:1048B00000431446129A109EDDF84CA0B6BF1D4668
:1048C00000232D231370149B23F02008B8F1460F0A
:1048D00005D0B8F1450F00D10136022300E00323D3
:1048E00007AA049206AACDE902A2CDE90036224623
:1048F0002B4600F0FDFCB8F1470F074602D1119B93
:10490000DB0722D5B8F1460F07EB060910D13B783B
:10491000302B0AD1002200232046294603F05CF9FF
:1049200018B9C6F10106CAF80060DAF800309944F7
:10493000002200232046294603F04EF908B1CDF8A5
:104940001C903022079B4B4507D3079B159ADB1B16
:104950003846136008B0BDE8F087591C07911A70FB
:10496000F0E7F7B503460029B8BF494203F8022B28
:10497000B4BF2D222B22092942702ADD0DF1070434
:10498000A4460A27A6460A4691FBF7F607FB16152A
:104990003035632A04F1FF340EF8015C3146F1DC56
:1049A0003031AEF1020504F8011C441C2946614572
:1049B0000AD30DF10902A2EB0E02654588BF002261
:1049C0001344181A03B0F0BD11F8012B04F8012F9D
:1049D000EDE7302330318370C170031DF1E7000033
:1049E0002DE9F04F2DED028B91B00C46DDF8708073
:1049F00016461F46054601F069FAD0F800A0504659
:104A000000F0E2FB00230E9323680993D8F80030EE
:104A100094F818B0073323F0070303F10802C8F82D
:104A20000020D3E90023C4E91223D4E9128929F034
:104A300000430B93CDF8288008EE100AA04BDDE967
:104A40000A014FF0FF3203F0F9F888BBDDE90A01F3
:104A50009B4B4FF0FF3203F0D3F848BB00220023FA
:104A60004046494603F0C2F810B12D2384F8433084
:104A7000944B9548BBF1470F94BF9846804603235B
:104A80002361099B23F0040323604FF00009009782
:104A900033460FAA2146284600F0DAF9013040F0EB
:104AA00092804FF0FF3011B0BDEC028BBDE8F08F6B
:104AB00042464B464046494603F0C0F840B14B469B
:104AC000002BBCBF2D2384F843308048804BD1E7B6
:104AD00063685A1C0BF0DF0143D106236360002298
:104AE000099B06920EAACDE904B20DAA43F4806395
:104AF00003920DF13302CDE9013223606368009324
:104B000042464B4628460A91FFF7CAFE0A994729B2
:104B100080460D9908D1C81C02DB6368994240DDCC
:104B2000ABF1020B5FFA8BFBBBF1650F1FD80139AC
:104B30005A4604F150000D91FFF713FF0E9A131817
:104B4000012A8146236102DC2268D20701D50133A4
:104B500023619DF83330002B99D02D2384F8433006
:104B600095E74729BBD1002BB9D10123B6E7BBF1AB
:104B7000660F18D1002963680BDD216113B9226823
:104B8000D00702D501330B442361A1654FF0000922
:104B9000DFE713B92268D20701D50233F4E7012316
:104BA000F2E74FF0670B0E9B994205DB236821610A
:104BB000D807EAD54B1CE7E70029D4BFC1F10202B0
:104BC00001221344E0E723685A0507D423694246CB
:104BD00031462846B84701302CD162E7BBF1650F5A
:104BE00040F2E080D4E912010022002302F0F4FF39
:104BF000002834D0374A012331462846B8470130CF
:104C00003FF44FAFDDE90D239A4202DB2368D8075A
:104C100010D518EE103A524631462846B8470130B2
:104C20003FF43FAF4FF0000804F11A090E9B013B1F
:104C3000434509DC23689B0700F10581E0680F9B71
:104C40009842B8BF18462EE701234A463146284607
:104C5000B84701303FF425AF08F10108E6E70D9BA6
:104C6000002B39DC1B4A012331462846B847013066
:104C70003FF417AFDDE90D23134302D12368D907B1
:104C8000D8D518EE103A524631462846B84701307A
:104C90003FF407AF4FF0000904F11A0A0D9B5B4285
:104CA0004B4501DC0E9B92E70123524631462846D4
:104CB000B84701303FF4F5AE09F10109EEE700BF56
:104CC000FFFFEF7FB4810000B8810000C0810000C9
:104CD000BC810000C48100000E9AA36D9A42A8BF57
:104CE0001A46002A914637DC4FF0000B29EAE97991
:104CF00004F11A02A36D0993A3EB09035B4533DCAE
:104D0000DDE90D239A423BDB2368DA0738D40E9B9A
:104D1000099A0D999A1AA3EB01099145A8BF9146EA
:104D2000B9F1000F35DC4FF0000829EAE97904F108
:104D30001A0ADDE90D239B1AA3EB090343457FF70C
:104D400079AF0123524631462846B84701303FF437
:104D5000A8AE08F10108ECE7134631464246284662
:104D6000B8470130C0D19CE601233146284609925C
:104D7000B84701303FF495AE099A0BF1010BB9E742
:104D800018EE103A524631462846B8470130BED197
:104D900087E6099A4B46424431462846B8470130D7
:104DA000C1D17EE60E9A012A01DCDB0738D501234A
:104DB000424631462846B84701303FF472AE18EEFD
:104DC000103A524631462846B84701303FF469AEA2
:104DD000D4E912010022002302F0FEFED8B90E9B96
:104DE00008F10102013B31462846B84701300ED197
:104DF00057E60123524631462846B84701303FF472
:104E000050AE08F101080E9B013B4345F1DC4B46D7
:104E100004F15002DCE64FF0000804F11A0AF2E750
:104E200001234246DFE701234A4631462846B84778
:104E300001303FF436AE08F10108E3680F995B1AC0
:104E40004345F0DCFAE64FF0000804F11909F4E7F5
:104E50002DE9F047164699468A680B69DDF82080EF
:104E60009342B8BF1346336091F8432007460C467F
:104E70000AB1013333602368990642BF33680233B5
:104E80003360256815F0060506D104F1190AE368B8
:104E900032689B1AAB4226DC94F84320131E22682A
:104EA00018BF012392062BD404F143024946384629
:104EB000C04701301ED02368E568326803F006035E
:104EC000042B08BFAD1AA36822690CBF25EAE5755B
:104ED00000259342C4BF9B1AED1800261A34B54230
:104EE0001AD1002008E00123524649463846C047FF
:104EF000013003D14FF0FF30BDE8F0870135C6E740
:104F0000E1185A1C302081F84300224494F84510DF
:104F100082F843100233C7E7012322464946384648
:104F2000C0470130E6D00136D9E700002DE9FF4740
:104F30000F7E0C9D782F914680460C469A4601F1D3
:104F4000430207D8622F0AD8002F00F0D880582FCC
:104F500000F0A38004F1420584F842703AE0A7F122
:104F60006303152BF6D801A151F823F0C54F0000BB
:104F7000D94F0000554F0000554F0000554F00001D
:104F8000554F0000D94F0000554F0000554F00000D
:104F9000554F0000554F0000E5500000095000003B
:104FA000C7500000554F0000554F0000075100004A
:104FB000554F000009500000554F0000554F0000AC
:104FC000CF5000002B681A1D1B682A6004F14205AF
:104FD00084F842300123A3E020682968060601F125
:104FE00004030AD50E682B60002E03DA2D237642C7
:104FF00084F843305E480A2319E00E682B6010F0F5
:10500000400F18BF36B2EFE72B682068191D2960E2
:10501000010601D51E6802E04606FBD51E885448ED
:105020006F2F0CBF08230A23002184F84310656802
:10503000A560002DA2BF216821F0040121600EB9F6
:10504000002D4DD01546B6FBF3F103FB1167C75D8C
:1050500005F8017D3746BB420E46F4D9082B0BD12B
:105060002368DE0708D5236961689942DEBF3023D3
:1050700005F8013C05F1FF35521B2261CDF800A077
:105080004B4603AA21464046FFF7E2FE01304CD1D1
:105090004FF0FF3004B0BDE8F087354881F8457027
:1050A0002968236851F8046B29601D0614D5DF07B1
:1050B00044BF43F0200323601EB9236823F020037C
:1050C00023601023B0E7236843F020032360782394
:1050D000284884F84530E3E7590648BFB6B2E6E70A
:1050E0001546BBE72B6826686169181D28603506E0
:1050F0001B6801D5196002E07006FBD519800023FA
:1051000023611546BAE72B681A1D2A601D6862687C
:105110000021284600F0ECFE08B1401B6060636887
:105120002361002384F84330A8E723692A464946CF
:105130004046D0470130ABD023689B0713D4E068CA
:10514000039B9842B8BF1846A4E70123324649465C
:105150004046D04701309BD00135E36803995B1A84
:10516000AB42F2DCEBE7002504F11906F5E700BFDE
:10517000C6810000D78100000EB400B59CB01DAB05
:10518000029006906FF00041094807910491094987
:1051900053F8042B05910068019302A901F08CFBE0
:1051A000029B00221A701CB05DF804EB03B070473C
:1051B000241000200802FFFF034611F8012B03F81A
:1051C000012B002AF9D17047034613F8012B002A5E
:1051D000FBD1181A013870472DE9F74F03690C69A4
:1051E000A3420746C0F28180013C01F1140800F19E
:1051F000140505EB8403019358F8243055F8242056
:1052000001339A424FEA840B08EB8409B2FBF3F6B0
:1052100031D34FF0000E4046AC46F24650F8042B16
:1052200093B206FB03E34FEA134E9BB2AAEB0303D0
:10523000120CDCF800A006FB02E213FA8AF34FEA34
:10524000124E1FFA82FADCF80020CAEB124202EB7F
:1052500023429BB243EA024381454CF8043B4FEAA8
:10526000224ADBD255F80B302BB9019B043B9D42FF
:105270001A462ED33C61384601F00CF9002824DB95
:10528000013628464FF0000C58F8042BD0F800E007
:1052900093B2ACEB0303120C13FA8EF3C2EB1E4273
:1052A00002EB23429BB243EA0243C14540F8043B70
:1052B0004FEA224CE8D255F8242005EB840322B9AA
:1052C000043B9D421A460AD33C61304603B0BDE818
:1052D000F08F1268043B002ACCD1013CC7E712686A
:1052E000043B002AF0D1013CEBE70020EEE7000090
:1052F0002DE9F04F2DED048B456A93B00446DDF89F
:105300008C8016461F4692469B4675B9102000F0C9
:10531000E1FD0246606220B9A94BEA21A94801F0EB
:10532000DBFBC0E901550560C560636A196851B1CE
:105330005A684A60012393408B60204600F068FE63
:10534000636A00221A603B1EAABF002323F0004BB1
:10535000C8F800309C4BBCBF0122C8F8002033EADB
:105360000B031BD1229A42F20F731360CBF313038A
:10537000334300F09685249B63B9944B22E0944B11
:1053800004930833249A1360049813B0BDEC048B83
:10539000BDE8F08F8D4B04930333F3E70022002325
:1053A0005046594602F018FC4BEC19AB804658B1F8
:1053B000229A01231360249B002B00F06F858548FF
:1053C0001860431E0493DFE710AB019311AB009309
:1053D00052465B46204601F003F9CBF30A5508EE2E
:1053E000100A002D00F0848019EE903AC3F31303E5
:1053F00043F07F57564647F44017A5F2FF35CDF8E6
:105400003880754B002230463946FFF743F866A3D3
:10541000D3E9002302F078F965A3D3E90023FFF76D
:105420003BF8064628460F46FFF782F962A3D3E908
:10543000002302F069F902460B4630463946FFF771
:105440002BF806460F4602F00FFC002203900023C3
:105450003046394602F0CAFB50B10398FFF768F9AD
:1054600032463B4602F0B8FB10B9039B013B039365
:10547000039B162B5AD8039A584B03EBC203D3E96C
:10548000002351EC190B02F0B1FB002850D0039B14
:10549000013B039300230C93109B5D1B6B1E089331
:1054A00045BFC5F101030793002300234CBF0893B8
:1054B0000793039B002B3DDB089B039A0B9213443D
:1054C000089300230993209B092B00F28B80052B66
:1054D000C4BF043B2093209BA3F10203CCBF002553
:1054E0000125032B00F28980DFE803F02D3A3859BB
:1054F000DDE910531D4405F23243202BC1BFC3F137
:10550000400305F212400BFA03F326FA00F0DABF6B
:10551000C3F1200306FA03F01843FFF7F9F801235B
:105520000646A1F1F877013D0E936AE70123B2E741
:105530000C90B1E7079B039A9B1A07935342099378
:1055400000230B93BFE700230A93219B002B57DC1A
:105550000123CDE905331A4621920CE00123F3E73C
:105560000023219A0A93039B134405930133012BD3
:105570000693B8BF0123606A00224260042202F150
:1055800014069E4241683FD9204600F001FD049078
:1055900000283DD1124B02464FF4D571BEE60123DF
:1055A000DFE700BFAFF3008061436F63A787D23F9F
:1055B000B3C8608B288AC63FFB799F501344D33F02
:1055C000F58100000C8200000000F07FF1810000F6
:1055D000E8810000C58100000000F83F4083000022
:1055E000898200000125002320930A954FF0FF33A4
:1055F000CDE9053300221223AEE701230A93F5E734
:10560000219BCDE90533B6E7013141605200B6E791
:10561000636A049A1A60069B0E2B00F29D80002D8F
:1056200000F09A80039B002B32DDB74A03F00F0392
:1056300002EBC303D3E90089039BD8054FEA231784
:1056400016D5B24B51EC190BD3E9082302F086F9B9
:1056500007F00F0782468B460325AC4E57B94246EA
:105660004B465046594602F079F982468B4628E06F
:105670000225F2E7F90708D540464946D6E9002356
:1056800002F042F80135804689467F100836E5E78A
:1056900000F09B80039B9D4F5E429B4B06F00F02E8
:1056A00003EBC203D3E9002351EC190B02F02CF8F1
:1056B000361182468B4600230225002E7AD1002B1C
:1056C000D3D10C9B002B00F08280914B00225046DE
:1056D000594602F08BFA002879D0069B002B76D031
:1056E000059B002B36DD039B504659465F1E00226A
:1056F000884B02F009F8059E82468B460135284604
:10570000FFF716F852465B4601F0FEFF824B00227F
:10571000FEF7C2FED046D9468246A1F1507B002E4C
:1057200058D17E4B002240464946FEF7B3FE524612
:105730005B468046894602F077FA002840F0958261
:1057400052460BF100434046494602F04FFA00280A
:1057500040F089825BEC19AB119B002BC0F24881B1
:10576000039A0E2A00F34481674B03EBC203D3E98B
:105770000089219B002B80F2D580069B002B00F333
:10578000D18040F06F82654B00224046494601F0CF
:10579000BBFF52465B4602F03DFA069E37460028A4
:1057A00040F04582049D312305F8013B039B013302
:1057B000039340E2F20705D5D7E9002301F0A4FFE7
:1057C000013501237610083777E7022579E7039F33
:1057D000069E94E704994C4B31440D910A9903EBD2
:1057E000C60353E90223002943D04D49002002F0AB
:1057F000B5F852465B46FEF74DFE049D82468B4649
:105800004946404602F030FA0646FEF791FF02464E
:105810000B4640464946FEF73DFE303605F8016B23
:1058200052465B468046894602F0E0F9002863D183
:1058300042464B4636490020FEF72CFE52465B4658
:1058400002F0D4F9002840F0B5800D9B9D4281D034
:10585000304B00225046594601F056FF2D4B8246F0
:105860008B4640464946002201F04EFF804689465D
:10587000C6E75046594601F047FF0D9B049D0F9324
:1058800082468B464946404602F0EEF90646FEF750
:105890004FFF303602460B4640464946FEF7FAFDBA
:1058A00005F8016B0D9B9D42804689464FF0000232
:1058B00024D11B4B50465946FEF7EEFD02460B46DF
:1058C0004046494602F0B0F9002873D152465B4683
:1058D00013490020FEF7DEFD02460B4640464946CE
:1058E00002F084F900283FF435AF0F9D6B1E0F9333
:1058F00015F8013C302BF8D0039749E0054B01F037
:1059000003FF80468946BDE74083000018830000FE
:105910000000F03F0000244000001C400000144044
:105920000000E03F049D56465F4642464B463046E7
:10593000394602F013F802F097F98246FEF7F8FEB6
:1059400042464B4601F0E0FE02460B4630463946E1
:105950000AF13006FEF79EFD05F8016B049E069FD6
:10596000AE1BB74202460B4635D1FEF795FD4246C7
:105970004B4606460F4602F057F9D0B942464B4611
:105980003046394602F028F910B11AF0010F10D153
:10599000204618EE101A00F03BFB002303982B70F2
:1059A000229B01301860249B002B3FF4EDAC1D605E
:1059B000EAE4039F2B461D4613F8012D392A06D130
:1059C000049A9A42F7D10499302201370A701A7862
:1059D00001321A7090E7A64B002201F095FE0022DA
:1059E000002306460F4602F0F7F800289DD0CFE7C7
:1059F0000A9A002A00F0D780209A012A00F3BA8080
:105A00000E9A002A00F0B28003F23343099E079DEC
:105A1000079A1A440792089A01211A4420460892CC
:105A200000F0AEFB0746002D0CDD089B002B09DDC6
:105A3000AB42079AA8BF2B46D21A0792089AED1AD2
:105A4000D31A0893099B1BB30A9B002B00F0AF806D
:105A5000002E13DD39463246204600F051FC18EE88
:105A6000102A01460746204600F0A0FB18EE101A47
:105A70008046204600F0CCFA08EE108A099B9A1B5B
:105A800006D018EE101A204600F03AFC08EE100A74
:105A90000121204600F074FB0B9B002B064640F3CF
:105AA00088801A460146204600F02AFC209B012BE4
:105AB000064640F381804FF00008336906EB83030C
:105AC000186900F00DFBC0F12000089B184410F08D
:105AD0001F0000F09280C0F12003042B40F38A8065
